:020000040000FA
:0600000002104A0205CACD
:030013000206865C
:03002B00020DA91A
:03003300020B2994
:03003B000206DBDF
:03004300020CC5E7
:030053000204F9AB
:03006B00020B0085
:1000830002055B010100F0FF0700080000FFFF000D
:1000930000050400000003000147726F757000FF44
:1000A3000400100020FD000206FFFF1EAC1A000032
:1000B30000000000000000000000000000003C0001
:1000C300010401020301032E81000000010400006A
:1000D300BC17000000E8030000FFFF0D18018813A0
:1000E3000000E803000064006400B801A0BB0D0039
:1000F300A0BB0D00020202070401051E02051E0239
:100103000A0A010108080103B80B02803E0102FE3E
:10011300FFE8030A050001FFFF020A011401E005DD
:10012300030101FF0FF92C00000000CD2B0000009C
:1001330000FF000000FF00121069604612105A60B1
:100143003DE9687008F618F618F618F62274806709
:10015300F712016E090909748067F72212105A60B9
:100163001D1210697005191919801A120F22701FB8
:10017300120F36C37003E6673319191940071818AD
:10018300182208080874FFF618F618F618F6221253
:100193000F366017121113702192F012110A7019A1
:1001A300501720F014080808090909E7F61819E799
:1001B300F61819E7F61819E7F62212110A60E6E8AD
:1001C30069701F0808E62480F608E436F618547FA1
:1001D300B47F0CE654806007F6E418F618F622188C
:1001E3001822E9C6CC08C6CD08C6CE08C6CFC0E0E3
:1001F300E8C0E0EAC0E0EBC0E009E9F809E7FA0982
:10020300E7FBE6F918E6F8C3EC98ED99EE9AEBC232
:10021300E7F5F0EFC2E795F0500E600CEBCFFBEA89
:10022300CEFAE9CDF9E8CCF8EAA2E7D2E7FAEB3364
:10023300FB13F5F0EEA2E7D2E7FEEF33FFC5F013B1
:10024300A2E730E601B313C5F0C3C0E0C0F07F00FE
:10025300C39BFB605E9418600F401D14601AD0E0CE
:1002630023F9D0E0F80203408AF0E9486003D2F0B2
:10027300E4AFF0FAF9F8803BEB30E40D89F0EA6083
:1002830003D2F0E4AFF0F9CAF8EB30E30D88F0EFF6
:100293006002D2F0AFF0E4CAC9F8EB54076014FB74
:1002A300C3EA13FAE913F9E813F8EF135002D2E0A3
:1002B300FFDBEDD0E0C0E030E739C3E49FFFF5F0AA
:1002C300EC98FC42F0ED99FD42F0EE9AFE42F0D03C
:1002D300E0F9D0E0F8E5F0607AE923F9EE20E742AF
:1002E300D8028067C3EF33FFEC33FCED33FDEE330D
:1002F300FE80EAEC28FCED39FDEE3AFED0E023F96E
:10030300D0E0F84002801BC3EE13FEED13FDEC13A7
:10031300FCEF135002D2E0FF08B800067F7F74FFA2
:10032300802EEF3350178CF020F00260100CBC00CD
:100333000C0DBD00080EBE000408E860DFE933E8D9
:1003430013FFEE2313FE4F4D4C8008E95480FFE466
:10035300FEFDFCEE33EF33F47004FCFD7E80D0E051
:10036300FBD0E0FAD0E0F8D0E0CFC618CEC618CD67
:10037300C618CCC6F9220012105A604F12106960D9
:1003830012E7548066F6120F227011121113703B9C
:10039300090909F4F618F618F618F622120F367042
:1003A3001512110A08080860EAE6447FF6187680F9
:1003B30018E4F618F62212110A60161211137012BD
:1003C300E4F608F608F608E65480F6090909181851
:1003D3001822EAC0E0EBC0E0ECC0E0EDC0E0E68745
:1003E300F0A4FBACF008E687F0A42CFCE435F0FAAB
:1003F3001809E687F0A42C4B60027401CA35F0FC9F
:10040300E433FB09E687F0D2F7A42CCB35F0FC19D3
:1004130008E687F0A42BCC35F0FBE433FD0819E69E
:1004230087F0D2E7A42C4ACB35F0CD3400FC09E6A3
:1004330087F0D2E7A42DCC35F0FDE433FA0918E6B2
:1004430087F0D2F7A42CCD35F0CA3400FC08E68738
:10045300F0D2E7D2F7A42ACC35F07A7E20E70B0A54
:10046300CB33CBCD33CDCC33CC33CB33501470041F
:10047300ED30E00ED2F1E4CD3DCDCC3CCC3B50058C
:10048300DA05C2F1EB547FC63308E63392F0FBE79B
:100493003309E733C39A502D2B70190C0D4C4D7053
:1004A300151806E608C333700D20F10AA2F013F6FF
:1004B300E418800B4024E4F630F002768018F61836
:1004C300F618F68024D33B14501074FFA2F013F6F1
:1004D300187680E418F618F6800FA2F013F618E6E3
:1004E3003303F618ECF618EDF6D0E0FDD0E0FCD0BF
:1004F300E0FBD0E0FA22C0E074F112095BA2AFE4A2
:1005030033F509D2AF85A708AFA1EF5508FE7410E4
:100513005E600612143A75A1EF74085E6008121447
:100523004075A1F78024EFA2E092F0E508A2E082F3
:10053300F05017906198E0F8900A0CE0C398A2D2AB
:1005430065D0335002E8F075A1FE751A00E509A2E3
:10055300E092AF7F020209BAC0E074F212095BA213
:10056300AFE433FED2AF9061A4E0F8759B00E59150
:1005730058540860087591F712148E8023E591583A
:10058300541060087591EF1214948014E591A2E061
:1005930092F0E8A2E082F05007E0C2E0F01215EA20
:1005A3009061A3E0F8E5E9585404600E1215C07594
:1005B300E9FB906193E0A2E640F2751A00EEA2E037
:1005C30092AF7F010209BAC0E074F212095BA2AFD5
:1005D300E433FED2AF9061A5E0F8E5BF5854046060
:1005E3000675BFFB12160280D1C3E498F8E499F9AB
:1005F30012062D8026C3E49AFAE49BFBE920E7E97F
:1006030012062DE498F8E499F922C3E498F8E499E2
:10061300F912062DE498F8E499F9C3E49AFAE49BF5
:10062300FB22EB20E7CFE920E7E0B90010BB00088D
:10063300E88AF084F8AAF022E4FBC8FA22EB7022DD
:100643007B10C833C8C933C9335007C39AC3DBF21D
:1006530080069A50012ADBEAC833F4C8C933F4C9C7
:10066300FA2275F008E4C833C8C933C933C99AC933
:100673009B5004C92AC93BD5F0ECFBC833F4C8E44A
:10068300C9FA22C0E0C0D0E8C0E0E9C0E0C082C03F
:1006930083A8C1E8C0E0900979E0F874F828F582EE
:1006A300E43408F583D0E0F0900978E0F8A3E0683B
:1006B3007006E59590097BF0900979E004F0C39406
:1006C300804002E4F0A374C6F0D083D082D0E0F976
:1006D300D0E0F8D0D0D0E032C0E0C0D0E8C0E0E94C
:1006E300C0E0C082C0839009FCE0F8A3E068700812
:1006F300539AFBA374018022C2E99009FCE0F874C9
:100703000128F0747C28F582E43409F583E0F5C10F
:100713009009FCE0C394804002E4F080AC08080830
:10072300EAC0E0EBC0E086F0E7A4FA180986F0E738
:10073300A42AFA180986F0E7A42AFA180986F0E72A
:10074300A42AFA1986F0E7A4FBE5F02AFA19088629
:10075300F0E7A42BFBE5F03AFA190886F0E7A42B9F
:10076300FBE5F03AFA18180986F0E7A4C5F02BFB6D
:10077300E43AFA1908E7C5F0C6A426F6E5F03BFB10
:10078300E43AFA1886F0E7A4F6E5F00826F6E43B27
:1007930008F6E43A08F6D0E0FBD0E0FA22080808AD
:1007A300E630E711120EFA1207B8080808C64480AB
:1007B300C618181822181818E9799EC608CAC60858
:1007C300CBC608CCC6C370207996CACBCC70197936
:1007D3008ECBCC70137986CC700EF9802ACA33CABB
:1007E300CB33CBCC33CC331930E7F2CCCBCA335039
:1007F300147004EA30E00DE4CA3ACACB3BCBCC3CDC
:10080300CC500209C3E913C6CC182313C6CB18C6B0
:10081300CA18C6F922E4CFC0E0E4CEC0E0E4CDC0FC
:10082300E0E4CCC0E075F020E626F608E633F608EF
:10083300E633F608E633F6181818EC33FCED33FD0F
:10084300EE33FEEF33FFC3EC9709ED9709EE9709FB
:10085300EF97191919400FFFEC97FC09ED97FD0964
:10086300EE97FE191906D5F0BFECF709EDF709EE7F
:10087300F709EFF7191919D0E0FCD0E0FDD0E0FE3D
:10088300D0E0FF222518C582C0E0E51934FFC583F7
:10089300C0E0E518C3958224F810AF088583198555
:1008A30082188008858319858218D2AFCEF0A3E51C
:1008B30020F0A37808E608F0A3DEFAEFF0A3E581C1
:1008C30024FAF8E608F0A3E608F0A3E608F0A30884
:1008D30008E608F0A3E608F0A315811581D0E0FE31
:1008E300D0E0F8158115811581E8C0E0EEC0E02263
:1008F3001210E2B90003020945E490040178AC79CF
:10090300178002F0A3D8FCD9FA781A9000867A01EE
:10091300BA00028007E493A3F608DAF97AAC7B1AEB
:1009230090008778B479018015E493A3AD82AE83F8
:100933008A828B83F0A3AA82AB838D828E83D8E9CC
:10094300D9E77582517583897405120D8B75823AC7
:100953007583297400120D8BC0D02518C582C0E0A1
:10096300E51934FFC583C0E0E518C3958224F3106D
:10097300AF088583198582188008858319858218B5
:10098300D2AFC8F0A3E9F0A3EAF0A3EBF0A3790890
:10099300E709F0A3D8FAECF0A3EDF0A3EEF0A3EF90
:1009A300F0A3D0E0F0A3D0E0F0A3D0E0F0A3E520E3
:1009B300F0A3E5F0F0A322851983851882E0C0E057
:1009C300A3E0F9A3E0FAA3E0FBA37808E0F608A309
:1009D300DFFAE0FCA3E0FDA3E0FEA3E0FFA3E0C099
:1009E300E0A3E0C0E0A3E0F5D0A3E0F520A3E0A3FB
:1009F300F5F010AF0885831985821880088583195F
:100A0300858218D2AFD082D083D0E0F8D0E032E430
:100A13007375F0108E218F22858226858325851894
:100A230082851983E0CEA3E0CF852682852583EBDB
:100A3300C9EAC8EDCBECCAC3E833C8E933C9EA3322
:100A4300CAEB33CBC3EA9EF524EB9FF523B35004E3
:100A5300AB23AA24EC33CCED33CDD5F0DAAE21AF02
:100A6300222212105A601C121069601712110A70A8
:100A7300071211137001D322C0D01211137006D0C4
:100A8300D0B322C32233D0D0501430E0F6C3E7965C
:100A93000809E7960809E7960809E796B32220E0D4
:100AA300D5E6970809E6970809E6970809E697B394
:100AB30022D083D082ECC0E0EDC0E0E493A3FCE459
:100AC30093A3FDED4C600D120BD3EC24FFFCED342E
:100AD300FFFD80EFE493A3FCE493A3FDED4C600DD5
:100AE300120C70EC24FFFCED34FFFD80EFD0E0FD31
:100AF300D0E0FCE493A3C0E0E493C0E022C0E07440
:100B0300F212095BA2AFE433FED2AFE589A2E15052
:100B130003121314758900C2C5751A00EEA2E09280
:100B2300AF7F010209BAC0E074F212095BA2AFE41D
:100B330033FED2AFE58BA2E05003121314758B0082
:100B4300C2E880D5851983851882E0A3FEE0A3F56A
:100B5300207808E0A3F608DFFAE0A3FFE0A3C0E0F3
:100B6300E0A3C0E0E0A3C0E0E0A3C0E0E0A3C0E0F6
:100B730010AF0885821885831980088582188583BC
:100B830019D2AFD083D082020D91D083D082E9C035
:100B9300E0E493A3C386F0C5F095F0F908E493A3CA
:100BA30086F0C5F095F0700BE493A3C3994005E973
:100BB300048002A3E475F002A42582F582E5F035F2
:100BC30083F583D0E0F9E493A3C0E0E493C0E0228B
:100BD300C0E0C3E49396087401939618400FE4931E
:100BE30066700808740193661870007019A3A3C394
:100BF300E49396087401939618A3A3400DD0E0D014
:100C0300E0D0E0020AF0A3A3A3A3A3A3D0E022743D
:100C130004800474028000CCC0E0EDC0E0E518C39A
:100C23009CCCAD1950011D10AF068C188D19800690
:100C33008C188D19D2AF120D0DD0E0FDD0E0FC223F
:100C430074028000CCC0E0EDC0E0E518C39CCCADDD
:100C53001950011D10AF068C188D1980068C188D44
:100C630019D2AF120CEBD0E0FDD0E0FC22C0E0C003
:100C7300F088F0E4936670080874019366187000B6
:100C8300A8F0A3A3700BD0F0D0E0D0E0D0E0020A2C
:100C9300F0A3A3D0F0D0E022D083D082CCC0E0E494
:100CA30093A36006120D4D1470FAE493A360061229
:100CB3000E901470FAD0E0FCE493A3C0E0E493C078
:100CC300E022C0E074F212095BA2AFE433FED2AFBC
:100CD300C2C0E5D1A2E450031213B0751A00EEA20C
:100CE300E092AF7F010209BACAC0E0E493A3C582D0
:100CF300CCC582C583CDC583F0A3C582CCC582C5CF
:100D030083CDC583DAE5D0E0CA22CAC0E0E0A3C53B
:100D130082CCC582C583CDC583F0A3C582CCC582F1
:100D2300C583CDC583DAE6D0E0CA22700908080876
:100D3300226016181818C6C333C608C633C608C6B9
:100D430033C608C633C6D5E0EA22C0E0E493A3D392
:100D53009C5010E493A3C39C400AD0E0D0E0D0E0C1
:100D6300020CB8A3A3A3D0E022C008C3E096F50801
:100D730008A3E096420808A3E096420808A3E09679
:100D830045087001D3D00822C09FF59FE473D09F1C
:100D930022D083D082C09FE493C0E0740193C0E06B
:100DA300740293F59F22C0E0C0D0E8C0E0A8A8D2A7
:100DB300AFC2C7751A00E8A2E792AFD0E0F8D0D06F
:100DC300D0E0327404800A740380067402800274D3
:100DD30001C0E0F404120DFCD0E01210A52200C003
:100DE300D0251810AF08F518500C05198008F51810
:100DF30050020519D2AFD0D0222518F58210AF08C2
:100E0300F518400C15198008F51840021519D2AFD2
:100E130085198322BB0102E722C082C08389828AAB
:100E230083BB0003E08002E493D083D08222601668
:100E3300080808C6C313C618C613C618C613C618AF
:100E4300C613C6D5E0EA22C3E0C696F608A3E0C6F9
:100E530096F608A3E0C696F608A3E0C696F6222502
:100E630018F8E43519F9222518FAE43519FB222577
:100E730018FCE43519FD22251810AF08F518400CAD
:100E830015198008F51840021519D2AF22C0E0E405
:100E930093A36C7009D0E0D0E0D0E0020CB8A3A318
:100EA300D0E022E066701008A3E066700A08A3E0B1
:100EB30066700408A3E06622C3E09608A3E09608E0
:100EC300A3E09608A3E096A2D265D03322C3E796A7
:100ED3000809E7960809E7960809E796A2D265D0BC
:100EE3003322E76670100809E766700A0809E766A7
:100EF30070040809E76622181818E4C396F608E494
:100F030096F608E496F608E496F622C3E096F0080F
:100F1300A3E096F008A3E096F008A3E096F0221869
:100F23001818E60846087009E626087005E633F443
:100F3300220822191919E70947097009E7270970D7
:100F430005E733F4220922C3E697F60809E697F684
:100F53000809E697F60809E697F622C3E49396088C
:100F6300740193960874029396087403939622E689
:100F730027F60809E637F60809E637F60809E637DB
:100F8300F622700422600D18C6C333C608C633C6E2
:100F9300D5E0F41822E657F60809E657F60809E6FD
:100FA30057F60809E657F622E026F608A3E036F6D8
:100FB30008A3E036F608A3E036F622E026F008A3FD
:100FC300E036F008A3E036F008A3E036F022E0565E
:100FD300F608A3E056F608A3E056F608A3E056F693
:100FE30022E056F008A3E056F008A3E056F008A369
:100FF300E056F022E647F60809E647F60809E64711
:10100300F60809E647F622600D08C6A2E713C618DC
:10101300C613C6D5E0F322C6F4C608C6F4C608C68E
:10102300F4C608C6F4C622C3E09608A3E09608A354
:10103300E09608A3E09622C3E7960809E796080915
:10104300E7960809E7962275D00075813F75180168
:10105300751904000208F3E6084608C3134608336B
:101063006002E633F422E7094709C31347093360F3
:1010730002E733F422600C08C6C313C618C613C6AE
:10108300D5E0F422E6F008A3E6F008A3E6F008A30F
:10109300E6F022E0F608A3E0F608A3E0F608A3E0F2
:1010A300F622CAC0E0E6F0A308DAFAD0E0FA22E0BA
:1010B300FAA3E0FBA3E0FCA3E0FD22EAF0A3EBF03C
:1010C300A3ECF0A3EDF022E0F8A3E0F9A3E0FAA388
:1010D300E0FB22E8F0A3E9F0A3EAF0A3EBF022E5BA
:1010E300C754F84401F5C77901222518F582E43580
:1010F30019F58322E9F874FF28F90470F722C2AFC7
:1011030075D69F02000022E6261846184618462286
:10111300E72719471947194722120D94CBE4011207
:101123000D94FBE401120D9448E501120D94D1E5F1
:1011330001120D9478E601120D94C9E601120D9483
:101143000DE701120D94B1E701120D941EE801128F
:101153000D944DE801120D9460E901120D9489E993
:1011630001120D94E4E901120D94B6EA01120D94F3
:10117300DCEC01120D948AED01120D9432F0011290
:101183000D94B7F001120D9498F301120D94CDF55F
:1011930001120D940BF601120D9465F701120D94D3
:1011A30078F701120D94B9F701120D944CF901125D
:1011B3000D94F1FA01120D947DEC03120D94F9ECE8
:1011C30003120D942CED03120D945AED03120D949A
:1011D3009FEF03120D94BEEF03120D9403F003125D
:1011E3000D9499F003120D94E5F003120D9477F129
:1011F30003120D9450F203120D94A1F203120D94F5
:1012030006F303120D9479F303120D94BDF3031245
:101213000D9415F403120D9437F403120D94C7F4CF
:1012230003120D9458F503120D94A4F503120D94B3
:10123300D0F503120D9411F603120D94A9F70312BE
:101243000D9495F803120D9477F903120D949A9463
:1012530005120D94AB9405120D94499505120D9446
:10126300639505120D94FAFF01120D94E7FF031223
:101273000D94AE9305120D94BE9305120D94D9935C
:1012830005120D948D9405120D94A99105120D94D8
:101293002D9205120D94959205120D9452F204129B
:1012A3000D9486F204120D94B2F204120D94DCF242
:1012B30004120D9400F304120D9448F304120D94D8
:1012C3006FF304120D94B4F304120D9449F4041251
:1012D3000D94DEF404120D9413F504120D9438F5F5
:1012E30004120D9464F504120D949FF504120D94E9
:1012F300D2F504120D942BFE02120D944AFE021233
:101303000D94B0FE02120D94CFFE02120D9414FF41
:1013130002120D946DFF02120D94ACFF02120D9494
:10132300AFFF02120D947A9005120D948F9005125F
:101333000D94039105120D941D9105120D94349192
:1013430005120D94479105120D945F9105120D94AA
:10135300749105120D946FE604120D947DE6041248
:101363000D94F6E604120D94CBE704120D949DE957
:1013730004120D9402EA04120D945FEA04120D9410
:10138300F87F00120D94448705120D947C87051293
:101393000D94CA8805120D944E8905120D9494F983
:1013A30004120D9400FA04120D9475FB04120D94AB
:1013B300DCFB04120D9429FC04120D94ADFC041201
:1013C3000D94E2FC04120D9405FD04120D9451FAE0
:1013D30003120D947DFA03120D9414FD03120D9460
:1013E30054FD03120D9490FD03120D94A4FD0312FA
:1013F3000D94BDFD03120D94AEFE03120D9460FF18
:1014030003120D9474FF03120D94488B05120D946F
:101413006C8B05120D94858B05120D94C38B0512ED
:101423000D94F38B05120D94208C05120D942A8CC8
:1014330005120D94908C05120D94938C05120D9446
:101443009D8C05120D94AA8C05120D940A80051229
:101453000D942A8005120D94698005120D948780DE
:1014630005120D94A28005120D94088105120D94A6
:10147300148105120D94718105120D94808105125A
:101483000D94A48105120D94658205120D94728248
:1014930005120D94838205120D94B17F00120D94F1
:1014A300C97F00120D94F57F00120D94CDD804125C
:1014B3000D9427DA04120D9435DA04120D9448DAE8
:1014C30004120D945DDA04120D9472DA04120D9471
:1014D30085DA04120D9401DB04120D9466DB041209
:1014E3000D94EEDB04120D9466DC04120D943FDDC3
:1014F30004120D944FDD04120D945EDD04120D945D
:10150300A49705120D94C89705120D94F097051230
:101513000D94189805120D94B18205120D94D8827A
:1015230005120D94F68205120D94658305120D9430
:1015330012FD04120D942BFD04120D9437FD0412B9
:101543000D944BFD04120D9469FD04120D9473FD6B
:1015530004120D947DFD04120D9490FD04120D945C
:1015630016FE04120D948BFE04120D94BAFE04129F
:101573000D9408FF04120D9457FF04120D9472FF8B
:1015830004120D947CFF04120D948DFF04120D942C
:10159300D0FF04120D9490FF03120D94DBFF03128E
:1015A3000D943BC204120D9467C204120D9484C2BD
:1015B30004120D9497C204120D94B2C204120D9436
:1015C3000CC304120D943AC304120D944AC70412B7
:1015D3000D94A8C804120D94DAC804120D943DC9E1
:1015E30004120D94A9CA04120D94D1CA04120D94C5
:1015F300E6CA04120D94F6CA04120D9436CB0412F3
:101603000D9478CB04120D9488CB04120D944A8F59
:1016130005120D94648F05120D948C8F05120D9491
:10162300A58F05120D94C98F05120D94E78F05122E
:101633000D94FE8F05120D942C9005120D94479076
:1016430005120D94489605120D948C9605120D946F
:101653000BF604120D941BF604120D9420F70412DA
:101663000D9452F704120D9482F704120D94A5F70A
:1016730004120D94BCF704120D94F6F704120D94A2
:101683005BF804120D949DF804120D94E4F804120F
:101693000D9411F904120D943CF904120D94B48CB9
:1016A30005120D94C68C05120D94DA8D05120D9456
:1016B300DD8D05120D94729505120D94A8950512F2
:1016C3000D94EA9505120D94FA9505120D943E9624
:1016D30005120D94B8CB04120D94F2CB04120D94A1
:1016E3005BCC04120D947ACC04120D941CCD04121D
:1016F3000D9425CD04120D9476CD04120D949FCD37
:1017030004120D94ACCD04120D941DCE04120D944D
:10171300ABCE04120D94F9CE04120D942FCF041204
:101723000D9490CF04120D94B9CF04120D9430D0C0
:1017330004120D948CD004120D94C9D004120D948C
:1017430000D104120D9412D104120D9424D1041269
:101753000D9443D104120D944CD104120D940CD268
:1017630004120D9458D204120D9496D204120D94BF
:101773000A8E05120D94A7FF01120D94068505121A
:101783000D943C8505120D94848505120D94DD8618
:1017930005120D94008004120D94318104120D94EE
:1017A3006D8104120D94278304120D945183041246
:1017B3000D94CA8504120D940A8604120D949E8713
:1017C30004120D943D8804120D94958804120D940F
:1017D300288904120D94628904120D94A4890412B9
:1017E3000D94178B04120D94978C04120D94D48EC0
:1017F30004120D94028F04120D942E8F04120D9473
:10180300378F04120D94948F04120D9424900412B4
:101813000D94609304120D94E29304120D94FA96BE
:1018230005120D94129705120D941C9705120D9431
:10183300729705120D94FFE104120D9415E2041240
:101843000D94B6E204120D94F5E204120D9412E322
:1018530004120D9443E304120D9490E304120D94C7
:10186300C4E304120D94FFE304120D94FCE5041287
:101873000D9462E604120D94AE9205120D940D932D
:1018830005120D944B9305120D948C9305120D9430
:1018930073EA04120D94E3EB04120D94CDEC0412DD
:1018A3000D9401ED04120D9453ED04120D94BC98A4
:1018B30005120D94C79805120D94D99805120D942D
:1018C300EA9805120D94C2D204120D941ED3041289
:1018D3000D9449D304120D949ED304120D9436D55E
:1018E30004120D9486D504120D94E0D504120D94C0
:1018F30033D604120D94D8D604120D947ED7041255
:101903000D94008002120D940C8002120D946E80CF
:1019130002120D94788002120D94058102120D9427
:10192300418102120D942D8202120D948C820212B7
:101933000D94158302120D94828302120D94CC83AD
:1019430002120D94478402120D94FE8502120D9427
:10195300C48702120D94CA8802120D94D18902120F
:101963000D94328C02120D94A78D02120D94448EA5
:1019730002120D94908F02120D94909002120D9406
:10198300029202120D94999602120D9483970212F9
:101993000D94059802120D942A9802120D944F98F3
:1019A30002120D94EA9802120D94089902120D94F2
:1019B300269902120D94979902120D94B699021268
:1019C3000D94E39902120D94E49A02120D94CD9BA7
:1019D30002120D94649D02120D94859D02120D94C2
:1019E3002B9E02120D94729E02120D94E49E02121B
:1019F3000D94679F02120D94CC9F02120D9429A09F
:101A030002120D94CCA002120D9441A102120D9466
:101A13007CA102120D94DEA102120D9441A30212C5
:101A23000D94D1A402120D9478A502120D94D0A79F
:101A330002120D941AA802120D942FA802120D94EB
:101A430080A802120D94F1A802120D9421A902128A
:101A53000D9492A902120D9431AA02120D9446AC70
:101A630002120D94DCAE02120D94E9AF02120D9432
:101A7300EAB302120D94B4B402120D94D1B502125A
:101A83000D9485B702120D946BEE04120D949BEE28
:101A930004120D94FBEE04120D9410F004120D9435
:101AA3002BF004120D942BF104120D9478F104120F
:101AB3000D9484F104120D942DF204120D94B8FFC9
:101AC30002120D943F9404120D94F79404120D9492
:101AD300709504120D946C9604120D94769704126B
:101AE3000D94009804120D942C9904120D944D99A1
:101AF30004120D94F19904120D94149B04120D9485
:101B0300C29B04120D943E9F04120D9443D70312FB
:101B13000D9472D703120D94EAD703120D94F9D8DA
:101B230003120D9455D903120D94CCDA03120D94BC
:101B3300E8DA03120D943ADB03120D947DDB0312F2
:101B43000D9490DB03120D94E8DB03120D94AADCD1
:101B530003120D9418DD03120D944FDD03120D943F
:101B630087DD03120D9419DF03120D94F8DF0312BE
:101B73000D9446E103120D9429E203120D94B5E28C
:101B830003120D94F5E203120D9414E303120D9462
:101B93005FE303120D947FE303120D9418E4031221
:101BA3000D94A7E403120D9402E503120D9442E58C
:101BB30003120D94BFE703120D94E3E803120D948F
:101BC30029E903120D941EEA03120D9446EA031247
:101BD3000D9449EA03120D9453EA03120D946FEA2C
:101BE30003120D94F7EA03120D9430EB03120D94D4
:101BF3005CEB03120D9483EB03120D94A7EB03121A
:101C03000D9418EC03120D942BEC03120D945EEC5F
:101C130003120D943D9805120D94499805120D94E5
:101C2300879805120D94F7FF01120D94F4C0031267
:101C33000D9417C103120D9464C203120D94ADC227
:101C430003120D943BBE04120D9471C303120D9441
:101C530074C303120D94C5C303120D943FC403123E
:101C63000D94C2C403120D940FE401120D944DC5DB
:101C730003120D9490C503120D94B3C903120D946E
:101C830064CB03120D94A5CB03120D941CCF031246
:101C93000D944AD003120D94C7D103120D944DD263
:101CA30003120D943FD303120D94C2D503120D9466
:101CB300316C00120D94D16C00120D943D6D001225
:101CC3000D94586D00120D94E26D00120D943B6E4D
:101CD30000120D94866E00120D94ED6E00120D9499
:101CE3006E7000120D94867100120D948DDD011239
:101CF3000D94117400120D94B57400120D94547563
:101D030000120D94427600120D94207800120D9467
:101D1300C17900120D94547A00120D94607B001265
:101D23000D94B9A503120D941CA603120D9464A679
:101D330003120D94A2A603120D94FDA603120D9493
:101D43005AA703120D9495A703120D9417A8031213
:101D53000D9471A803120D94E5A903120D946FAAB3
:101D630003120D94C2AA03120D94DCAA03120D945C
:101D7300F6AA03120D9450AB03120D94D6AD0312C1
:101D83000D94F5AD03120D94E0AE03120D941AB049
:101D930003120D9499B003120D94D0B003120D9455
:101DA3003FB103120D9400B203120D94D9B3031281
:101DB3000D94DAB403120D944BB603120D944BB881
:101DC30003120D94C6BA03120D94A0BC03120D9412
:101DD30061BD03120D94D9BD03120D94F0BD03121E
:101DE3000D94EABE03120D94E2BF03120D9451C089
:101DF30003120D94B5FC01120D940CFE01120D9407
:101E0300CBFE01120D9433FF01120D94B07C00122E
:101E13000D94CB7C00120D940F7D00120D94357D33
:101E230000120D945C7D00120D94747D00120D94CC
:101E3300167E00120D942B7E00120D944D7F00121E
:101E43000D94567F00120D945F7F00120D94687FEE
:101E530000120D948FDD04120D9491E104120D9480
:101E630096E104120D9498E104120D94D58905129C
:101E73000D94F59805120D94008003120D94338090
:101E830003120D949F8003120D943A8103120D9453
:101E9300D78103120D941C8203120D943E82031208
:101EA3000D94578203120D947D8203120D949F8229
:101EB30003120D94DD8203120D94218303120D94FA
:101EC300438303120D94A58303120D946C840312B0
:101ED3000D94238503120D94958503120D9460864A
:101EE30003120D94B38603120D94198703120D94F4
:101EF300538703120D94A58703120D9413880312BD
:101F03000D947E8803120D94818803120D94028927
:101F130003120D94998903120D94198A03120D94D7
:101F2300388A03120D949C8B03120D94A98B031210
:101F33000D94B58C03120D94C28C03120D94CB8CAB
:101F430003120D94A38E03120D94BD8F03120D94EF
:101F5300369003120D94A89003120D94CA900312A5
:101F63000D945E9103120D94329303120D9409970D
:101F730003120D941D9703120D942D9703120D94C4
:101F8300379703120D94409703120D944997031248
:101F93000D94539703120D94809703120D94A997F0
:101FA30003120D94B49703120D94D89703120D9452
:101FB300FC9703120D94669803120D94AC980312C8
:101FC3000D94C99803120D94469903120D947D99AB
:101FD30003120D94BC9903120D94099A03120D94E4
:101FE3008F9A03120D945D9C03120D94E09C0312CF
:101FF3000D94C49D03120D942BA003120D9484A081
:1020030003120D94CEA003120D9429A203120D9472
:102013005EA203120D94B0A203120D9465A30312E2
:102023000D9414A403120D9451A403120D94E6A469
:1020330003120D9452A503120D94128201120D94F2
:10204300448201120D94728201120D94488401128C
:102053000D94288501120D94808501120D94BB8681
:1020630001120D94078701120D94308A01120D9409
:10207300238D01120D94738E01120D94098F011299
:102083000D94158F01120D94478F01120D94CA9070
:1020930001120D94D89101120D94029201120D9424
:1020A300699201120D94C29201120D9428930112A8
:1020B3000D943F9501120D94CE9601120D949897AD
:1020C30001120D94DE9801120D942E9B01120D94B2
:1020D300FE9D01120D940B9E01120D94929E01120E
:1020E3000D94269F01120D94699F01120D94B29FC6
:1020F30001120D9406A001120D947FA001120D94FC
:10210300EEA001120D940BA101120D943BA101123B
:102113000D9470A101120D9440A201120D94E9A235
:1021230001120D946FA501120D948FA601120D9447
:102133007AA701120D94FCA701120D9433AC01127E
:102143000D9470AC01120D94C8AC01120D94FBAC4C
:1021530001120D9465AD01120D949BAD01120D9406
:1021630026AE01120D947EAE01120D9455AF0112ED
:102173000D940EB001120D94A9B001120D94B1B3D8
:1021830001120D94CDB401120D9470B801120D9487
:1021930064B901120D9467B901120D9496B9011235
:1021A3000D949CBB01120D9475BC01120D94B8BC27
:1021B30001120D940EBE01120D944DBE01120D9429
:1021C300DFBE01120D9413BF01120D94D8BF01128B
:1021D3000D94F0C101120D9461C201120D94A1C2BC
:1021E30001120D942FC301120D9457C401120D94C3
:1021F30019C501120D9420C701120D9438C701129D
:102203000D944CC701120D9484C701120D94B2C7EB
:1022130001120D9431C901120D9456CA01120D9485
:10222300BACA01120D946CCB01120D949CCB01120E
:102233000D9463CC01120D94FBCC01120D9421CFAC
:1022430001120D9456CF01120D94B9CF01120D94C2
:10225300E8D001120D9490D101120D94C1D1011255
:102263000D94D9D101120D9468D201120D941CD58D
:1022730001120D94F4D601120D9410D701120D948E
:102283002CD701120D94FAD701120D94EDDB011234
:102293000D943A2F00120D946C2F00120D945B33A2
:1022A30000120D94A73300120D94ED3300120D9418
:1022B3008F3400120D94EB3400120D94303500125C
:1022C3000D94773600120D948B3700120D947A3BE0
:1022D30000120D94FE3B00120D940B3D00120D9461
:1022E300673D00120D94573F00120D94CC3F00122E
:1022F3000D94D63F00120D94E33F00120D940E404F
:1023030000120D94F54000120D949F4100120D949C
:102313001D4200120D943D4200120D9466420012BC
:102323000D94884200120D94E84400120D94AE45BA
:1023330000120D94F34500120D94704600120D9493
:10234300214700120D94534700120D949947001230
:102353000D94D54700120D94254800120D94794829
:1023630000120D94CF4800120D941B4900120D94D6
:10237300884900120D94034A00120D94CE4B0012AB
:102383000D94CE4C00120D94F34D00120D94325166
:1023930000120D94455400120D94025500120D9431
:1023A300465500120D94F65600120D940A5700126A
:1023B3000D94145700120D941E5700120D942A57B2
:1023C30000120D94465700120D94F15700120D940C
:1023D300305800120D943A5800120D9444580012CC
:1023E3000D94B45800120D94FF5800120D94145A12
:1023F30000120D94705A00120D94F15A00120D94AC
:10240300B05B00120D94B95C00120D94ED5D0012E7
:102413000D94DB5E00120D94F35E00120D944E5F7B
:1024230000120D946C5F00120D94B45F00120D94B2
:10243300DB5F00120D94766000120D943C61001274
:102443000D94CE6100120D94486200120D946263E4
:1024530000120D940F6400120D94376500120D9451
:10246300876500120D94EB6500120D944D66001202
:102473000D947B6600120D949F6600120D94D46632
:1024830000120D94056700120D94386700120D9425
:10249300586700120D94C06700120D94B4680012BF
:1024A3000D940F6900120D94386900120D94C069E0
:1024B30000120D94436A00120D946E6A00120D947B
:1024C300536B00120D9468A104120D94A0A1041281
:1024D3000D94C1A104120D9403A204120D9465A2DC
:1024E30004120D946FA204120D947FA204120D9492
:1024F300BAA204120D949AA604120D9487A804128A
:102503000D946DAA04120D9404AB04120D94A6ABA2
:1025130004120D94C2BA02120D9440BB02120D9420
:102523009CBB02120D94E7BB02120D9402BC021273
:102533000D942DBC02120D944ABC02120D9456BC8C
:1025430002120D94EDBD02120D9406BE02120D94FB
:102553008BBE02120D949EBE02120D94BDBE0212DA
:102563000D9461BF02120D94E2C002120D9495C244
:1025730002120D942BC302120D942EC302120D945A
:102583009EC302120D94BCC302120D9453C40212D3
:102593000D949BC402120D949EC402120D9464C543
:1025A30002120D94D1C502120D94F7C502120D94B7
:1025B30082C602120D94A0C602120D94E6C6021240
:1025C3000D949AC702120D94E4C702120D9413C816
:1025D30002120D9470C802120D94A5C802120D9434
:1025E300D1C802120D94DFC802120D942CC9021235
:1025F3000D949CC902120D94E5C902120D9431CABF
:1026030002120D945DCA02120D9468CA02120D944F
:1026130086CA02120D9471CB02120D947BCB021267
:102623000D94B6CB02120D94C6CB02120D94CFCBF0
:1026330002120D9423CC02120D9437CC02120D9486
:1026430066CD02120D947DCD02120D9492CD02122D
:102653000D9420CE02120D9465CE02120D94F1CE8C
:1026630002120D94FCCE02120D943ED002120D9470
:1026730059D002120D94A5D002120D9414D1021256
:102683000D944DD102120D9467D102120D94A9D16C
:1026930002120D9479D402120D9426D502120D94D0
:1026A30093D502120D94D3D702120D94EBD70212D5
:1026B3000D94EED702120D94FAD702120D940ED890
:1026C30002120D9416D802120D9449D802120D94D9
:1026D3004BD902120D94D2D902120D9442DA02128E
:1026E3000D94C4DA02120D9485DB02120D94A4DB5F
:1026F30002120D9445DC02120D94A2DC02120D9419
:10270300A5DC02120D94D2DC02120D94E7DC021256
:102713000D945BDD02120D94AADE02120D94B0DF5C
:1027230002120D943BE002120D9456E102120D9435
:102733001EE202120D944FE202120D9472E2021293
:102743000D947BE202120D94AAE202120D943AE375
:1027530002120D94F0E302120D9465E402120D943B
:102763000CE502120D9481E502120D94B8E50212F4
:102773000D94F6E502120D942CE602120D9427BE79
:1027830004120D9477BD04120D947DBC04120D94B4
:102793009EBB04120D94F4B804120D9406B80412EF
:1027A3000D949BB704120D9417FE02120D940DFEA7
:1027B30002120D94A0FD02120D948BE101120D94EF
:1027C300C5C403120D94D1FB02120D948FFB0212A8
:1027D3000D94FDDC01120D94B7DC01120D949DFAEA
:1027E30002120D9471FA02120D9428FA02120D943A
:1027F30065F902120D944FF602120D9412F40212AF
:102803000D94DFF302120D9486F302120D9419F363
:1028130002120D94D8F202120D9411F202120D94C9
:10282300ABF102120D944AF102120D94EAF0021276
:102833000D94C1EF02120D9455EF02120D94ADEEFB
:1028430002120D94A8EE02120D949CEE02120D9446
:1028530082DC01120D944FDC01120D943ADC01125B
:102863000D940FDC01120D94F5C104120D94C1C136
:1028730004120D946AC104120D94CFEA02120D944E
:10288300A9EA02120D9447EA02120D94E8E9021232
:102893000D94F1BF04120D94D5E902120D94CAE907
:1028A30002120D9499E902120D9486E702120D9417
:1028B30043BF04120D94F9E602120D9439DE01129E
:1028C3000D94B5E602120D9489E602120D9446B7F3
:1028D30004120D94F1B604120D94C4B604120D94AF
:1028E30091B604120D9469B604120D940AB604123B
:1028F3000D94EAB504120D94B5B504120D9479B292
:1029030004120D944EB004120D943EAE04120D94B5
:10291300BBAD04120D94097200120D946FAD041235
:102923000D94A6BE04120D9423AD04120D947DAC38
:1029330004120D940BC30300000080FB8F00010001
:10294300431B87000100411B350004000A1B2500BF
:1029530002000E1B26000200101B27000200121BA0
:10296300280001001C1B290001001D1B840004001A
:10297300981886000100BA1A2A0001001E1B2B00BA
:1029830001001F1B2C000100231B2D000800A418AD
:102993002E000100241B2F000100251B3000010025
:1029A300261B31000100271B32000100AC18330045
:1029B3000100AD1834000100281B36000100AE18D9
:1029C30038000100291B39000100221B830002008B
:1029D3003F1B63000100BA1864000100201B65005F
:1029E3000100211B6D000100BB18710008009C1839
:1029F300660001003E1B430001002F1B4400020040
:102A0300301B45000100321B46000200331B470008
:102A13000800B21848000100351B4B000100361BAB
:102A230004000100421BA1000100461B3700010006
:102A3300451B88000100441B3C000100AF183D000A
:102A430001002A1B49000200371B67000100BC1864
:102A53004D000200391B4E0001003B1B4F000200DA
:102A63003C1B3E0001002E1B51000100B018520018
:102A730001002C1B530001002D1B54000100B11851
:102A830000000000000000013636010100010201D0
:102A9300000103010001040106060502000007010D
:102AA30000340801000F090401010D0100FF0E08A5
:102AB300000017020000190100FF1A0100011B01A9
:102AC30000FE1C0100081D0200001F01000120017F
:102AD3000001210200002301000F2402000026014F
:102AE300000127010008280200FF2A0100072B012B
:102AF30002402C0100002D0100012E0100012F01D5
:102B030000FF30010B1D310800003A0100083B01B2
:102B1300000F3C0100013D0100FF3E0400004204A0
:102B23000000460400004A0400004E040000520462
:102B33000000560400005A040000000000002001B9
:102B43000C820000010020010E820000020020011F
:102B530010820000030020010D82000004004201E6
:102B6300EB80000005004201DB800000060042010B
:102B7300F5800000070030011182000010004203BD
:102B830077170000110030038817000012001003AC
:102B930089170000FDFF21010A82030000002103C1
:102BA3008A170300FDFF21410A820C0055003905F5
:102BB3008C170C0045003901EA810C0041003901F2
:102BC300EE810C0001022123E61A010371030103C4
:102BD30001030103010301032203020301031003A1
:102BE3000003000300030003000300030003420388
:102BF3000003240306030003000304031203250355
:102C03002303250323030403040300030003000336
:102C1300440300030003230300036503210035037A
:102C230081030003050300030003000300032503DE
:102C330023030302710230016002110270020102D8
:102C4300020202028002100261023A0041006302A2
:102C5300730272026202430200021302380000028E
:102C63000002040212020002000200020002040237
:102C73000402370037003C0244020002390000021C
:102C8300000265020002350281020002050282028F
:102C9300830200020101710101010101110101011E
:102CA3003101010101018001100161013B001400A8
:102CB3006301730172016201430100011301060103
:102CC3003D01350004011201000100010001000172
:102CD30004010401330133013C0144013201360094
:102CE30000010001650100013500810100010501BA
:102CF30082018301000103007100300160001100B3
:102D030070003102200350048000100061000000B5
:102D1300140063007300720062004300000013009C
:102D23000600000000000400120000000000000084
:102D3300000004000400370037003C024400000098
:102D43000000000000006500000035008100000065
:102D530005000000830000003600010006000000AB
:102D63000F0000000000000000000000000003FF4F
:102D7300FF00000403FFFF0000FFFF0FF401000545
:102D8300C4040320000100000B0000000000000049
:102D93000003010F0000000000000000000000001D
:102DA3000000000000000000000000000000000020
:102DB300000000000000101A581A161A20191C1AD5
:102DC3005E1A1C1A6A1A221A20191C1A5E1A281A69
:102DD3002019000000002E1A201900000000000036
:102DE3000000341A20193A1A701A401A20190000E8
:102DF30000000000000000000000461A821A4C1A6E
:102E03002019461A821A4C1A20193A1A701A521AA1
:102E130020190000DA1C0100DA1C0200501C028099
:102E23004A1C0300561C04005C1C0480621C050041
:102E3300C0270600741C3100861C33008C1C340030
:102E4300921CFFFF000007ECFDFDFDECDCDCCCBCBD
:102E5300ACAC9C9C8C7C7C6C6C5C5C5C4C4C3C3C5F
:102E63002C2C1C1C03EAF5E5D5D5C5B5A595958590
:102E730085757565655555454535352525151505FF
:102E83000A0A2302D42205E02207DA220CBC220D0F
:102E9300C822FF000000160F00000B150B020002F2
:102EA300220F3300000E0F5A6967426565416C6C4F
:102EB30069616E63653039D0D1D2D3D4D5D6D7D832
:102EC300D9DADBDCDDDEDF303016181920231A1CDB
:102ED3001E3000034D4C4651181A250502000119F6
:102EE3001618161618230300303017181921301B33
:102EF3001D1F30003C40423A3F3F392F47300C0EF4
:102F0300020B040B0A0708000F020402010101016E
:102F13000902E803000000BE040A01000E000300DA
:102F2300E803FF04091203101E030A0C0404082813
:102F3300020C0508151E0474F7120887E99019910D
:102F4300F0901946E4F012169E9019A9E4F0A3F04C
:102F5300901992F0A3F012245A1216A49018CAE4FE
:102F6300F0A3F0121E3C0248A074F012088774D339
:102F7300120E7A1262FC54806066901991E0F91285
:102F8300170A8A088B09AF09EA4F604C7C0080015D
:102F93000CEC75F003A4F8A9F0748328F582742E61
:102FA30039F583E493F46029E493F88A828B83E010
:102FB3006870DDEC75F003A4F8748428F582742E30
:102FC30039F583E493C0E0740193F583D082120A48
:102FD30012AA08EFFB1216F8126A2E648002333B22
:102FE300851882851983A3E05420601F1223708AF9
:102FF300088B09AF09EA4F600A1222C8AA08EFFB3F
:103003001216F8126A2E642002333B851882851942
:1030130083E0A2E0504290194BE0640F702E900CB5
:10302300E8126A39900CE8C3E094E9A3E094034002
:103033000A7A007B809017BC124982790012229E83
:10304300E96009901B0A1210B21222B68518828514
:103053001983E06401023320542070030233257A7C
:10306300207B00901991E0F9121860EA4B4C4D70E7
:103073001A9019A51210CAE8494A4B700E75080137
:10308300750900750A00750B00806D750C00750DD0
:1030930000750E00750F001218728A088B098C0ACE
:1030A3008D0B9019A51210CAE8494A4B603190194B
:1030B300A57808120D6C400E750CFF750DFF750E8B
:1030C300FF750F7F801985080C85090D8C0E8D0FF8
:1030D3009019A5780C120E4A7401780C120E3185E2
:1030E3000C08850D09850E0A850F0BE50845094572
:1030F3000A450B700302327F7C0079047A007B005F
:103103001223468A0C8B0DAE0CAF0D0231C3740231
:103113001210ED74FFF074031210ED74FFF07404D9
:103123001210ED74FF1249F51261B67407120E7294
:1031330012646CE96401706A1233474480F8A3E0B7
:10314300F974281210EDE8F0A3E9126700E0C0E07B
:10315300742A1210EDD0E01249E254086016742864
:103163001210EDA3E04401123354C0E0742C12108A
:10317300EDD0E0F012633F6011E8240B123B3AF804
:1031830074161210EDE8F0A3E4F09081D6120C123D
:103193007406120E72740B120E6A121F68740412F4
:1031A3000DE18E828F83A3A3A3A3A3A3A3A3A374DD
:1031B30006123354F912232874051210ED1264C356
:1031C300EE4F700302327F7C007904EEFAEFFB12BC
:1031D300234674051210EDEAF0A3EB12470CE0F559
:1031E3000CA3E0F50DE4F50EF50F7808790C121039
:1031F3003A4023EE2404F8E43FF985080C85090DD1
:103203008882F583C3E0950CF0A3E0950D126B2340
:10321300E84970A4800C8E828F83A3A3A3A3E4F058
:10322300A3F08E828F83A3A3A3A3A3A3A3A3A3A388
:10323300E064018E828F83A3A3A3A3A3A37020E0E2
:10324300540460030231118E828F83A3A3A3A3A32B
:10325300A3A3A3A37406F07AB712347A0231BBA3F3
:10326300A3A3A3E060030231118E828F83A3A3A3E0
:10327300A3A3A3A3A3A37401F00231BB1223167C5F
:103283000079017A007B00122346EA4B600312495E
:103293007B7C0079047A007B00122346EA4B70138F
:1032A30080448A828B83A3A3A3A31264DBEE98EFEB
:1032B30099400B8A828B83A3A3A3A31264C37C00CC
:1032C30079041223468B0BA90BEA4970D5C3E50891
:1032D3009EE5099F500DC3EE9508FEEF9509FFEE9D
:1032E3004F700D12497B9019A512334DA3F0802422
:1032F300EE2EFEEF338E08F509E4F50AF50B780898
:10330300120DC67A20123523120DE112187290198C
:10331300A51210BE851882851983E06420FAA3E004
:103323008016A3E054046013125B9312288C790176
:10333300123D01126A2E6404FB80047A007B007440
:103343002D02631BEE126329E022E4F0A3F0A3F045
:10335300221249E7A3A3E022C082C08374EA120EBB
:103363007A7C167D007900AA18AB191216E074084E
:103373001210ED7402F090193A125DCF12339B7460
:10338300091210ED125DE774131210EDE4125A6680
:10339300121E307416024CB1E8F0A3E9F090194400
:1033A3001264AB2274F712088774DA120E7AEAFEFB
:1033B300EBFFEA4F602DAC18AD1912238E74061281
:1033C30010EDE0601E74171210EDE0FD7401121091
:1033D300EDE0FCEEFAEFFB7900122274E960047968
:1033E300A480027900742602489D74F7120887EAC4
:1033F300FEEBFF8A82F583A3A3A3A3A3A3E0544018
:1034030060178A828B831262DC124BC060067AFFDC
:103413007BFF80151262D8800390193A1261B6744B
:10342300FE6A700374FF6B60411262D8126302126A
:103433002424E98E828F83600B125EC5126AEEE448
:10344300F0A38003126ADDF07CA47D228E828F8339
:10345300124236E9F5087015EE4F60097901EEFA6C
:10346300EFFB122322A9080248A07508CDAA08126F
:10347300347AE960E380EE8E828F83125EC9240C76
:10348300F582E438F583E0F91222B02274F61208CB
:1034930087E9FEEAFF7A0F7B001216F2EA4B601A05
:1034A3008A828B83740CF0EEA3A3F0EF8A828B8362
:1034B30012465B125AC47900802BEEF912234C8B0F
:1034C30009A909EA49601C8A828B83A3A3A3A3A346
:1034D300A3A3A3A37406124664E0F912200AEEF92B
:1034E30012232879100258AF74F41208878A088BC4
:1034F300098C0A8D0B90194BE0640F701EEA4B4C3C
:103503004D6018901946E064086005E06404700B90
:103513007808120DC6123521120DE10237867A01A1
:103523007B00901991E0F912184E74042274F4127E
:10353300088774FC120E7AEAFEEBFF8A82F583A3F6
:10354300A3E0F912234C8A088B09EA4B7003023675
:10355300698E828F83A3A882A983E0C0E0EA125A0E
:10356300BAD0E01244CA64F160288E828F83A3E04C
:1035730064CD601E8E828F83A3E0641A60148E82F2
:103583008F83A3E064E9600A8E828F83A3E064E102
:1035930070337900122322E9602BE5082404F50A2D
:1035A300E43509F50B850882850983A3A3A3A3A3A7
:1035B300A31245A01244A81216B0850A82850B8374
:1035C30012630280708E828F83A3E0C0E0740212C4
:1035D30010EDD0E0124CBF124DE2123F50C0E07428
:1035E300031210EDD0E0F0E5081267AB123BF9E0EF
:1035F300AA18AB197005121F62800312240C7402FF
:103603001210EDE064E9702D850882850983123D6F
:103613005F750A01780A120DD2750AE9780A120D4C
:10362300D212447C123F1DFCA3E0FD8A828B8312DD
:103633003F47120DE1850882850983A3A3A3A3A3B2
:10364300A3A3A3A3E064027012850882850983A360
:10365300A3A3A3A3A3A3A3A37406F08E828F83A320
:10366300A3E0F9122328122316901B10123B6B744C
:103673000402378374F4120887EAFEEBFF7508002F
:103683008A82F583A3A3A3A3A3E060387508081275
:1036930061A979FF1220E2EA4B601075082C8E8233
:1036A3008F83A3A3A3A3A3E0D2E0F08E828F83A38F
:1036B300A3A3A3A3E0540364016003023772430886
:1036C30011023772EA24181250A86036EA241A123B
:1036D30050A86003F4701312648B7003A3E0696055
:1036E30003023772750822023772EA241B123776F7
:1036F300241A1250A8FAEE24191250A8F9121FF82E
:10370300806D8A828B83A3A3A3A3A3A3A3A3A312E2
:103713003B5670037508018E828F8312648F70038A
:10372300A3E0697006E508D2E1F508E50860158EA7
:10373300828F83A3A3E07006E508D2E58004E50841
:10374300D2E6F508124BB364017006E508D2E0F542
:10375300088E828F83A3A3E06015EE241D1253C746
:10376300F9122412E964016006E508C2E0F508A92C
:10377300088010F582E43FF583126B46EA22740950
:10378300120DE17F04020B4774F012088774D712FD
:103793000E7AEAFEEBFF8A82F583A3A3A3A3E0607C
:1037A3000E901B0E1263466006901B0E123B6B7449
:1037B30003120E728E828F83A3A3A3125C921261F3
:1037C300B412238EE9700302391C780174051210B8
:1037D300EDE0C394024002780074071210EDE0C3D9
:1037E300940240027800740C1210EDE064F8700348
:1037F300A3E0F4700302391C740C1210EDE064F9B9
:103803007003A3E0F4700302391C740C1210EDE092
:1038130064FA7003A3E0F4700302391C740C1210F1
:10382300EDE064FB7003A3E0F4700302391C74063B
:103833001210EDE0F9901934E069600302391CE8D5
:10384300A2E0400302391C74271210EDE06003026A
:10385300391CEE24131264A174221210ED125C9C25
:10386300241C1264A174101210ED125DE774091286
:1038730010EDE0601D741A1210EDE0FD74041210D7
:10388300EDE0FC8E828F831261B47901122274E918
:10389300703B7403120E6A1222C2E9F50C7409120A
:1038A30010EDE0702C90192EE060267422596422EA
:1038B300601F7442596442701474201210ED123B5D
:1038C30050600E74201210ED123B4960047ACF80D1
:1038D3004AE9A2E6504D74201210ED1253CD24FD97
:1038E300600F14600C24FD600824FD600424FE7046
:1038F3002874201210ED123B42700E74201210ED4A
:103903001259F3A3E0640D601A7403120E6A1224B1
:103913003CE96401700D023B327AD37B00121C2612
:10392300023B32EE242DF582E43FF583123D5670BF
:1039330003A3E069701D7508007808120DD278089A
:10394300120DD2EE242F1250A8F9123B5C123F47FE
:10395300120DE174091210EDE070030239FA123B03
:103963005C1261B612248A8A0E8B0FEA4B70030233
:103973003A8B74041210EDE0F88E828F83A3A3E0D8
:1039830028F8A3E03400F9E8240D123B3AF88A82C0
:103993008B83A3A3A3E068600EE88A828B83A3A32F
:1039A300A312465412334E7904E91210ED1250C794
:1039B300A3E02AF8A3E034008882F583A3AA82ABAC
:1039C300831216E68A088B098C0A8D0B850E828575
:1039D3000F83A3A3A3A37808120D6C4003023B3209
:1039E3009081F27808120FAB850E82850F83A3A313
:1039F300126B4CA3124DEB901946E064046008E08F
:103A030064096003023B32E50CA2E54003023AC5B8
:103A1300EE242F1250B0F0EE24301250A8C0E07400
:103A2300011210EDD0E0F0EE24311250A8C0E07482
:103A3300021210EDD0E0F074141210EDE064017086
:103A430026740E1210ED1244A324131250A86870AA
:103A530003A3E0697011740C1210ED123B5670074A
:103A630074141210EDE4F0EE2425F582E43FF5839F
:103A7300120C127404120E727407120E6A121F686B
:103A83007404120DE1023B3290198BE06401600370
:103A93000239FA74201210ED123B507009E50CA2A2
:103AA300E650030239FA74101210EDE0F47003A328
:103AB300E0F4607BEEFCEFFD7403120E6A1222CE7B
:103AC300806DA2E6506974201210ED125ED5701657
:103AD300741A1210EDE0640270557403120E6A79C1
:103AE30000122406804974201210ED123B49701411
:103AF300741A1210EDE0640470357403120E6A1226
:103B030023FA802B74201210ED123B42700C7900C3
:103B13007403120E6A122448801574201210ED12D9
:103B230059F3E0640C70087403120E6A122454747F
:103B33002902631BE82406F582E439F583E02212A7
:103B430062E2E06403221262E2E06407221253D1CC
:103B5300640622124BC4640222EE242BF582E43F56
:103B6300126B44EE124B9922E0F508A3E0AA08FB7E
:103B7300E4FCFD1222B62274F4120887EAFEEBFF7E
:103B83008C088D099018ACE0600F12648B7003A34E
:103B9300E0697005121FE6805379001261A91220B3
:103BA300168A828B83E5824583602CA3A3A3A3A3F8
:103BB300A3E054186021E508241C123BF6120C16EE
:103BC300123BF2120C16EE2418123F2E12568E12CE
:103BD3006463120DE1801579008E828F83A3A3A302
:103BE300125EBB12568E1261B6121FEC023786E5C7
:103BF300082413F582E43509F5832274F712088744
:103C030074F7120E7AEAFEEBFF901946E064036044
:103C13000DE064016008E064096003023CFC8A82F1
:103C23008B83A3E06003023CCA7C007D007A027BA5
:103C3300001216AA1265088A821264A59019371217
:103C43005DE77953121E1E901946E06409600990DE
:103C530019441261B612248485188285198374016C
:103C6300125A0B9019467404F07401120E6A794AC1
:103C7300121E187401120E727A3C7B1912188A9064
:103C830017BFE0640B70057406F080057900123DE0
:103C930001901937125EC17A037B001216AA90199C
:103CA3003A125EC17A047B001216AA901931E0A27F
:103CB300E35004D2F08002C2F01259F8901B0A12AA
:103CC30010B21222B6802FFC7D007A037B101216ED
:103CD300AA9017BFE0640B7003740AF09018B0E465
:103CE300F0FA7B401257E88E828F83A3E0F9123DEE
:103CF30001901946E4F01222F8740902489D9019C4
:103D0300441261BA121F7A22C082C0839018CA1269
:103D130063467017901946E024FB60051460078022
:103D23000A9018D0801F9018D2801AE849600712B1
:103D33003B376401700C8A828B83A3E0F9121F6EF8
:103D4300800E9019C012634660061259F4120A12CB
:103D530002553F1264AB901944E068221264ABE849
:103D6300FAE9FB2274F512088774D8120E7A8A08CE
:103D73008B098A828B83A3A3A3A3A3A3A3A3E0C3D7
:103D8300940F5003023F188A828B83A3A3A3126468
:103D9300C37415120E728A828B83A3A3A3A3A3A356
:103DA300A3A3123F1DFAA3E0FB1223047415121000
:103DB300EDE0702E850882850983A3A3A3A3A3A3A3
:103DC300A3A3E0C3940B401A8E828F83A3A3A3A360
:103DD300A3A3A3A3E064027009EE240B1250A8F47A
:103DE3006003023F1874171210EDE060076402606D
:103DF30003023F18901946E06402601CE064066009
:103E0300179018CA1263467003023F18123B3764B7
:103E1300016003023F1880259018CA126346701D83
:103E23007508007808120DD27808120DD2EE24100E
:103E3300123F2E8E828F83123F47120DE18E828FA7
:103E430083126B1B1244D31264A774021210ED1277
:103E53005C9C123348C0E074041210EDD0E0123FB2
:103E630050F508A3E0F509740F780812107874056B
:103E73001210EDE508F074191210EDE0C0E07406BD
:103E83001210EDD0E0F0741B1210EDE0C0E07407E7
:103E93001210EDD0E0F074161210EDE0C0E07409DA
:103EA3001210EDD0E0F074171210EDE0C0E07408CA
:103EB3001210EDD0E0F0EE24101250A8C0E0740A06
:103EC3001210EDD0E0F0741A1210EDE0C0E0740BA4
:103ED3001210EDD0E0F074271210EDE0C0E0740C86
:103EE3001210EDD0E0F0741C1210EDA982AA8389A0
:103EF300088A09750A007808120DCA7C087D0074C7
:103F0300101210EDAA82AB8312509F120DE1AA1872
:103F1300AB19121F7474280249FBE0F98A828B8360
:103F2300A3A3A3A3A3A3A3A3A3E022F582E43FF542
:103F330083E0F98E828F83A3A3A3A3A3A3A3A3A345
:103F4300126B46221261BA1223C4740222F0EE12DB
:103F53005693E02274F212088774F8120E7A8A0AD2
:103F63008B0B8C0C8D0D8908908107AC18AD1974DF
:103F730008120D0DC200AC0AAD0BAA18AB191261E1
:103F8300377002D2009019928013AC0AAD0BEE2465
:103F93000BFAE43FFB126137701B124B8A12481D68
:103FA300601EA20040E48E828F83E0650C7004A340
:103FB300E0650D70E58E828F83A3A3E0650870DA58
:103FC300EEFAEFFB74080244E0C082C083901992BA
:103FD30002553CC082C083901992E4F0A30242329E
:103FE30074F7120887901992126A34800FEA241426
:103FF300F582E41264C012178EEEFAEFFBEA4B70FF
:10400300EC901992E4F0A3F00248A074F21208872E
:104013008A0C8B0DEDFF890B8A828B83E08C828D5A
:1040230083F0A3A882A9838A828B831240D7124686
:104033004EE0C454F0FA88828983E04AF0EC24020B
:10404300F8E43FF9850C828B83A3A31240D7124077
:10405300EAE0333354FC1240DEE033333354F812D6
:1040630040DEA3E0A2E0E4331313FA88828983E0FD
:104073004AF0EC2403FE50010FE50C2407F508E495
:10408300350DF509750A007808120DCA7C087D0004
:10409300EEFAEF12509E120DE1EE2408FE50010FCE
:1040A300E50C240FF508E4350DF5097808120DCA5F
:1040B3007C037D00EEFAEF12509E120DE1E50BC377
:1040C300940F400DE50C2412F582E4350D1256A22F
:1040D300F00244E3A3E08882898322FA88828983F9
:1040E300E04A1240EAA322F0850C828B83A3A3A3A8
:1040F300A32274F2120887EBFF8C0C8D0D8A82F5D4
:1041030083E08C828D83126B05A3A882A983E012BE
:1041130054E71244C9C41254E1F0EA126B0F12546B
:10412300EE1244C7A2E2E4338C828D831244C61399
:104133001313541F1254E7A31244C6A2E7E4338CAB
:10414300828D83A3A3A3A3A3A3F0EA2403FE5001B8
:104153000FF5088F09750A007808120DCA7C087DCF
:1041630000E50C240712509A120DE1EE2408FE50CC
:10417300010FF5088F097808120DCA7C037D00E54D
:104183000C240F12509A120DE18E828F83A3A3A3E6
:10419300E0C0E0126B2BD0E0F00244E374F61208A7
:1041A30087EAFEEBFF8A82F583A38582088583096C
:1041B300E0F9121F92850882850983E064EB601E93
:1041C3008E828F83A3E064E160148E828F83A3E0E9
:1041D30064F1600A8E828F83A3E0641A70078E8273
:1041E3008F83A3E4F0901B0A1210B21222B6750853
:1041F300017808120DD28E828F83A3E0F508780828
:10420300120DD27900901944125EC190193A123FEF
:1042130047120DE11223160258AFC082C083E99002
:1042230019A47003E4800274018004EAF0A3EBF0A4
:1042330002553F1261BA121E362274F61208879095
:1042430019A4E0701B7C0079017A007B00122346DD
:10425300EA4B600C8A828B8312634660031222AAA4
:104263000258AFC082C0831246FD401079FF12236B
:1042730040E9F8902F34E493C39850047901800205
:10428300790002553F74F21208878A0A8B0B890959
:10429300C2008A828B83A3A3A3A3A3A3A3A3E0F94E
:1042A30012234C8A0C8B0DAE0CAF0D750801EA4F2F
:1042B3006003024369850A82850B83125EBB850A0C
:1042C30082850B83A3A3A3A3A3A3A31244A81223AE
:1042D300348A0C8B0DAE0CAF0DEA4F70030244759C
:1042E3008A828B83A3A3A3A3E4F0A3F0E50A240C9F
:1042F300FAE4350BFB8A82F583E0C0E012447CD0FC
:10430300E0F0E50A240D12449C240D125DE1122411
:104313002A124BA2126302E50A241112449C2411AF
:10432300125DE1E50A24131264D2C0E0124B94D06B
:10433300E0F0D200EE2406F8E43FF912448F124471
:10434300CA540460030243DB901B1CE0F50A750B9F
:10435300007407780A120F858E828F83A3A3A3A309
:10436300A3A3124486F08E828F83A3A3A3A3A3A344
:10437300E0F50AA3E0F50B7407780A121078E50A52
:104383005407FCE50960618E828F83A3A3A3A3A3D3
:10439300A3A3A3A374021249F5124792600B9019C9
:1043A30032125128A3A3125DE7EC700302444CEED2
:1043B3002406F8E43FF9E8FAE912448FF0EC24FF0D
:1043C300F50AE434FFF50B7407780A120F858A8225
:1043D3008983124486F080718E828F83A3A3A3A363
:1043E300A3A3E04480024368EC700575080080597C
:1043F3008E828F83A3A3A3A3A3A3E05420600C12F4
:1044030016ECEA547F7900245F80198E828F83A390
:10441300A3A3A3A3A3E05410601A1216ECEA540F4B
:104423007900240A5001098E828F83A3A3A3A3F0EA
:10443300A3E9800D8E828F83A3A3A3A37401F0A3AA
:10444300E41244D37404124713A20050288E828FBF
:1044530083A3A3A3A31261C0F9EEFAEFFB12233ADD
:10446300E9601212633F60031244B5EEFAEFFB12E8
:10447300178E750800A9088067EE240CF582E43FC7
:10448300F58322E0450AF0A3E0450B228882F583F9
:10449300E0547FF0A3E054FC22F582E4350BF5836E
:1044A3001264ABEE22A3E0F9850A82850B831261C5
:1044B300BA221244BC12491222EE240FF582E43FC1
:1044C300F58322A3A3A3A31244CE221264EEE02217
:1044D3001244D7221249EBA3A3A3227403120DE1C2
:1044E3007F06020B4774F412088774F7120E7A7E64
:1044F3000012234CEA4B700302459B8A828B83A3F1
:10450300A3A3A3A3A3A3A3A3E06406600302459B01
:104513008A828B83A3A3A3A3A3A3A3E0FF8A828B93
:1045230083126ACDE0C0E074081210EDD0E01248A7
:10453300C3125DD4125DE712235EEF540860578502
:104543001882851983125EC17A007B0012232EEA3A
:104553004B7043126B367C007D007A007B00802217
:104563008E828F831253CDF47003A3E0F4602790FF
:1045730019441245A01248A5601C7C007D00EEFA88
:10458300EFFB12232E8A0A8B0BAE0AAF0BEE4F7092
:10459300CF7900121E4E7E01EEF90237811245A437
:1045A30022E0FCA3E0FD8E828F8322C082C0838A37
:1045B300828B83E582458370099019A980068A82DC
:1045C3008B83A3A31247C660208A828B83A3A3A3F2
:1045D300A3A3A3A3E0540860E5EC4D60101247CCFD
:1045E3007003A3E06D70D780047A007B0002553F0F
:1045F30074F21208878A088B09890AECFEEDFF7AA8
:10460300147B00121788EA4B60378A828B83A3A33B
:10461300A3A3A3A3A3A3A3E4124664E50A1248AF8A
:10462300EEF0A3EF1246541248CA12465B8A828BFD
:1046330083126B4E12464712623DA312464EF0A3FD
:10464300F00244E3EA240FF582E422126B09A3A3E8
:10465300221248B5E4F0A322A3F0126AC612623D07
:1046630022124668221248B9A3A3A3A32274F51207
:104673000887EAFEEBFF890A8C088D09EA4F60750B
:1046830074016970127901122340E9F8902F36E41E
:1046930093C3985015800A74046970091246FD503B
:1046A3000979118052740269704B8E828F83A3A3A0
:1046B300A3A3A3A3A3A3A3E50A12470C124DE212DB
:1046C30063C7A3E4F0A3F09019A9126346601880AE
:1046D300031264A788828983A3A31247C6888289A9
:1046E30083A3A370EC80039019A9EEF0A3EF124704
:1046F300137900800279C10249FE7904122340E94B
:10470300F8902F35E493C398221263CBA3A3A3227B
:10471300F07A207B00901991E0F912173422C082BD
:10472300C083E9F879009019A9801D8A828B83A33D
:10473300A3A3A3A3A3A3A3A3E068600574FF687066
:1047430001098A828B83A3A31247C670DE02553FF9
:1047530074F7120887EA4B70059019A980068A82BC
:104763008B83A3A31247C6601F8A828B83A3A3A351
:10477300A3A3A3A3A3A3E06970E4EC600F8A828BD5
:104783008312479270D880047A007B000248A012FB
:104793006AE6E0540422C082C0839019A980068A85
:1047A300828B83A3A31247C660128A828B83A3A33F
:1047B300A3A3A3A3A3A3E06970E580047A007B000D
:1047C30002553F1261BAEA4B228A828B831253D17C
:1047D3006C2274F21208878A0A8B0B8C0C8D0D7570
:1047E3000800750900EA4B602A9019A980068E8299
:1047F3008F83A3A312481D601AAC0CAD0DEEFAEF24
:10480300FB850A82850B83120A12E9640170DF8E2D
:10481300088F09AA08AB090244E3E0FEA3E0FFEE18
:104823004F2274F71208879019A91264A77C007DA0
:1048330000800DE8FCE9FD88828983A3A31264A7A5
:10484300E8496030EA687002EB6970E79019A912D1
:1048530061B6E86A7002E96B88828983A3A3700852
:104863001264A79019A980091264A78C828D83A36F
:10487300A3125DE7802774F7120887EAFEEBFFEACD
:104883004F60151223581248FE12633F600312440F
:10489300B5EEFAEFFB12178E8003120DE17F0102D2
:1048A3000B471261BA121E42E9641A221248B5A3D9
:1048B300A3221248B922F08A828B83A3A3A3A32243
:1048C300126B091253D122124668A32274F61208FE
:1048D300879019A91264C380141264E01248FE126F
:1048E30044B5EEFAEFFB12178EAE08AF09EE4F7028
:1048F300E89019A9E4F0A3F00258AF8E828F8312D7
:104903006ABAF5831249128E828F8312491222E00A
:10491300FAA3E0FB12178E22C082C083EAFCEBFDF0
:10492300EA4D6017EA24FBF582EB34FF126344700F
:1049330007124970E0F460071216F87905802B908E
:104943001991E0C0E0124970D0E0F0902F2DE4936C
:10495300F97AAB7B1912172EE96401700B7A007B8D
:104963002012497F79008002790402553FEA24FF2F
:10497300F582EB34FFF583227A207B00901991E0D6
:10498300F91217342274F4120887A2AFE433F5083E
:10499300C2AF9019AB12481D6038EE24FBF582EFCD
:1049A30034FF1263447A007B209019916005124909
:1049B300828005E0F912173AE4F50AF50B780A123A
:1049C3000DCEEEFCEFFD7AAB7B19121728740212A1
:1049D3000DE1E508A2E092AFEEFAEFFB0237861293
:1049E30049E7E0221249EB221249F5A3A3A3A3A3AB
:1049F300A322F08E828F8322120DE17F03020B47E5
:104A030074F212088774FA120E7AEAFEEBFF750845
:104A1300FE7509FF12231CE960057911024B85120B
:104A230050A5603C901B36E0C43354E0F8E03333C8
:104A330054FC48C0E0EE125AB43FF583D0E012654F
:104A430002FAA3E0FB79FF1220E2EA4B6012750839
:104A5300FFEE240F1250A84404F01250A5D2E0F048
:104A63008E828F83124BBE6006EE241212651AEEFD
:104A730024131250A8700D902F38E493C0E0124B0A
:104A830094D0E0F08E828F83E0A2E7500454038039
:104A930019EE24141250A87012901923E0C0E012EA
:104AA3004B8AD0E0F0901923E004F0EE2411125069
:104AB300A864017016901B20E0600D90192EE07021
:104AC3000A8E828F83E070031265178E828F83E0D4
:104AD30064017013EE240B1253C764027009EE24B1
:104AE3000F1250A84440F0AC18AD19EEFAEFFB12C8
:104AF30023888A0A8B0B74FE6508700374FFF470B5
:104B0300031264E0EA4B60768E828F83E0C0E07428
:104B1300011210EDD0E0F074041210EDEEF0A3EFEB
:104B2300F0EE241E1264A174021210ED125DE774FC
:104B330001120E62880C890D780C120DCEEE242022
:104B4300124BA7120DD2124BA2120C16EE240E1208
:104B53004BA7120DD2901937120C1674081210EDD0
:104B6300E0F9AC08AD091223827408120DE1E9FEE5
:104B730074106E700BAA0AAB0B12178E80027E1094
:104B8300EEF974060244E0EE2414F582E43FF58363
:104B930022EE124B99222413F582E43FF58322EE91
:104BA3001244BD22F582E43FF583E0F50C780C2234
:104BB3008E828F83A3A3A3A3A3A3A3A3A3124BC4F4
:104BC30022E0FAA3E0FB122424E922C082C083740A
:104BD300D7120E7A9080927403120E727426120DFD
:104BE3000D8A828B83A3A3A3A31264A7740E12104E
:104BF300ED12634C1264A7740C1210ED124CC7240F
:104C03000D124CB7C0E0741A1210EDD0E0F012622E
:104C1300431264A574201210ED124CC72415124CD4
:104C2300B7C0E074081210EDD0E0F0EA241CF5825E
:104C3300E43B1264A574121210ED124CC724111236
:104C43004CB7C0E074091210EDD0E0F0EA24121260
:104C53004CB7C0E074071210EDD0E0F0EA241EF563
:104C630082E43B1264A574241210ED124CC7242075
:104C7300124CB7C0E074261210EDD0E0124CBF7492
:104C8300FFF074011210ED74FFF074021210ED7452
:104C9300FFF09081D6120C127404120E7274071274
:104CA3000E6A121F687404120DE179007429120D43
:104CB300E102553FF582E43BF583E022F08518825B
:104CC30085198322E8F0A3E9F0EA2274F412088735
:104CD30074EC120E7A8A0A8B0B8C088D09E9FF7E1D
:104CE300107A217B00121788851882851983EAF0D0
:104CF300A3EB126356E8497003024DDB7C217D0070
:104D03007900851882851983E0FA1216E090194418
:104D13001261B6851882851983125EC52409F5824E
:104D2300E438F58312630274201210ED1264A77441
:104D3300111210EDE812543612630838F583740229
:104D4300125439126AD47402125423124DE21254CB
:104D530039126AB1EFF074221210ED1253E4F9A381
:104D6300E0C91267AB39F583E81250F9A3E0C9240F
:104D73001FF582E439124DE974231210ED1261B666
:104D830074061210ED12630274081210EDE8F07449
:104D9300261210ED1262DCC082C083740C1210ED77
:104DA300AC82AD83D083D0827405120D0D742512AD
:104DB30010EDE0C0E074131210EDD0E0F07900AA1A
:104DC30018AB19122322E9640170047E008009855F
:104DD30018828519831244B8EEF97414023783E5F7
:104DE30008F0A3E50922F583E50AF0A3E50BF02219
:104DF30074F012088774FF120E7AEAFEEBFF8C0838
:104E03008D098A82F583A37408F0EA24161250A848
:104E130060088A828B83A37410F0EA24171250A8C7
:104E230060098A828B83A3E02408F0EA1250A6600B
:104E3300088A828B83A3E004F08A828B83A3A3A3D3
:104E4300A3A3A3E060198A828B83A3A3A3A3A3A331
:104E5300A3E0C3332402F88A828B83A3E028F0EA19
:104E630024111250B06004740E8001E4F0901B2EE4
:104E7300E0640170168A828B83E06401600D9018F0
:104E8300B0E0600712509074018004125090E41255
:104E930050F98A828B83A3E0F8EA12334828298CDD
:104EA300828D83F0EA24111250A860051256D1298D
:104EB300F0850882850983E0C394754009750C0069
:104EC300750D00025087E0FA7B001217888A0C8B5D
:104ED3000DEA4B70030250878E828F83E0FA90199C
:104EE300341250F274027808120F85EA4508FAABBF
:104EF30009EE24121250EC74067808120F85A808E4
:104F0300EA48FCEBFD1250A56004780180027800AA
:104F1300EE2416FAE43FFBE4C8F9ED49FDEE241153
:104F23001250A8F508880974097808120F85ED4511
:104F330009FD8A828B831250F2740B7808120F8555
:104F4300ED4509FDEE24171250EC740C7808120F8E
:104F530085ED4509FD8E828F83A3A3A3A3A3A3128B
:104F630050F2740A7808120F85ED4509FDEE2423EB
:104F73001250EC740D7808120F85ED4509F9EC8594
:104F83000C82850D83F0E9A3F0EE24021250CF12B8
:104F9300510EF0EE24041250CFA3A312510EA3A37B
:104FA300F0EE24131250DFF0EE24141250DFA3F0BE
:104FB300750B088A828B83E060151263B8125EC199
:104FC300E50C2408FAE4350DFB12188A750B10EE74
:104FD30024171250A86019125F44125EC1A80BE592
:104FE3000C28FAE4350DFB12188A7408250BF50B0F
:104FF3008E828F83A3A3A3A3A3A3E0604EEE240713
:10500300F50EE43FF50F850E82F583E0C0E0125004
:10501300BED0E01250FEE0C0E0081250C0D0E01253
:1050230050FEA3126332120DCA850E82850F83E0F0
:10503300125398A80BE50C2812509A120DE1850E15
:1050430082850F83E0C333250BF50B1250A560084F
:10505300C0E01250BED0E0F012568E126332120D31
:10506300CA123347FC7D0074031210ED1250C7E0DF
:10507300F8E50C28F8E4350DF9E82AFAE43912507A
:105083009E120DE1AA0CAB0D740102631BEA2423EB
:10509300F582E43FF58322FAE4350DFB1216D4744E
:1050A3000322EE2415F582E43FF583E022F582E442
:1050B3003FF583E085188285198322A80BE50C2828
:1050C3001253AB22E0FA8E828F83A322F8E43FF9D6
:1050D3008882F583E0850C82850D8322F582E43F87
:1050E300F583125118A3A3A322F582E43FF583E0CD
:1050F300F50875090022126AF7F922F0050B8E8272
:105103008F83A3A3A3A3A3A3A3A322A3A31264EEA6
:10511300A312511822E0850C82850D83A3A3A32239
:1051230074030237831264AB8E828F83A3A322742A
:10513300F012088774FD120E7A1262FC74021210C8
:10514300EDE9F08C0C8D0D750B017C267D0079004B
:10515300AA0CAB0D1216E074021210EDE0C3940812
:1051630050030253211250D7F0AC0CAD0D851882B9
:105173008519831253CDFA8518828519831259F341
:105183001256CAE96003750B0085188285198312CC
:1051930062DC1253EEE0F9EA850C82850D83A3A34A
:1051A300A3A3A3A3A3A3A3F0A3E9125423A3A3122A
:1051B30053EEA3A3E0F9E50C12635BEA1254361233
:1051C3005EB1C0E0E50C2411126B2FD0E01254390C
:1051D3002407F582E438F583E0C0E0126B2BD0E0BE
:1051E3001262EF740812541AA3E0602685188285B0
:1051F3001983E02408F8A3E03400F9E50C2413F53F
:1052030082E4350D125DE5850C82850D83A3E024D0
:1052130008F0850C82850D83A3A3A3A3A3A3A3A353
:10522300E0602A850C82850D83A385820E85830F1A
:105233001253DBF8A3E03400F9E50C125AB4350D30
:10524300125DE5850E82850F83E02408F012539FDB
:10525300E4F01253B3E4F0A31262EFA3A3A3A3E019
:1052630060111253FF850C82850D83A3A3A3A3A30F
:1052730012542BE50C1253C0E0700302530D12536A
:10528300FFFA12539FEA12542BF88518828519836B
:10529300E028FBA3E034008B82F583E0F8E50C24DF
:1052A3001A126B2FE812542BE8C39AE50C505612CE
:1052B30053BBF8902F2EE493C39850047E0C8006C2
:1052C300E50C1253BBFE850C82850D831253DAF570
:1052D30008A3E03400F509750A007808120DCAEE38
:1052E3001253987A5E7B0E12509F120DE11253B344
:1052F300745EF0A3740EF0EEC333F8850E82850F4F
:1053030083E02880041253C0E4F0850C82850D836A
:10531300A3E0F8850C82850D83E0C39850047900DF
:1053230080701253DAFAA3E03400FBE50C12651126
:10533300126B32126302850C82850D83E0C398C021
:10534300E0E50C2417126B2FD0E012541AE06040F2
:10535300E50C2417FEE4350DFF8E82F583E024F27D
:10536300F0E50C241DF8E4350DF98882F583E0247B
:105373000EFAA3E03400FB8882898312630290193A
:105383002FE0F912227AE9F88E828F83E0C398F036
:10539300A90B02631925E0FCE433FD22E50C12534B
:1053A300A52224191253AB22F582E4350DF583228D
:1053B300E50C241B1253AB221253A5E0221262E91F
:1053C3001253AE22F582E43FF5831253D1221264C5
:1053D300B0F5838882E022A31253DF221253E4281C
:1053E30022E0F8851882851983E022A3A3E0FA85D9
:1053F30018828519831262E2A3A3A322850C8285F6
:105403000D83A385820E85830F1253DFFAA3E03445
:10541300008A82F583E0221262F3A3A3A3A3A3224B
:1054230012543EF583888222F0850E82850F83E035
:1054330004F022F0A3E912543EC822126AFBF8A337
:10544300E02274F41208878A088B09EA1254EEA347
:10545300A3F0EA1313543F1254E1A3F0EAC4131365
:105463001254EE1254F87409780A1210781254D8B0
:10547300A3A3A3A3A3A3F0EB1254DA1254F7740A61
:10548300780A121078E50A5401C0E0EC1262E93D93
:10549300F583D0E01254FC740B780A12107812547E
:1054A300D81254F5740C780A1210781254D8A31237
:1054B30054F5740D780A121078E50A5401C0E0EC33
:1054C3002424F582E43DF583D0E0F0740E780812CD
:1054D3001078023772E50A54018C828D83221254AC
:1054E300E7A3A322540F8C828D832254038C828DD5
:1054F3008322A3A3A3A3A3A3A3F08A0A8B0B22C093
:1055030082C08379008A828B83A3A3A3A3A3A3E08E
:1055130090192E600EE0701F8A828B83A3A3E07024
:10552300168012E060111261A9901937E06A7003C6
:10553300A3E06B6002790180031261B6D083D0824D
:10554300020D9174F21208878A0A8B0B890CECFE08
:10555300EDFF8A828B83E0FA1256CA850A82850B95
:1055630083A3A31256BEE0F9EA8E828F83A3A3A37B
:10557300A3A3A3A3A3A31256E31256BEA3A3E0F9C6
:1055830012568EEA1256E3A3A3E0C0E0EE2411F50F
:1055930082E43FF583D0E01256EAA3A3A3E0C0E080
:1055A300EE2412F582E43FF583D0E01263C774085A
:1055B30012470CA3A3A3E06017E50A2408F8E43517
:1055C3000BF9124B94E8F0A3E91263C7E02408F047
:1055D3008E828F83A3A3A3A3A3A3A3A3E060188EA8
:1055E300828F83A31256ADEE2415125DE1850882E6
:1055F300850983E02408F08E828F83A3A3A3A3A34A
:10560300E060248E828F83A3858208858309E0F876
:10561300E50A28F582E4350B1256A2A3A3F0850808
:1056230082850983E004F0EEFAEFFB12239AE9F591
:105633000D70498E828F83A3A3A3A3A3A312569CA9
:10564300A37014E0F8E50A28FAE4350BFB1256843C
:10565300126302E50C801A1256ADE8240EF85001CD
:1056630009EE241D125DE11256D1F9E50CC399240C
:10567300F2C398C0E0EE125F3BD0E0F0A90D024404
:10568300E3EE241DF582E43FF58322EE12569322C6
:10569300240BF582E43FF58322E08E828F8322F58B
:1056A30083E08E828F83A3A3A32285820885830947
:1056B300E0F8E50A28F8E4350BF922E0FA850A82D6
:1056C300850B83A3A3A3221265231223942290198B
:1056D3002FE0F912227AE9F8850882850983E0220E
:1056E300F0A3E91256EA22F0850A82850B83A3A36D
:1056F300A3A322C082C0837AB77B1979E2121E1852
:105703007AB77B1902553FC082C08390193702557F
:105713003CC082C08390193A02553CC082C0837951
:105723004A121E1802553F74F61208879019BFE0FB
:10573300FE04F0EEF912234CEA4B70F0EE60EDF943
:105743000258AF74F2120887EAFEEBFF8C088D094A
:10575300890A12248A740E1210EDE0F9740F1210E4
:10576300EDE0F8EA4B7012E8701BA90AAC08AD092A
:10577300EEFAEFFB1224A88065E86017E970068A49
:10578300828B83E4F07401687054E99019C2702429
:10579300E4801EE97048EA2402124CB7A80A28F8EC
:1057A300E4340013E813F070358A828B83A3A37467
:1057B30001F0802AE004F0901B1DE0F89019C2E08C
:1057C300C398401AE4F090193AE06E7003A3E06FB7
:1057D300700CEEFAEFFB7901121F8C1257E40244AE
:1057E300E37A017B00901991E0F912185A2274F4BC
:1057F3001208878A088B098C0A8D0B9081F278082E
:10580300120EA670077A0112497D801E901B0A783A
:1058130008121087EA4B4C4D600D7808120DC61222
:105823003521120DE180031257E4023786C082C08E
:1058330083901B0E02422EC082C083901B10024233
:105843002E74F61208877E007508237509197808E7
:10585300120DCE7C6E7D007A217B0012180074023B
:10586300120DE1E9640A70027E01121EEAE9640A7C
:105873007004EED2E1FE900487126346600F125962
:10588300F4120A12E9640A7004EED2E3FE1221064E
:10589300E9640A7004EED2E4FE121D9AE9640A7008
:1058A30004EED2E5FEEEF98003120DE17F02020B56
:1058B3004774F61208871216A47508237509197818
:1058C30008120DCE75086E7509007808120DCE12F8
:1058D30058F1120DE1121EF090048912634660061E
:1058E3001259F4120A1212210C121DAC80BE7C0054
:1058F3007D007A217B0012180C74042274F61208BE
:105903008774FF120E7A7E007508237509197808CB
:10591300120DCE7C6E7D007A217B0012180074027A
:10592300120DE1E960030259CB7808120DCE750818
:105933006E8E097808120DCE7C007D007A217B00E3
:105943001218127404120DE1E9707D901937E064A6
:10595300FE7003A3E0F460707E01901946E06408D2
:105963006005E06404705C851882851983EE125A21
:105973000B7A4E7B197943121E1E7A4B7B1979479A
:10598300121E1E7A3C7B19794A1259E67A447B1916
:105993007950121E1E7A377B197953121E1E7A4CC8
:1059A3007B197954121E1E7A397B1979E1121E1E56
:1059B300901931E0A2E35004D2F08002C2F01259F0
:1059C300F880051216A47E00121EDE90048B12636B
:1059D3004660061259F4120A12122118EEF97401E4
:1059E3000258AC121E1E7A3A7B19794B121E1E22E4
:1059F300A31262E322A2F0E433851882851983128D
:105A03005A6A7952121E1E22125A6A7942121E1EB5
:105A13002274F6120887E9FEA2E0501C750823756C
:105A230009197808120DCE75086E750900780812E9
:105A33000DCE1258F1120DE1EEA2E35003121EE453
:105A4300EEA2E2500E90048D12634660061259F4E2
:105A5300120A120258AF1222FE7A947B1979451268
:105A63001E1E22125A6A22F0AA18AB192274F712C8
:105A7300088774ED120E7AE9FE901990F0AC18AD18
:105A830019125A9C74121210EDEE125AA9AA18ABED
:105A930019125A59741302489D901B4CE0F97A94D9
:105AA3007B1912230422F0901B4CE0F97C947D199E
:105AB300222415F582E422126AC73509F58322EF01
:105AC300FB901991E0F91216FE22EE2416125AD415
:105AD30022F582E43FF5837401F022126AC63FF592
:105AE30083125AE8221264B0F98882F5832274F48F
:105AF3001208878A088B097A007B041257E8125B25
:105B0300939019467409F012612B123BF21261B69D
:105B1300126137640170677A0F7B001216F28A0AEA
