:020000040000FA
:06000000020DA6020389B7
:030013000203AB3A
:03002B00020B1AAB
:0300330002089A26
:03003B00020400BC
:03004300020A3678
:030053000202B8EE
:03006B0002087117
:1000830002031A010100F0FF0700080000FFFF0050
:1000930000050400000003000147726F757000FF44
:1000A3000400100020FD000206FFFF1EFC170000E5
:1000B3000000000000000000000000000000010438
:1000C30001020300033E8100000001040000C91780
:1000D300000000E8030000FFFF1A18018813000066
:1000E300E803000064006400B801A0BB0D00A0BBDE
:1000F3000D00020202070401051E02051E020A0A80
:10010300010108080103B80B02803E0102FEFFE86B
:10011300030A050001FFFF020A011401E0050301C0
:1001230001FF0F352A00000000092900000000FF2D
:10013300000000FF0000120DB6604F120DC56012E3
:10014300E7548066F6120C7E7011120E6F703B0935
:100153000909F4F618F618F618F622120CA670150B
:10016300120E6608080860EAE6447FF618768018DF
:10017300E4F618F622120E666016120E6F7012E481
:10018300F608F608F608E65480F60909091818185F
:1001930022EAC0E0EBC0E0ECC0E0EDC0E0E687F0AF
:1001A300A4FBACF008E687F0A42CFCE435F0FA18C5
:1001B30009E687F0A42C4B60027401CA35F0FCE415
:1001C30033FB09E687F0D2F7A42CCB35F0FC1908F2
:1001D300E687F0A42BCC35F0FBE433FD0819E68762
:1001E300F0D2E7A42C4ACB35F0CD3400FC09E687E6
:1001F300F0D2E7A42DCC35F0FDE433FA0918E687F5
:10020300F0D2F7A42CCD35F0CA3400FC08E687F011
:10021300D2E7D2F7A42ACC35F07A7E20E70B0ACBBB
:1002230033CBCD33CDCC33CC33CB3350147004ED3F
:1002330030E00ED2F1E4CD3DCDCC3CCC3B5005DAE1
:1002430005C2F1EB547FC63308E63392F0FBE73384
:1002530009E733C39A502D2B70190C0D4C4D7015B3
:100263001806E608C333700D20F10AA2F013F6E472
:1002730018800B4024E4F630F002768018F618F666
:1002830018F68024D33B14501074FFA2F013F61811
:100293007680E418F618F6800FA2F013F618E6330A
:1002A30003F618ECF618EDF6D0E0FDD0E0FCD0E054
:1002B300FBD0E0FA22C0E074F112071AA2AFE433D4
:1002C300F509D2AF85A708AFA1EF5508FE74105EFC
:1002D300600612119C75A1EF74085E60081211A2EA
:1002E30075A1F78024EFA2E092F0E508A2E082F086
:1002F3005017906198E0F8900A0CE0C398A2D26579
:10030300D0335002E8F075A1FE751A00E509A2E0AA
:1003130092AF7F02020779C0E074F212071AA2AF0C
:10032300E433FED2AF9061A4E0F8759B00E59158E9
:10033300540860087591F71211F08023E591585421
:100343001060087591EF1211F68014E591A2E09206
:10035300F0E8A2E082F05007E0C2E0F012134C9004
:1003630061A3E0F8E5E9585404600E12132275E91D
:10037300FB906193E0A2E640F2751A00EEA2E092D0
:10038300AF7F01020779C0E074F212071AA2AFE44B
:1003930033FED2AF9061A5E0F8E5BF585404600680
:1003A30075BFFB12136480D1C0E0C0D0E8C0E0E9A0
:1003B300C0E0C082C083A8C1E8C0E0900979E0F83A
:1003C30074F828F582E43408F583D0E0F0900978D6
:1003D300E0F8A3E0687006E59590097BF090097951
:1003E300E004F0C394804002E4F0A374C6F0D08329
:1003F300D082D0E0F9D0E0F8D0D0D0E032C0E0C075
:10040300D0E8C0E0E9C0E0C082C0839009FCE0F816
:10041300A3E0687008539AFBA374018022C2E99099
:1004230009FCE0F8740128F0747C28F582E43409AF
:10043300F583E0F5C19009FCE0C394804002E4F049
:1004430080ACC3E498F8E499F91204868026C3E4E7
:100453009AFAE49BFBE920E7E9120486E498F8E4BE
:1004630099F922C3E498F8E499F9120486E498F818
:10047300E499F9C3E49AFAE49BFB22EB20E7CFE982
:1004830020E7E0B90010BB0008E88AF084F8AAF07E
:1004930022E4FBC8FA22EB70227B10C833C8C933AD
:1004A300C9335007C39AC3DBF280069A50012ADB93
:1004B300EAC833F4C8C933F4C9FA2275F008E4C8AA
:1004C30033C8C933C933C99AC99B5004C92AC93B24
:1004D300D5F0ECFBC833F4C8E4C9FA22080808EAEB
:1004E300C0E0EBC0E086F0E7A4FA180986F0E7A4C1
:1004F3002AFA180986F0E7A42AFA180986F0E7A46D
:100503002AFA1986F0E7A4FBE5F02AFA190886F01F
:10051300E7A42BFBE5F03AFA190886F0E7A42BFBD6
:10052300E5F03AFA18180986F0E7A4C5F02BFBE4C6
:100533003AFA1908E7C5F0C6A426F6E5F03BFBE452
:100543003AFA1886F0E7A4F6E5F00826F6E43B0845
:10055300F6E43A08F6D0E0FBD0E0FA22080808E611
:1005630030E711120C92120577080808C64480C6BA
:1005730018181822181818E9799EC608CAC608CB95
:10058300C608CCC6C370207996CACBCC7019798EB5
:10059300CBCC70137986CC700EF9802ACA33CACBC0
:1005A30033CBCC33CC331930E7F2CCCBCA33501432
:1005B3007004EA30E00DE4CA3ACACB3BCBCC3CCC66
:1005C300500209C3E913C6CC182313C6CB18C6CAF5
:1005D30018C6F922E4CFC0E0E4CEC0E0E4CDC0E029
:1005E300E4CCC0E075F020E626F608E633F608E62C
:1005F30033F608E633F6181818EC33FCED33FDEE4A
:1006030033FEEF33FFC3EC9709ED9709EE9709EF3C
:1006130097191919400FFFEC97FC09ED97FD09EEA7
:1006230097FE191906D5F0BFECF709EDF709EEF7B8
:1006330009EFF7191919D0E0FCD0E0FDD0E0FED0A6
:10064300E0FF222518C582C0E0E51934FFC583C049
:10065300E0E518C3958224F810AF088583198582D5
:10066300188008858319858218D2AFCEF0A3E520C0
:10067300F0A37808E608F0A3DEFAEFF0A3E58124FF
:10068300FAF8E608F0A3E608F0A3E608F0A30808E2
:10069300E608F0A3E608F0A315811581D0E0FED0AB
:1006A300E0F8158115811581E8C0E0EEC0E0221263
:1006B3000E3EB90003020704E490040178B97917E8
:1006C3008002F0A3D8FCD9FA781A9000867A01BA8E
:1006D30000028007E493A3F608DAF97AB97B1A904B
:1006E300008778B279018015E493A3AD82AE838A43
:1006F300828B83F0A3AA82AB838D828E83D8E9D9C0
:10070300E77582007583807405120AFC75827E7515
:1007130083267400120AFCC0D02518C582C0E0E508
:100723001934FFC583C0E0E518C3958224F310AFE5
:10073300088583198582188008858319858218D2D4
:10074300AFC8F0A3E9F0A3EAF0A3EBF0A37908E7BD
:1007530009F0A3D8FAECF0A3EDF0A3EEF0A3EFF0C9
:10076300A3D0E0F0A3D0E0F0A3D0E0F0A3E520F025
:10077300A3E5F0F0A322851983851882E0C0E0A3E6
:10078300E0F9A3E0FAA3E0FBA37808E0F608A3DF0F
:10079300FAE0FCA3E0FDA3E0FEA3E0FFA3E0C0E0DA
:1007A300A3E0C0E0A3E0F5D0A3E0F520A3E0A3F528
:1007B300F010AF0885831985821880088583198511
:1007C3008218D2AFD082D083D0E0F8D0E032E47385
:1007D300FF75F0108E218F2285822685832585184B
:1007E30082851983E0CEA3E0CF852682852583EB1E
:1007F300C9EAC8EDCBECCAC3E833C8E933C9EA3365
:10080300CAEB33CBC3EA9EF524EB9FF523B3500425
:10081300AB23AA24EC33CCED33CDD5F0DAAE21AF44
:100823002222D083D082ECC0E0EDC0E0E493A3FCAD
:10083300E493A3FDED4C600D120944EC24FFFCEDA1
:1008430034FFFD80EFE493A3FCE493A3FDED4C6040
:100853000D1209E1EC24FFFCED34FFFD80EFD0E045
:10086300FDD0E0FCE493A3C0E0E493C0E022C0E049
:1008730074F212071AA2AFE433FED2AFE589A2E104
:100883005003121076758900C2C5751A00EEA2E0F6
:1008930092AF7F01020779C0E074F212071AA2AF88
:1008A300E433FED2AFE58BA2E05003121076758BD2
:1008B30000C2E880D5851983851882E0A3FEE0A3F2
:1008C300F5207808E0A3F608DFFAE0A3FFE0A3C071
:1008D300E0E0A3C0E0E0A3C0E0E0A3C0E0E0A3C089
:1008E300E010AF08858218858319800885821885F2
:1008F3008319D2AFD083D082020B02D083D082E996
:10090300C0E0E493A3C386F0C5F095F0F908E4933F
:10091300A386F0C5F095F0700BE493A3C39940054B
:10092300E9048002A3E475F002A42582F582E5F0D0
:100933003583F583D0E0F9E493A3C0E0E493C0E00A
:1009430022C0E0C3E49396087401939618400FE421
:100953009366700808740193661870007019A3A356
:10096300C3E49396087401939618A3A3400DD0E0B3
:10097300D0E0D0E0020861A3A3A3A3A3A3D0E02205
:100983007404800474028000CCC0E0EDC0E0E5187C
:10099300C39CCCAD1950011D10AF068C188D198066
:1009A300068C188D19D2AF120A7ED0E0FDD0E0FC80
:1009B3002274028000CCC0E0EDC0E0E518C39CCCFB
:1009C300AD1950011D10AF068C188D1980068C18B7
:1009D3008D19D2AF120A5CD0E0FDD0E0FC22C0E05A
:1009E300C0F088F0E4936670080874019366187089
:1009F30000A8F0A3A3700BD0F0D0E0D0E0D0E002C9
:100A03000861A3A3D0F0D0E022D083D082CCC0E091
:100A1300E493A36006120ABE1470FAE493A360067B
:100A2300120BEB1470FAD0E0FCE493A3C0E0E49360
:100A3300C0E022C0E074F212071AA2AFE433FED280
:100A4300AFC2C0E5D1A2E45003121112751A00EE31
:100A5300A2E092AF7F01020779CAC0E0E493A3C585
:100A630082CCC582C583CDC583F0A3C582CCC582A4
:100A7300C583CDC583DAE5D0E0CA22CAC0E0E0A3CE
:100A8300C582CCC582C583CDC583F0A3C582CCC541
:100A930082C583CDC583DAE6D0E0CA22C008C3E0AD
:100AA30096F50808A3E096420808A3E096420808D2
:100AB300A3E09645087001D3D00822C0E0E493A3D5
:100AC300D39C5010E493A3C39C400AD0E0D0E0D061
:100AD300E0020A29A3A3A3D0E02270090808082290
:100AE3006016181818C6C333C608C633C608C633FB
:100AF300C608C633C6D5E0EA22C09FF59FE473D08B
:100B03009F22D083D082C09FE493C0E0740193C03E
:100B1300E0740293F59F22C0E0C0D0E8C0E0A8A82B
:100B2300D2AFC2C7751A00E8A2E792AFD0E0F8D0FF
:100B3300D0D0E0327404800A740380067402800209
:100B43007401C0E0F404120B6DD0E0120E01220018
:100B5300C0D0251810AF08F518500C05198008F5FA
:100B63001850020519D2AFD0D0222518F58210AF44
:100B730008F518400C15198008F51840021519D20C
:100B8300AF85198322BB0102E722C082C083898219
:100B93008A83BB0003E08002E493D083D082226087
:100BA30016080808C6C313C618C613C618C613C644
:100BB30018C613C6D5E0EA22C3E0C696F608A3E03A
:100BC300C696F608A3E0C696F608A3E0C696F622F4
:100BD3002518F8E43519F9222518FAE43519FB220A
:100BE3002518FCE43519FD22C0E0E493A36C7009D9
:100BF300D0E0D0E0D0E0020A29A3A3D0E022251858
:100C030010AF08F518400C15198008F518400215A7
:100C130019D2AF22E76670100809E766700A08095F
:100C2300E76670040809E76622E066701008A3E02F
:100C330066700A08A3E066700408A3E06622C3E0B6
:100C43009608A3E09608A3E09608A3E096A2D265CF
:100C5300D03322C3E096F008A3E096F008A3E09611
:100C6300F008A3E096F022C3E697F60809E697F6A4
:100C73000809E697F60809E697F622181818E60811
:100C830046087009E626087005E633F422082218A0
:100C93001818E4C396F608E496F608E496F608E412
:100CA30096F622191919E70947097009E727097008
:100CB30005E733F4220922C3E4939608740193965B
:100CC3000874029396087403939622E026F608A309
:100CD300E036F608A3E036F608A3E036F622E0563F
:100CE300F608A3E056F608A3E056F608A3E056F686
:100CF30022700422600D18C6C333C608C633C6D596
:100D0300E0F41822E627F60809E637F60809E6377D
:100D1300F60809E637F622E657F60809E657F60815
:100D230009E657F60809E657F622E026F008A3E09D
:100D330036F008A3E036F008A3E036F022E647F6E3
:100D43000809E647F60809E647F60809E647F622E2
:100D5300E056F008A3E056F008A3E056F008A3E03D
:100D630056F022600D08C6A2E713C618C613C6D5EF
:100D7300E0F322C6F4C608C6F4C608C6F4C608C61D
:100D8300F4C622C3E7960809E7960809E796080917
:100D9300E79622C3E09608A3E09608A3E09608A38B
:100DA300E0962275D00075813F751801751904000E
:100DB3000206B2E6084608C3134608336002E63368
:100DC300F422E7094709C3134709336002E733F401
:100DD30022600C08C6C313C618C613C6D5E0F42296
:100DE300E6F008A3E6F008A3E6F008A3E6F022E0A5
:100DF300F608A3E0F608A3E0F608A3E0F622CAC0CB
:100E0300E0E6F0A308DAFAD0E0FA22E0FAA3E0FB86
:100E1300A3E0FCA3E0FD22EAF0A3EBF0A3ECF0A334
:100E2300EDF022E0F8A3E0F9A3E0FAA3E0FB22E867
:100E3300F0A3E9F0A3EAF0A3EBF022E5C754F844EA
:100E430001F5C77901222518F582E43519F58322C6
:100E5300E9F874FF28F90470F722C2AF75D69F0230
:100E6300000022E62618461846184622E7271947A7
:100E73001947194722120B0557DE01120B05B2E180
:100E830001120B0531E401120B05EDE401120B0510
:100E93001DE501120B056AE501120B05FEE50112C2
:100EA3000B05A7E601120B05F8E601120B053CE75B
:100EB30001120B05E0E701120B054DE801120B05CA
:100EC3007CE801120B058FE901120B05AFE9011252
:100ED3000B0513EA01120B05EFEA01120B051CEDDA
:100EE30001120B05CAED01120B0562F001120B058D
:100EF300E7F001120B055EF301120B0598F30112E3
:100F03000B05F4F401120B0507F501120B0548F567
:100F130001120B05E0F601120B05008004120B050C
:100F23007C8004120B05AF8004120B05DD800412D4
:100F33000B05228304120B05418304120B058683E0
:100F430004120B051C8404120B05688404120B05A0
:100F5300FA8404120B05D38504120B0524860412AC
:100F63000B05898604120B05FC8604120B054087CA
:100F730004120B05988704120B05BA8704120B059C
:100F83004A8804120B05DB8804120B052789041217
:100F93000B05538904120B05948904120B052C8B42
:100FA30004120B05188C04120B05FA8C04120B05A2
:100FB300D68C05120B05E78C05120B05858D0512E2
:100FC3000B059F8D05120B05FDFF01120B055691B5
:100FD30005120B05EA8B05120B05FA8B05120B059F
:100FE300158C05120B05C98C05120B05E589051235
:100FF3000B05698A05120B05D18A05120B0529E138
:1010030004120B055DE104120B0589E104120B05C3
:10101300B3E104120B05D7E104120B051FE204121E
:101023000B0546E204120B058BE204120B0520E3C9
:1010330004120B05B5E304120B05EAE304120B05D6
:101043000FE404120B053BE404120B0576E40412CF
:101053000B05A9E404120B05F78105120B05168293
:1010630005120B057C8205120B059B8205120B05ED
:10107300E08205120B05398305120B0578830512EF
:101083000B057B8305120B05B68805120B05CB8870
:1010930005120B053F8905120B05598905120B052E
:1010A300708905120B05838905120B059B890512AF
:1010B3000B05B08905120B052DD904120B053BD97D
:1010C30004120B05B4D904120B0589DA04120B05BB
:1010D3005BDC04120B05C0DC04120B051DDD0412DE
:1010E3000B05F87F00120B05F1FD02120B0529FE1B
:1010F30002120B0577FF02120B05FBFF02120B0511
:101103006BE804120B05D7E804120B054CEA041232
:101113000B05B3EA04120B0500EB04120B0584EB79
:1011230004120B05B9EB04120B05DCEB04120B05DF
:1011330016CB04120B0542CB04120B05D9CD0412B6
:101143000B0519CE04120B0555CE04120B0569CEFF
:1011530004120B0582CE04120B0573CF04120B0588
:1011630025D004120B0539D004120B058483051214
:101173000B05A88305120B05C18305120B05FF831D
:1011830005120B052F8405120B055C8405120B0554
:10119300668405120B05CC8405120B05CF8405125A
:1011A3000B05D98405120B05E68405120B0503F81C
:1011B30004120B0523F804120B0562F804120B0545
:1011C30080F804120B059BF804120B0501F90412B5
:1011D3000B050DF904120B056AF904120B0579F9D5
:1011E30004120B059DF904120B055EFA04120B059C
:1011F3006BFA04120B057CFA04120B05B6FF0112FD
:101203000B05CEFF01120B05FAFF01120B052EFB96
:1012130003120B0588FC03120B0596FC03120B0546
:10122300A9FC03120B05BEFC03120B05D3FC03122E
:101233000B05E6FC03120B0562FD03120B05C7FD4C
:1012430003120B054FFE03120B05C7FE03120B051A
:10125300A0FF03120B05B0FF03120B05BFFF031220
:101263000B052E8F05120B05528F05120B057A8F76
:1012730005120B05A28F05120B05AAFA04120B0522
:10128300D1FA04120B05EFFA04120B055EFB0412EC
:101293000B0530F504120B0549F504120B0555F542
:1012A30004120B0569F504120B0587F504120B05EF
:1012B30091F504120B059BF504120B05AEF5041210
:1012C3000B0534F604120B05A9F604120B05D8F628
:1012D30004120B0526F704120B0575F704120B0510
:1012E30090F704120B059AF704120B05ABF70412DF
:1012F3000B05EEF704120B054E9005120B059990A2
:1013030005120B05D0BB04120B05FCBB04120B0525
:1013130019BC04120B052CBC04120B0547BC0412A8
:101323000B05A1BC04120B05CFBC04120B05DFC0D7
:1013330004120B053DC204120B056FC204120B0508
:10134300D2C204120B053EC404120B0566C4041278
:101353000B057BC404120B058BC404120B05CBC411
:1013630004120B050DC504120B051DC504120B0554
:10137300868705120B05A08705120B05C887051282
:101383000B05E18705120B05058805120B0523885C
:1013930005120B053A8805120B05688805120B0523
:1013A300838805120B053DFF04120B0581FF041210
:1013B3000B05E2E404120B05F2E404120B05F7E556
:1013C30004120B0529E604120B0559E604120B055A
:1013D3007CE604120B0593E604120B05CDE604121A
:1013E3000B0532E704120B0574E704120B05BBE788
:1013F30004120B05E8E704120B0513E804120B05AE
:10140300F08405120B05028505120B0516860512DD
:101413000B05198605120B05AE8D05120B05E48D20
:1014230005120B05268E05120B05368E05120B05CC
:101433007A8E05120B05ACF801120B05E6F80112C2
:101443000B054FF901120B056EF901120B0510FA8A
:1014530001120B0519FA01120B056AFA01120B05A9
:1014630093FA01120B05A0FA01120B0511FB0112ED
:101473000B059FFB01120B05EDFB01120B0523FC72
:1014830001120B0584FC01120B05ADFC01120B05C7
:1014930024FD01120B0580FD01120B05BDFD011298
:1014A3000B05F4FD01120B0506FE01120B0518FED8
:1014B30001120B0537FE01120B0540FE01120B054D
:1014C30000FF01120B054CFF01120B058AFF0112ED
:1014D3000B05468605120B05A59005120B05FFFCAF
:1014E30004120B0535FD04120B057DFD04120B05DB
:1014F300D6FE04120B052ED603120B055FD703127B
:101503000B059BD703120B0555D903120B057FD986
:1015130003120B05F8DB03120B0538DC03120B0572
:10152300CCDD03120B056BDE03120B05C3DE0312C6
:101533000B0556DF03120B0590DF03120B05D2DFF9
:1015430003120B0545E103120B05C5E203120B055C
:1015530002E503120B0530E503120B055CE50312EC
:101563000B0565E503120B05C2E503120B0552E6F5
:1015730003120B058EE903120B0510EA03120B0588
:10158300848E05120B059C8E05120B05A68E051283
:101593000B05FC8E05120B05BDD404120B05D3D429
:1015A30004120B0574D504120B05B3D504120B05F5
:1015B300D0D504120B0501D604120B054ED6041226
:1015C3000B0582D604120B05BDD604120B05BAD83F
:1015D30004120B0520D904120B05EA8A05120B0528
:1015E300498B05120B05878B05120B05C88B05125A
:1015F3000B0531DD04120B05A1DE04120B058BDF95
:1016030004120B05BFDF04120B0511E004120B05D6
:10161300BB7F00120B05C67F00120B05D87F00129B
:101623000B05E97F00120B054DC504120B05A9C577
:1016330004120B05D4C504120B0529C604120B05AD
:10164300C1C704120B0511C804120B056BC80412A1
:101653000B05BEC804120B0563C904120B0509CAA6
:1016630004120B05008002120B050C8002120B05FD
:101673006E8002120B05788002120B05058102129F
:101683000B05418102120B052D8202120B058C8280
:1016930002120B05158302120B05928302120B052E
:1016A3000D8402120B05C48502120B058A870212F0
:1016B3000B05908802120B05978902120B05F88B14
:1016C30002120B056D8D02120B050A8E02120B0519
:1016D300568F02120B05569002120B05C891021287
:1016E3000B055F9602120B05499702120B05CB9768
:1016F30002120B05F09702120B05159802120B0547
:10170300B09802120B05CE9802120B05EC98021248
:101713000B055D9902120B057C9902120B05A99921
:1017230002120B05AA9A02120B05939B02120B05D8
:101733002A9D02120B054B9D02120B05F19D02120D
:101743000B05389E02120B05AA9E02120B052D9F54
:1017530002120B05929F02120B05EF9F02120B055B
:1017630092A002120B0507A102120B0542A102125D
:101773000B05A4A102120B0507A302120B0597A4E4
:1017830002120B053EA502120B0596A702120B05CA
:10179300E0A702120B05F5A702120B0546A80212D9
:1017A3000B05B7A802120B05E7A802120B0558A9EF
:1017B30002120B05F7A902120B050CAC02120B0562
:1017C300A2AE02120B05AFAF02120B05B0B30212A9
:1017D3000B057AB402120B0597B502120B054BB732
:1017E30002120B05E9EB04120B058BEC04120B053B
:1017F300A6EC04120B0567ED04120B05D0ED0412E1
:101803000B05DEED04120B0587EE04120B05ACEE9F
:1018130004120B05F59005120B05D48D04120B056C
:101823008C8E04120B05058F04120B050190041214
:101833000B050B9104120B05959104120B05C19234
:1018430004120B05E29204120B05869304120B0596
:10185300A99404120B05579504120B05D39804128F
:101863000B05F4C003120B0523C103120B059BC127
:1018730003120B05AAC203120B0506C303120B05C1
:101883007DC403120B0599C403120B05EBC40312A9
:101893000B052EC503120B0541C503120B0599C594
:1018A30003120B055BC603120B05C9C603120B0516
:1018B30000C703120B0538C703120B05CAC803126E
:1018C3000B05A9C903120B05F7CA03120B05DACBE3
:1018D30003120B0566CC03120B05A6CC03120B05F2
:1018E300C5CC03120B0510CD03120B0530CD03122B
:1018F3000B05C9CD03120B0558CE03120B05B3CE4E
:1019030003120B05F3CE03120B0570D103120B0563
:1019130094D203120B05DAD203120B05CFD30312B1
:101923000B05F7D303120B05FAD303120B0504D4EB
:1019330003120B0520D403120B05A8D403120B05C5
:10194300E1D403120B050DD503120B0534D5031295
:101953000B0558D503120B05C9D503120B05DCD5AE
:1019630003120B050FD603120B05C78F05120B05C8
:10197300D38F05120B05119005120B05F47F00128E
:101983000B056C6900120B058F6900120B05DC6AED
:1019930000120B05256B00120B05836B00120B0560
:1019A30012B604120B05EC6B00120B053D6C001212
:1019B3000B05B76C00120B053A6D00120B05ABDD7E
:1019C30001120B05C56D00120B05086E00120B0505
:1019D3002B7200120B05DC7300120B051D74001231
:1019E3000B05947700120B05C27800120B053F7AA2
:1019F30000120B05C57A00120B05B77B00120B050D
:101A03003A7E00120B056DEA03120B050DEB031270
:101A13000B0579EB03120B0594EB03120B051EEC7C
:101A230003120B0577EC03120B05C2EC03120B0533
:101A330029ED03120B05AAEE03120B0592DC01122A
:101A43000B0545F003120B054DF203120B05F1F2E2
:101A530003120B0590F303120B057EF403120B051F
:101A63005CF603120B05FDF703120B0590F8031246
:101A73000B059CF903120B05B9A503120B051CA654
:101A830003120B0564A603120B05A2A603120B0592
:101A9300FDA603120B055AA703120B0595A7031204
:101AA3000B0517A803120B0571A803120B05E5A973
:101AB30003120B056FAA03120B05C2AA03120B052F
:101AC300DCAA03120B05F6AA03120B0550AB031293
:101AD3000B05D6AD03120B05F5AD03120B05E0AEF6
:101AE30003120B051AB003120B0599B003120B0571
:101AF300D0B003120B053FB103120B0500B2031262
:101B03000B05D9B303120B05DAB403120B054BB65D
:101B130003120B054BB803120B05C6BA03120B05D0
:101B2300A0BC03120B0561BD03120B05D9BD031243
:101B33000B05F0BD03120B05EABE03120B05E2BF52
:101B430003120B0551C003120B053EF204120B05E1
:101B530095F304120B0554F404120B05BCF40412A0
:101B63000B053DEF04120B0558EF04120B059CEF18
:101B730004120B05C2EF04120B05E9EF04120B0567
:101B830001F004120B05A3F004120B05B8F00412C4
:101B93000B05DAF104120B05E3F104120B05ECF16A
:101BA30004120B05F5F104120B054DD004120B05BD
:101BB3004FD404120B0554D404120B0556D404124B
:101BC3000B05848005120B052A9105120B05008075
:101BD30003120B05338003120B059F8003120B05C1
:101BE3003A8103120B05D78103120B051C820312E2
:101BF3000B053E8203120B05578203120B057D82F0
:101C030003120B059F8203120B05DD8203120B05E2
:101C1300218303120B05438303120B05A5830312D0
:101C23000B056C8403120B05238503120B059585A5
:101C330003120B05608603120B05B38603120B0513
:101C4300198703120B05538703120B05A58703128C
:101C53000B05138803120B057E8803120B0581887D
:101C630003120B05028903120B05998903120B0555
:101C7300198A03120B05388A03120B059C8B031276
:101C83000B05A98B03120B05B58C03120B05C28C34
:101C930003120B05CB8C03120B05A38E03120B054A
:101CA300BD8F03120B05369003120B05A890031288
:101CB3000B05CA9003120B055E9103120B053293B9
:101CC30003120B05099703120B051D9703120B054E
:101CD3002D9703120B05379703120B054097031239
:101CE3000B05499703120B05539703120B058097B6
:101CF30003120B05A99703120B05B49703120B05E7
:101D0300D89703120B05FC9703120B056698031271
:101D13000B05AC9803120B05C99803120B054699E2
:101D230003120B057D9903120B05BC9903120B05D6
:101D3300099A03120B058F9A03120B055D9C03127C
:101D43000B05E09C03120B05C49D03120B052BA08E
:101D530003120B0584A003120B05CEA003120B057F
:101D630029A203120B055EA203120B05B0A20312F4
:101D73000B0565A303120B0514A403120B0551A451
:101D830003120B05E6A403120B0552A503120B0560
:101D9300228201120B05548201120B058282011269
:101DA3000B05588401120B05388501120B0590852C
:101DB30001120B05CB8601120B05178701120B05C8
:101DC300408A01120B05338D01120B05838E01121C
:101DD3000B05198F01120B05258F01120B05578F68
:101DE30001120B05DA9001120B05E89101120B05A4
:101DF300129201120B05799201120B05D292011274
:101E03000B05389301120B054F9501120B05DE9656
:101E130001120B05A89701120B05EE9801120B0591
:101E23003E9B01120B050E9E01120B051B9E011218
:101E33000B05A29E01120B05369F01120B05799F1C
:101E430001120B05C29F01120B0516A001120B050F
:101E53008FA001120B05FEA001120B051BA101129D
:101E63000B054BA101120B0580A101120B0550A21A
:101E730001120B05F9A201120B057FA501120B0537
:101E83009FA601120B058AA701120B050CA80112CC
:101E93000B0543AC01120B0580AC01120B05D8AC4A
:101EA30001120B050BAD01120B0575AD01120B05EC
:101EB300ABAD01120B0536AE01120B058EAE01124E
:101EC3000B0565AF01120B051EB001120B05B9B06E
:101ED30001120B05C1B301120B05DDB401120B0591
:101EE30080B801120B0574B901120B0577B9011201
:101EF3000B05A6B901120B05ACBB01120B0585BC82
:101F030001120B05C8BC01120B051EBE01120B0505
:101F13005DBE01120B05EFBE01120B0523BF0112BB
:101F23000B05E8BF01120B0500C201120B0571C2BC
:101F330001120B05B1C201120B053FC301120B05C0
:101F430067C401120B0529C501120B0530C7011225
:101F53000B0548C701120B055CC701120B0594C79B
:101F630001120B05C2C701120B0541C901120B0572
:101F730066CA01120B05CACA01120B057CCB0112FA
:101F83000B05ACCB01120B0573CC01120B050BCD6A
:101F930001120B0531CF01120B0566CF01120B05A0
:101FA300C9CF01120B05F8D001120B05A0D1011204
:101FB3000B05D1D101120B05E9D101120B0578D222
:101FC30001120B052CD501120B0504D701120B05C9
:101FD30020D701120B053CD701120B050AD80112B9
:101FE3000B05FDDB01120B05752C00120B05A72C4D
:101FF30000120B05963000120B05E23000120B05A0
:10200300283100120B05CA3100120B0526320012CB
:102013000B056B3200120B05B23300120B05C634ED
:1020230000120B05B53800120B05393900120B05E8
:10203300463A00120B05A23A00120B05923C00121D
:102043000B05073D00120B05113D00120B051E3D4C
:1020530000120B05493D00120B05303E00120B0523
:10206300DA3E00120B05583F00120B05783F0012B1
:102073000B05A13F00120B05C33F00120B052342C2
:1020830000120B05E94200120B052E4300120B054B
:10209300AB4300120B055C4400120B058E44001287
:1020A3000B05D44400120B05104500120B056045C7
:1020B30000120B05B44500120B050A4600120B056E
:1020C300564600120B05C34600120B053E4700128D
:1020D3000B05094900120B05094A00120B052E4B8B
:1020E30000120B056D4E00120B05805100120B05FB
:1020F3003D5200120B05815200120B0531540012A0
:102103000B05455400120B054F5400120B0559548F
:1021130000120B05655400120B05815400120B05C8
:102123002C5500120B056B5500120B05755500124B
:102133000B057F5500120B05EF5500120B053A56A0
:1021430000120B054F5700120B05AB5700120B057E
:102153002C5800120B05EB5800120B05F459001212
:102163000B05285B00120B05165C00120B052E5C99
:1021730000120B05895C00120B05A75C00120B050E
:10218300EF5C00120B05165D00120B05B15D00122A
:102193000B05775E00120B05095F00120B05835FC9
:1021A30000120B059D6000120B054A6100120B051E
:1021B300726200120B05C26200120B052663001245
:1021C3000B05886300120B05B66300120B05DA6377
:1021D30000120B050F6400120B05406400120B057F
:1021E300736400120B05936400120B05FB64001269
:1021F3000B05EF6500120B054A6600120B057366AB
:1022030000120B05FB6600120B057E6700120B051F
:10221300A96700120B058E6800120B05FD9A0412C4
:102223000B05359B04120B05569B04120B05989B5B
:1022330004120B05FA9B04120B05049C04120B05F4
:10224300149C04120B054F9C04120B052FA00412BF
:102253000B051CA204120B0502A404120B0599A47E
:1022630004120B053BA504120B0588BA02120B05D9
:1022730006BB02120B0562BB02120B05ADBB0212B9
:102283000B05C8BB02120B05F3BB02120B0510BCF6
:1022930002120B051CBC02120B05B3BD02120B0587
:1022A300CCBD02120B0551BE02120B0564BE021215
:1022B3000B0583BE02120B0527BF02120B05A8C034
:1022C30002120B055BC202120B05F1C202120B05CF
:1022D300F4C202120B0564C302120B0582C302127D
:1022E3000B0519C402120B0561C402120B0564C469
:1022F30002120B052AC502120B0597C502120B0524
:10230300BDC502120B0548C602120B0566C60212B2
:102313000B05ACC602120B0560C702120B05AAC758
:1023230002120B05D9C702120B0536C802120B05A0
:102333006BC802120B0597C802120B05A5C802123F
:102343000B05F2C802120B0562C902120B05ABC9D9
:1023530002120B05F7C902120B0523CA02120B0561
:102363002ECA02120B054CCA02120B0537CB0212FE
:102373000B0541CB02120B057CCB02120B058CCB58
:1023830002120B0595CB02120B05E9CB02120B05CA
:10239300FDCB02120B052CCD02120B0543CD02120D
:1023A3000B0558CD02120B05E6CD02120B052BCE01
:1023B30002120B05B7CE02120B05C2CE02120B0599
:1023C30004D002120B051FD002120B056BD00212B0
:1023D3000B05DAD002120B0513D102120B052DD116
:1023E30002120B056FD102120B053FD402120B052B
:1023F300ECD402120B0559D502120B0599D7021220
:102403000B05B1D702120B05B4D702120B05C0D7C7
:1024130002120B05D4D702120B05DCD702120B05EF
:102423000FD802120B0511D902120B0598D902120B
:102433000B0508DA02120B058ADA02120B054BDBD5
:1024430002120B056ADB02120B050BDC02120B05F1
:1024530068DC02120B056BDC02120B0598DC02121E
:102463000B05ADDC02120B0521DD02120B0570DE3C
:1024730002120B0576DF02120B0501E002120B05B7
:102483001CE102120B05E4E102120B0515E2021234
:102493000B0538E202120B0541E202120B0570E252
:1024A30002120B0500E302120B05B6E302120B0541
:1024B3002BE402120B05D2E402120B0547E50212CC
:1024C3000B057EE502120B05BCE502120B05F2E5D6
:1024D30002120B0533B504120B0589B204120B0566
:1024E3009BB104120B0530B104120B05DDFD021282
:1024F3000B05D3FD02120B0566FD02120B0597FBBC
:1025030002120B0555FB02120B050DDD01120B0523
:102513003D6D00120B0563FA02120B0537FA021226
:102523000B055FDC01120B054ADC01120B05EEF90A
:1025330002120B052BF902120B0515F602120B05FD
:10254300D8F302120B05A5F302120B054CF302128A
:102553000B05DFF202120B059EF202120B05D7F1F7
:1025630002120B0571F102120B0510F102120B0599
:10257300B0F002120B0587EF02120B051BEF0212DC
:102583000B0573EE02120B056EEE02120B0562EEE3
:1025930002120B051FDC01120B058ABB04120B058B
:1025A30056BB04120B05FFBA04120B0586B90412BD
:1025B3000B05D8B804120B053BB804120B0595EABA
:1025C30002120B056FEA02120B050DEA02120B054C
:1025D300AEE902120B05D0B704120B059BE90212F8
:1025E3000B0590E902120B055FE902120B054CE79C
:1025F30002120B05BCB704120B05BFE602120B0552
:10260300C7DC01120B057BE602120B054FE6021233
:102613000B05DBB004120B0586B004120B0559B091
:1026230004120B0526B004120B05FEAF04120B05B2
:102633009FAF04120B057FAF04120B054AAF0412C0
:102643000B050EAC04120B05E3A904120B05D3A76B
:1026530004120B0550A704120B05C2EF03120B055E
:1026630004A704120B050CB704120B05B8A6041239
:102673000B0512A604120B05E96B0000000080FB9A
:102683008F0001004E1B870001004C1B3500040026
:10269300151B25000200191B260002001B1B270027
:1026A30002001D1B28000100271B29000100281B15
:1026B30084000400A51886000100C71A2A0001003F
:1026C300291B2B0001002A1B2C0001002E1B2D00AF
:1026D3000800B1182E0001002F1B2F000100301B32
:1026E30030000100311B31000100321B32000100B8
:1026F300B91833000100BA1834000100331B360047
:102703000100BB1838000100341B390001002D1BE8
:10271300830002004A1B63000100C7186400010024
:102723002B1B650001002C1B6D000100C8187100F4
:102733000800A91866000100491B430001003A1B69
:10274300440002003B1B450001003D1B4600020004
:102753003E1B47000800BF1848000100401B4B0008
:102763000100411B040001004D1BA1000100511B8E
:1027730037000100501B880001004F1B3C00010083
:10278300BC183D000100351B49000200421B6700D5
:102793000100C9184D000200441B4E000100461BF6
:1027A3004F000200471B3E000100391B510001008E
:1027B300BD1852000100371B53000100381B5400A1
:1027C3000100BE18000000000000000136360101C0
:1027D30000010201000103010001040106060502D4
:1027E3000000070100340801000F090401010D0175
:1027F30000FF0E08000017020000190100FF1A0174
:1028030000011B0100FE1C0100081D0200001F0146
:10281300000120010001210200002301000F240216
:1028230000002601000127010008280200FF2A01F9
:1028330000072B0102402C0100002D0100012E0195
:1028430000012F0100FF30010B1D310800003A0188
:1028530000083B01000F3C0100013D0100FF3E0465
:10286300000042040000460400004A0400004E0435
:10287300000052040000560400005A040000000047
:10288300000020011C820000010020011E820000C4
:102893000200200120820000030020011D820000AD
:1028A30004004201CA80000005004201EC800000E0
:1028B30006004201DB800000070030012182000096
:1028C3001000420384170000110030039517000025
:1028D3001200100396170000FDFF21011A82030066
:1028E3000000210397170300FDFF21411A820C000A
:1028F3005500390599170C0045003901FA810C0080
:1029030041003901FE810103710301030103010346
:102913000103010322030203010310030003000365
:102923000003000300030003000342030003240326
:1029330006030003000304031203250323032503F3
:1029430023030403040300030003000344030003FD
:102953000003230300036503210035038103000300
:1029630005030003000300030003250323030302FD
:1029730071023001600211027002010202020202BE
:102983008002100261023A00410063027302720284
:102993006202430200021302380000020002040232
:1029A30012020002000200020002040204023700C5
:1029B30037003C02440200023900000200026502B3
:1029C3000002350281020002050282028302000234
:1029D3000101710101010101110101013101010134
:1029E30001018001100161013B00140063017301C7
:1029F3007201620143010001130106013D0135002B
:102A0300040112010001000100010001040104019D
:102A1300330133013C01440132013600000100015E
:102A23006501000135008101000105018201830177
:102A330000010300710030016000110070003102D9
:102A430020035004800010006100000014006300A4
:102A530073007200620043000000130006000000D0
:102A63000000040012000000000000000000040049
:102A73000400370037003C0244000000000000005F
:102A83000000650000003500810000000500000023
:102A93008300000036000100060000000F00000064
:102AA3000000000000000000000003FFFF0000041E
:102AB30003FFFF0000FFFF0FF4010005C404032020
:102AC300000100000B000000000000000003010FE4
:102AD30000000000000000000000000000000000F3
:102AE30000000000000000000000000000000000E3
:102AF30000006C17B417721782167817BA17781775
:102B0300C6177E1782167817BA1784178216000025
:102B130000008A17821600000000000000009017D2
:102B230082169617CC179C1782160000000000002F
:102B3300000000000000A217DE17A8178216A217D4
:102B4300DE17A81782169617CC17AE178216000049
:102B5300301A0100301A0200A619028078260300F9
:102B6300AC190400B2190480B81905001025060039
:102B7300CA193100DC193300E2193400E819FFFFE8
:102B8300000007ECFDFDFDECDCDCCCBCACAC9C9C9C
:102B93008C7C7C6C6C5C5C5C4C4C3C3C2C2C1C1C22
:102BA30003EAF5E5D5D5C5B5A5959585857575650F
:102BB3006555554545353525251515050A6020020A
:102BC3002A200536200730200C12200D1E20FF007E
:102BD3000000160F00000B150B020002220F33003A
:102BE300000E0F5A6967426565416C6C69616E63DB
:102BF300653039D0D1D2D3D4D5D6D7D8D9DADBDC26
:102C0300DDDEDF303016181920231A1C1E300003B6
:102C13004D4C4651181A25050200011916181616AF
:102C230018230300303017181921301B1D1F3000E3
:102C33003C40423A3F3F392F47300C0E020B040B06
:102C43000A0708000F020402010101010902E80357
:102C5300000000BE040A01000E000300E80304099B
:102C63001103101E030A0C04040828020C0508159E
:102C73001E0474F7120646E990199EF0901953E466
:102C8300F01214009019B6E4F0A3F090199FF0A38A
:102C9300F01221B01214069018D7E4F0A3F0121B1F
:102CA300920245DB74F012064674D3120C011260D3
:102CB300375480606690199EE0F912146C8A088B71
:102CC30009AF09EA4F604C7C0080010CEC75F003FE
:102CD300A4F8A9F074BF28F582742B39F583E49323
:102CE300F46029E493F88A828B83E06870DDEC75E5
:102CF300F003A4F874C028F582742B39F583E493A8
:102D0300C0E0740193F583D0821207D1AA08EFFBC8
:102D130012145A1267696480023076851882851905
:102D230083A3E05420601F1220C68A088B09AF09D1
:102D3300EA4F600A12201EAA08EFFB12145A126708
:102D4300696420023076851882851983E0A2E050F9
:102D530042901958E0640F702E900CE8126774903B
:102D63000CE8C3E094E9A3E09403400A7A007B8073
:102D73009017C91246BD7900121FF4E96009901B30
:102D830015120E0E12200C851882851983E064013A
:102D930002305B542070030230607A207B0090196C
:102DA3009EE0F91215C2EA4B4C4D701A9019B212FB
:102DB3000E26E8494A4B700E750801750900750A1D
:102DC30000750B00806D750C00750D00750E007598
:102DD3000F001215D48A088B098C0A8D0B9019B237
:102DE300120E26E8494A4B60319019B27808120A4C
:102DF3009F400E750CFF750DFF750EFF750F7F80DD
:102E03001985080C85090D8C0E8D0F9019B2780C5D
:102E1300120BBB7401780C120BA2850C08850D09EB
:102E2300850E0A850F0BE5084509450A450B700316
:102E3300022FBA7C0079047A007B0012209C8A0C52
:102E43008B0DAE0CAF0D022EFE7402120E4974FFF1
:102E5300F07403120E4974FFF07404120E4974FFE8
:102E6300124730125EF17407120BE31261A7E96493
:102E730001706A1230824480F8A3E0F97428120EBC
:102E830049E8F0A3E912643BE0C0E0742A120E495A
:102E9300D0E012471D540860167428120E49A3E0AF
:102EA300440112308FC0E0742C120E49D0E0F012AE
:102EB300607A6011E8240B123875F87416120E4903
:102EC300E8F0A3E4F09081E61209837406120BE3A1
:102ED300740B120BDB121CBE7404120B528E828F06
:102EE30083A3A3A3A3A3A3A3A3A3740612308FF95D
:102EF30012207E7405120E491261FEEE4F7003021A
:102F03002FBA7C007904EEFAEFFB12209C740512B1
:102F13000E49EAF0A3EB124447E0F50CA3E0F50DEC
:102F2300E4F50EF50F7808790C120D864023EE2494
:102F330004F8E43FF985080C85090D8882F583C3FD
:102F4300E0950CF0A3E0950D12685EE84970A4804B
:102F53000C8E828F83A3A3A3A3E4F0A3F08E828FAE
:102F630083A3A3A3A3A3A3A3A3A3A3E064018E8228
:102F73008F83A3A3A3A3A3A37020E054046003023D
:102F83002E4C8E828F83A3A3A3A3A3A3A3A3A37473
:102F930006F07AB71231B5022EF6A3A3A3A3E0601D
:102FA30003022E4C8E828F83A3A3A3A3A3A3A3A365
:102FB300A37401F0022EF612206C7C0079017A00D2
:102FC3007B0012209CEA4B60031246B67C00790416
:102FD3007A007B0012209CEA4B701380448A828B18
:102FE30083A3A3A3A3126216EE98EF99400B8A82E0
:102FF3008B83A3A3A3A31261FE7C00790412209CFC
:103003008B0BA90BEA4970D5C3E5089EE5099F50D0
:103013000DC3EE9508FEEF9509FFEE4F700D1246B6
:10302300B69019B2123088A3F08024EE2EFEEF334F
:103033008E08F509E4F50AF50B7808120B377A20A8
:1030430012325E120B521215D49019B2120E1A8557
:103053001882851983E06420FAA3E08016A3E05464
:103063000460131258CE1225D07901123A3C12672C
:10307300696404FB80047A007B00742D026056EEC1
:10308300126064E022E4F0A3F0A3F022124722A32B
:10309300A3E022C082C08374EA120C017C167D0077
:1030A3007900AA18AB191214427408120E4974025B
:1030B300F0901947125B0A1230D67409120E4912A6
:1030C3005B227413120E49E41257A1121B86741665
:1030D3000249ECE8F0A3E9F09019511261E6227479
:1030E300F712064674DA120C01EAFEEBFFEA4F60B0
:1030F3002DAC18AD191220E47406120E49E0601EBF
:103103007417120E49E0FD7401120E49E0FCEEFA49
:10311300EFFB7900121FCAE9600479A480027900E9
:1031230074260245D874F7120646EAFEEBFF8A823C
:10313300F583A3A3A3A3A3A3E0544060178A828BC0
:10314300831260171248FB60067AFF7BFF8015121B
:1031530060138003901947125EF174FE6A70037462
:10316300FF6B604112601312603D12217AE98E8277
:103173008F83600B125C00126829E4F0A3800312B2
:103183006818F07CFA7D1F8E828F83123F71E9F5F8
:10319300087015EE4F60097901EEFAEFFB12207803
:1031A300A9080245DB7508CDAA081231B5E960E329
:1031B30080EE8E828F83125C04240CF582E438F552
:1031C30083E0F91220062274F6120646E9FEEAFFAE
:1031D3007A0F7B00121454EA4B601A8A828B837431
:1031E3000CF0EEA3A3F0EF8A828B8312439612575F
:1031F300FF7900802BEEF91220A28B09A909EA4975
:10320300601C8A828B83A3A3A3A3A3A3A3A3A374F6
:103213000612439FE0F9121D60EEF912207E791029
:103223000255EA74F41206468A088B098C0A8D0B40
:10323300901958E0640F701EEA4B4C4D60189019BA
:1032430053E064086005E06404700B7808120B37E0
:1032530012325C120B520234C17A017B0090199E28
:10326300E0F91215B074042274F412064674FC12C9
:103273000C01EAFEEBFF8A82F583A3A3E0F9122097
:10328300A28A088B09EA4B70030233A48E828F83D0
:10329300A3A882A983E0C0E0EA1257F5D0E0124266
:1032A3000564F160288E828F83A3E064CD601E8E57
:1032B300828F83A3E0641A60148E828F83A3E064F9
:1032C300E9600A8E828F83A3E064E1703379001290
:1032D3002078E9602BE5082404F50AE43509F50BA9
:1032E300850882850983A3A3A3A3A3A31242DB12A8
:1032F30041E3121412850A82850B8312603D8070AC
:103303008E828F83A3E0C0E07402120E49D0E012D4
:1033130049FA124B1D123C8BC0E07403120E49D0C4
:10332300E0F0E5081264E6123934E0AA18AB19702C
:1033330005121CB880031221627402120E49E06464
:10334300E9702D850882850983123A9A750A0178F6
:103353000A120B43750AE9780A120B431241B7129A
:103363003C58FCA3E0FD8A828B83123C82120B52F1
:10337300850882850983A3A3A3A3A3A3A3A3A3E08F
:1033830064027012850882850983A3A3A3A3A3A360
:10339300A3A3A37406F08E828F83A3A3E0F9122064
:1033A3007E12206C901B1B1238A674040234BE7468
:1033B300F4120646EAFEEBFF7508008A82F583A342
:1033C300A3A3A3A3E06038750808125EE479FF1293
:1033D3001E38EA4B601075082C8E828F83A3A3A33B
:1033E300A3A3E0D2E0F08E828F83A3A3A3A3A3E0E1
:1033F3005403640160030234AD4308110234ADEA9F
:103403002418124DE36036EA241A124DE36003F4E4
:1034130070131261C67003A3E06960030234AD75D3
:1034230008220234ADEA241B1234B1241A124DE3EC
:10343300FAEE2419124DE3F9121D4E806D8A828B28
:1034430083A3A3A3A3A3A3A3A3A312389170037578
:1034530008018E828F831261CA7003A3E06970062C
:10346300E508D2E1F508E50860158E828F83A3A3F2
:10347300E07006E508D2E58004E508D2E6F5081217
:1034830048EE64017006E508D2E0F5088E828F836A
:10349300A3A3E06015EE241D125102F9122168E97D
:1034A30064016006E508C2E0F508A9088010F5820A
:1034B300E43FF583126881EA227409120B527F04F8
:1034C3000208B874F012064674D7120C01EAFEEB38
:1034D300FF8A82F583A3A3A3A3E0600E901B1912B6
:1034E30060816006901B191238A67403120BE38ED9
:1034F300828F83A3A3A31259CD125EEF1220E4E9B6
:10350300700302365778017405120E49E0C3940222
:10351300400278007407120E49E0C3940240027817
:1035230000740C120E49E064F87003A3E0F4700316
:10353300023657740C120E49E064F97003A3E0F4E9
:103543007003023657740C120E49E064FA7003A339
:10355300E0F47003023657740C120E49E064FB70FA
:1035630003A3E0F470030236577406120E49E0F920
:10357300901941E0696003023657E8A2E040030274
:1035830036577427120E49E06003023657EE2413B0
:103593001261DC7422120E491259D7241C1261DC09
:1035A3007410120E49125B227409120E49E0601D59
:1035B300741A120E49E0FD7404120E49E0FC8E8267
:1035C3008F83125EEF7901121FCAE9703B740312F5
:1035D3000BDB122018E9F50C7409120E49E0702C6C
:1035E30090193BE060267422596422601F7442598B
:1035F300644270147420120E4912388B600E7420CA
:10360300120E4912388460047ACF804AE9A2E65048
:103613004D7420120E4912510824FD600F14600CE2
:1036230024FD600824FD600424FE70287420120E1B
:103633004912387D700E7420120E4912572EA3E0E2
:10364300640D601A7403120BDB122192E96401709A
:103653000D02386D7AD37B0012197C02386DEE248B
:103663002DF582E43FF583123A917003A3E069706C
:103673001D7508007808120B437808120B43EE24DB
:103683002F124DE3F9123897123C82120B52740930
:10369300120E49E07003023735123897125EF112A9
:1036A30021E08A0E8B0FEA4B70030237C6740412B3
:1036B3000E49E0F88E828F83A3A3E028F8A3E034B9
:1036C30000F9E8240D123875F88A828B83A3A3A32B
:1036D300E068600EE88A828B83A3A3A312438F1250
:1036E30030897904E9120E49124E02A3E02AF8A3A5
:1036F300E034008882F583A3AA82AB831214488A3C
:10370300088B098C0A8D0B850E82850F83A3A3A3D7
:10371300A37808120A9F400302386D90820278084A
:10372300120CCE850E82850F83A3A3126887A31282
:103733004B26901953E064046008E06409600302B7
:10374300386DE50CA2E54003023800EE242F124D3C
:10375300EBF0EE2430124DE3C0E07401120E49D0B9
:10376300E0F0EE2431124DE3C0E07402120E49D0B2
:10377300E0F07414120E49E064017026740E120E08
:10378300491241DE2413124DE3687003A3E069700C
:1037930011740C120E4912389170077414120E49E9
:1037A300E4F0EE2425F582E43FF5831209837404E3
:1037B300120BE37407120BDB121CBE7404120B52C0
:1037C30002386D901998E064016003023735742064
:1037D300120E4912388B7009E50CA2E6500302372A
:1037E300357410120E49E0F47003A3E0F4607BEE2D
:1037F300FCEFFD7403120BDB122024806DA2E65054
:10380300697420120E49125C107016741A120E4954
:10381300E0640270557403120BDB790012215C80A3
:10382300497420120E491238847014741A120E4906
:10383300E0640470357403120BDB122150802B7487
:1038430020120E4912387D700C79007403120BDBC1
:1038530012219E80157420120E4912572EE0640C1B
:1038630070087403120BDB1221AA7429026056E854
:103873002406F582E439F583E02212601DE0640337
:103883002212601DE064072212510C6406221248C2
:10389300FF640222EE242BF582E43F12687FEE12CE
:1038A30048D422E0F508A3E0AA08FBE4FCFD1220BB
:1038B3000C2274F4120646EAFEEBFF8C088D099085
:1038C30018B9E0600F1261C67003A3E069700512B6
:1038D3001D3C80537900125EE4121D6C8A828B8337
:1038E300E5824583602CA3A3A3A3A3A3E05418609C
:1038F30021E508241C12393112098712392D1209C6
:1039030087EE2418123C691253C912619E120B529E
:10391300801579008E828F83A3A3A3125BF61253C3
:10392300C9125EF1121D420234C1E5082413F58267
:10393300E43509F5832274F712064674F7120C0175
:10394300EAFEEBFF901953E06403600DE06401604D
:1039530008E064096003023A378A828B83A3E0603C
:1039630003023A057C007D007A027B0012140C12DC
:1039730062438A821261E0901944125B22795312E6
:103983001B74901953E064096009901951125EF198
:103993001221DA851882851983740112574690190A
:1039A300537404F07401120BDB794A121B6E740119
:1039B300120BE37A497B191215EC9017CCE0640BD8
:1039C30070057406F080057900123A3C9019441290
:1039D3005BFC7A037B0012140C901947125BFC7A90
:1039E300047B0012140C90193EE0A2E35004D2F0C1
:1039F3008002C2F0125733901B15120E0E12200CC8
:103A0300802FFC7D007A037B1012140C9017CCE0FE
:103A1300640B7003740AF09018BDE4F0FA7B401253
:103A230055238E828F83A3E0F9123A3C901953E415
:103A3300F012204E74090245D8901951125EF51206
:103A43001CD022C082C0839018D712608170179057
:103A53001953E024FB6005146007800A9018DD8089
:103A63001F9018DF801AE8496007123872640170EA
:103A73000C8A828B83A3E0F9121CC4800E9019CDAB
:103A8300126081600612572F1207D102527A126117
:103A9300E6901951E068221261E6E8FAE9FB227424
:103AA300F512064674D8120C018A088B098A828B98
:103AB30083A3A3A3A3A3A3A3A3E0C3940F500302CD
:103AC3003C538A828B83A3A3A31261FE7415120B4A
:103AD300E38A828B83A3A3A3A3A3A3A3A3123C5828
:103AE300FAA3E0FB12205A7415120E49E0702E85DA
:103AF3000882850983A3A3A3A3A3A3A3A3E0C394D9
:103B03000B401A8E828F83A3A3A3A3A3A3A3A3E033
:103B130064027009EE240B124DE3F46003023C537C
:103B23007417120E49E0600764026003023C53906D
:103B33001953E06402601CE0640660179018D71202
:103B430060817003023C5312387264016003023CCB
:103B53005380259018D7126081701D75080078086E
:103B6300120B437808120B43EE2410123C698E8229
:103B73008F83123C82120B528E828F8312685612ED
:103B8300420E1261E27402120E491259D7123083A7
:103B9300C0E07404120E49D0E0123C8BF508A3E098
:103BA300F509740F7808120DD47405120E49E5084F
:103BB300F07419120E49E0C0E07406120E49D0E009
:103BC300F0741B120E49E0C0E07407120E49D0E0F6
:103BD300F07416120E49E0C0E07409120E49D0E0E9
:103BE300F07417120E49E0C0E07408120E49D0E0D9
:103BF300F0EE2410124DE3C0E0740A120E49D0E037
:103C0300F0741A120E49E0C0E0740B120E49D0E0B2
:103C1300F07427120E49E0C0E0740C120E49D0E094
:103C2300F0741C120E49A982AA8389088A09750AAD
:103C3300007808120B3B7C087D007410120E49AA11
:103C430082AB83124DDA120B52AA18AB19121CCA9B
:103C53007428024736E0F98A828B83A3A3A3A3A324
:103C6300A3A3A3A3E022F582E43FF583E0F98E82C8
:103C73008F83A3A3A3A3A3A3A3A3A3126881221245
:103C83005EF512211A740222F0EE1253CEE0227472
:103C9300F212064674F8120C018A0A8B0B8C0C8DF7
:103CA3000D8908908117AC18AD197408120A7EC2E9
:103CB30000AC0AAD0BAA18AB19125E727002D200E7
:103CC30090199F8013AC0AAD0BEE240BFAE43FFB73
:103CD300125E72701B1248C5124558601EA2004046
:103CE300E48E828F83E0650C7004A3E0650D70E5BC
:103CF3008E828F83A3A3E0650870DAEEFAEFFB747C
:103D03000802421BC082C08390199F025277C0826F
:103D1300C08390199FE4F0A3023F6D74F712064627
:103D230090199F12676F800FEA2414F582E41261E1
:103D3300FB1214F0EEFAEFFBEA4B70EC90199FE4E0
:103D4300F0A3F00245DB74F21206468A0C8B0DEDEC
:103D5300FF890B8A828B83E08C828D83F0A3A882F8
:103D6300A9838A828B83123E12124389E0C454F0E2
:103D7300FA88828983E04AF0EC2402F8E43FF9856B
:103D83000C828B83A3A3123E12123E25E0333354DD
:103D9300FC123E19E033333354F8123E19A3E0A268
:103DA300E0E4331313FA88828983E04AF0EC2403B6
:103DB300FE50010FE50C2407F508E4350DF50975F0
:103DC3000A007808120B3B7C087D00EEFAEF124DD7
:103DD300D9120B52EE2408FE50010FE50C240FF507
:103DE30008E4350DF5097808120B3B7C037D00EEE2
:103DF300FAEF124DD9120B52E50BC3940F400DE5A8
:103E03000C2412F582E4350D1253DDF002421EA399
:103E1300E08882898322FA88828983E04A123E25D8
:103E2300A322F0850C828B83A3A3A3A32274F21293
:103E33000646EBFF8C0C8D0D8A82F583E08C828D18
:103E430083126840A3A882A983E01252221242047B
:103E5300C412521CF0EA12684A125229124202A2F8
:103E6300E2E4338C828D83124201131313541F1225
:103E73005222A3124201A2E7E4338C828D83A3A3CF
:103E8300A3A3A3A3F0EA2403FE50010FF5088F09AF
:103E9300750A007808120B3B7C087D00E50C2407AB
:103EA300124DD5120B52EE2408FE50010FF5088F68
:103EB300097808120B3B7C037D00E50C240F124D9F
:103EC300D5120B528E828F83A3A3A3E0C0E01268A6
:103ED30066D0E0F002421E74F6120646EAFEEBFFDD
:103EE3008A82F583A3858208858309E0F9121CE899
:103EF300850882850983E064EB601E8E828F83A32D
:103F0300E064E160148E828F83A3E064F1600A8E23
:103F1300828F83A3E0641A70078E828F83A3E4F0F9
:103F2300901B15120E0E12200C7508017808120B47
:103F3300438E828F83A3E0F5087808120B43790040
:103F4300901951125BFC901947123C82120B5212CA
:103F5300206C0255EAC082C083E99019B17003E472
:103F6300800274018004EAF0A3EBF002527A125E3D
:103F7300F5121B8C2274F61206469019B1E0701BE1
:103F83007C0079017A007B0012209CEA4B600C8A4A
:103F9300828B8312608160031220000255EAC08283
:103FA300C083124438401079FF122096E9F8902C10
:103FB3006FE493C398500479018002790002527A26
:103FC30074F21206468A0A8B0B8909C2008A828B15
:103FD30083A3A3A3A3A3A3A3A3E0F91220A28A0C00
:103FE3008B0DAE0CAF0D750801EA4F60030240A4C0
:103FF300850A82850B83125BF6850A82850B83A370
:10400300A3A3A3A3A3A31241E312208A8A0C8B0DBB
:10401300AE0CAF0DEA4F70030241B08A828B83A3CB
:10402300A3A3A3E4F0A3F0E50A240CFAE4350BFB05
:104033008A82F583E0C0E01241B7D0E0F0E50A24BC
:104043000D1241D7240D125B1C1221801248DD1280
:10405300603DE50A24111241D72411125B1CE50AC5
:10406300241312620DC0E01248CFD0E0F0D200EE6C
:104073002406F8E43FF91241CA12420554046003CE
:10408300024116901B27E0F50A750B007407780AA6
:10409300120CF48E828F83A3A3A3A3A3A31241C103
:1040A300F08E828F83A3A3A3A3A3A3E0F50AA3E0C7
:1040B300F50B7407780A120DD4E50A5407FCE509D9
:1040C30060618E828F83A3A3A3A3A3A3A3A3A374DB
:1040D300021247301244CD600B90193F124E63A376
:1040E300A3125B22EC7003024187EE2406F8E43F3F
:1040F300F9E8FAE91241CAF0EC24FFF50AE434FFC7
:10410300F50B7407780A120CF48A8289831241C171
:10411300F080718E828F83A3A3A3A3A3A3E0448023
:104123000240A3EC700575080080598E828F83A32B
:10413300A3A3A3A3A3E05420600C12144EEA547F5C
:104143007900245F80198E828F83A3A3A3A3A3A3E3
:10415300E05410601A12144EEA540F7900240A50E6
:1041630001098E828F83A3A3A3A3F0A3E9800D8EFD
:10417300828F83A3A3A3A37401F0A3E412420E745A
:104183000412444EA20050288E828F83A3A3A3A3BC
:10419300125EFBF9EEFAEFFB122090E96012126057
:1041A3007A60031241F0EEFAEFFB1214F075080087
:1041B300A9088067EE240CF582E43FF58322E045ED
:1041C3000AF0A3E0450B228882F583E0547FF0A335
:1041D300E054FC22F582E4350BF5831261E6EE220E
:1041E300A3E0F9850A82850B83125EF5221241F75B
:1041F30012464D22EE240FF582E43FF58322A3A35A
:10420300A3A312420922126229E0221242122212AD
:104213004726A3A3A3227403120B527F060208B8F6
:1042230074F412064674F7120C017E001220A2EAFF
:104233004B70030242D68A828B83A3A3A3A3A3A3B7
:10424300A3A3A3E0640660030242D68A828B83A3FE
:10425300A3A3A3A3A3A3E0FF8A828B83126808E02E
:10426300C0E07408120E49D0E01245FE125B0F1233
:104273005B221220B4EF5408605785188285198396
:10428300125BFC7A007B00122084EA4B70431268B5
:10429300717C007D007A007B0080228E828F8312E6
:1042A3005108F47003A3E0F460279019511242DB24
:1042B3001245E0601C7C007D00EEFAEFFB122084C7
:1042C3008A0A8B0BAE0AAF0BEE4F70CF7900121B2D
:1042D300A47E01EEF90234BC1242DF22E0FCA3E02B
:1042E300FD8E828F8322C082C0838A828B83E58284
:1042F300458370099019B680068A828B83A3A31223
:10430300450160208A828B83A3A3A3A3A3A3A3E075
:10431300540860E5EC4D60101245077003A3E06D8F
:1043230070D780047A007B0002527A74F212064638
:104333008A088B09890AECFEEDFF7A147B001214BC
:10434300EAEA4B60378A828B83A3A3A3A3A3A3A325
:10435300A3A3E412439FE50A1245EAEEF0A3EF128A
:10436300438F1246051243968A828B831268891201
:104373004382125F78A3124389F0A3F002421EEA3C
:10438300240FF582E422126844A3A3221245F0E429
:10439300F0A322A3F0126801125F78221243A32232
:1043A3001245F4A3A3A3A32274F5120646EAFEEB77
:1043B300FF890A8C088D09EA4F60757401697012D0
:1043C3007901122096E9F8902C71E493C398501563
:1043D300800A7404697009124438500979118052B3
:1043E300740269704B8E828F83A3A3A3A3A3A3A399
:1043F300A3A3E50A124447124B1D126102A3E4F082
:10440300A3F09019B6126081601880031261E288EC
:10441300828983A3A312450188828983A3A370ECB5
:1044230080039019B6EEF0A3EF12444E7900800298
:1044330079C10247397904122096E9F8902C70E487
:1044430093C39822126106A3A3A322F07A207B00D0
:1044530090199EE0F912149622C082C083E9F8797C
:10446300009019B6801D8A828B83A3A3A3A3A3A361
:10447300A3A3A3E068600574FF687001098A828BB7
:1044830083A3A312450170DE02527A74F712064623
:10449300EA4B70059019B680068A828B83A3A31218
:1044A3004501601F8A828B83A3A3A3A3A3A3A3A312
:1044B300A3E06970E4EC600F8A828B831244CD70B1
:1044C300D880047A007B000245DB126821E05404A3
:1044D30022C082C0839019B680068A828B83A3A3ED
:1044E30012450160128A828B83A3A3A3A3A3A3A370
:1044F300A3E06970E580047A007B0002527A125EC1
:10450300F5EA4B228A828B8312510C6C2274F212CD
:1045130006468A0A8B0B8C0C8D0D750800750900F5
:10452300EA4B602A9019B680068E828F83A3A3126A
:104533004558601AAC0CAD0DEEFAEFFB850A828587
:104543000B831207D1E9640170DF8E088F09AA0873
:10455300AB0902421EE0FEA3E0FFEE4F2274F71206
:1045630006469019B61261E27C007D00800DE8FCDE
:10457300E9FD88828983A3A31261E2E8496030EAF6
:10458300687002EB6970E79019B6125EF1E86A7021
:1045930002E96B88828983A3A370081261E29019F0
:1045A300B680091261E28C828D83A3A3125B228001
:1045B3002774F7120646EAFEEBFFEA4F6015122056
:1045C300AE12463912607A60031241F0EEFAEFFB45
:1045D3001214F08003120B527F010208B8125EF529
:1045E300121B98E9641A221245F0A3A3221245F480
:1045F30022F08A828B83A3A3A3A3221268441251BD
:104603000C221243A3A32274F61206469019B61283
:1046130061FE801412621B1246391241F0EEFAEF6A
:10462300FB1214F0AE08AF09EE4F70E89019B6E430
:10463300F0A3F00255EA8E828F831267F5F5831299
:10464300464D8E828F8312464D22E0FAA3E0FB1281
:1046530014F022C082C083EAFCEBFDEA4D6017EA46
:1046630024FBF582EB34FF12607F70071246ABE048
:10467300F4600712145A7905802B90199EE0C0E06C
:104683001246ABD0E0F0902C68E493F97AB87B192A
:10469300121490E96401700B7A007B201246BA79F8
:1046A300008002790402527AEA24FFF582EB34FF98
:1046B300F583227A207B0090199EE0F9121496224A
:1046C30074F4120646A2AFE433F508C2AF9019B8EA
:1046D3001245586038EE24FBF582EF34FF12607FF9
:1046E3007A007B2090199E60051246BD8005E0F993
:1046F30012149CE4F50AF50B780A120B3FEEFCEF5B
:10470300FD7AB87B1912148A7402120B52E508A2BF
:10471300E092AFEEFAEFFB0234C1124722E022121D
:10472300472622124730A3A3A3A3A3A322F08E827A
:104733008F8322120B527F030208B874F2120646CB
:1047430074FA120C01EAFEEBFF7508FE7509FF12FD
:104753002072E9600579110248C0124DE0603C9077
:104763001B41E0C43354E0F8E0333354FC48C0E069
:10477300EE1257EF3FF583D0E012623DFAA3E0FB60
:1047830079FF121E38EA4B60127508FFEE240F12F0
:104793004DE34404F0124DE0D2E0F08E828F831299
:1047A30048F96006EE2412126255EE2413124DE30B
:1047B300700D902C73E493C0E01248CFD0E0F08EDC
:1047C300828F83E0A2E7500454038019EE2414126D
:1047D3004DE37012901930E0C0E01248C5D0E0F00C
:1047E300901930E004F0EE2411124DE364017016C9
:1047F300901B2BE0600D90193BE0700A8E828F8333
:10480300E070031262528E828F83E064017013EEB4
:10481300240B12510264027009EE240F124DE3447B
:1048230040F0AC18AD19EEFAEFFB1220DE8A0A8BCA
:104833000B74FE6508700374FFF4700312621BEAC5
:104843004B60768E828F83E0C0E07401120E49D0F4
:10485300E0F07404120E49EEF0A3EFF0EE241E1202
:1048630061DC7402120E49125B227401120BD388AD
:104873000C890D780C120B3FEE24201248E2120B28
:10488300431248DD120987EE240E1248E2120B434D
:104893009019441209877408120E49E0F9AC08AD67
:1048A300091220D87408120B52E9FE74106E700BB3
:1048B300AA0AAB0B1214F080027E10EEF974060202
:1048C300421BEE2414F582E43FF58322EE1248D412
:1048D300222413F582E43FF58322EE1241F822F5F8
:1048E30082E43FF583E0F50C780C228E828F83A35C
:1048F300A3A3A3A3A3A3A3A31248FF22E0FAA3E0C5
:10490300FB12217AE922C082C08374D7120C019072
:1049130080927403120BE37426120A7E8A828B83BD
:10492300A3A3A3A31261E2740E120E4912608712AD
:1049330061E2740C120E49124A02240D1249F2C0AC
:10494300E0741A120E49D0E0F0125F7E1261E07437
:1049530020120E49124A0224151249F2C0E07408CB
:10496300120E49D0E0F0EA241CF582E43B1261E028
:104973007412120E49124A0224111249F2C0E07451
:1049830009120E49D0E0F0EA24121249F2C0E07491
:1049930007120E49D0E0F0EA241EF582E43B1261CF
:1049A300E07424120E49124A0224201249F2C0E094
:1049B3007426120E49D0E01249FA74FFF074011202
:1049C3000E4974FFF07402120E4974FFF09081E6F1
:1049D3001209837404120BE37407120BDB121CBE5F
:1049E3007404120B5279007429120B5202527AF595
:1049F30082E43BF583E022F085188285198322E85F
:104A0300F0A3E9F0EA2274F412064674EC120C01E6
:104A13008A0A8B0B8C088D09E9FF7E107A217B00B3
:104A23001214EA851882851983EAF0A3EB126091C8
:104A3300E8497003024B167C217D007900851882BA
:104A4300851983E0FA121442901951125EF1851808
:104A530082851983125C002409F582E438F58312F8
:104A6300603D7420120E491261E27411120E49E87E
:104A730012517112604338F5837402125174126833
:104A83000F740212515E124B1D1251741267ECEF38
:104A9300F07422120E4912511FF9A3E0C91264E601
:104AA30039F583E8124E34A3E0C9241FF582E439B3
:104AB300124B247423120E49125EF17406120E492E
:104AC30012603D7408120E49E8F07426120E491262
:104AD3006017C082C083740C120E49AC82AD83D0C0
:104AE30083D0827405120A7E7425120E49E0C0E059
:104AF3007413120E49D0E0F07900AA18AB191220F2
:104B030078E9640170047E00800985188285198321
:104B13001241F3EEF974140234BEE508F0A3E5097B
:104B230022F583E50AF0A3E50BF02274F0120646A2
:104B330074FF120C01EAFEEBFF8C088D098A82F5E3
:104B430083A37408F0EA2416124DE360088A828B6B
:104B530083A37410F0EA2417124DE360098A828B51
:104B630083A3E02408F0EA124DE160088A828B8374
:104B7300A3E004F08A828B83A3A3A3A3A3A3E0608F
:104B8300198A828B83A3A3A3A3A3A3A3E0C3332480
:104B930002F88A828B83A3E028F0EA2411124DEBFA
:104BA3006004740E8001E4F0901B39E06401701618
:104BB3008A828B83E06401600D9018BDE060071268
:104BC3004DCB74018004124DCBE4124E348A828B98
:104BD30083A3E0F8EA12308328298C828D83F0EADC
:104BE3002411124DE3600512540C29F085088285C7
:104BF3000983E0C394754009750C00750D00024DDF
:104C0300C2E0FA7B001214EA8A0C8B0DEA4B7003A4
:104C1300024DC28E828F83E0FA901941124E2D7499
:104C2300027808120CF4EA4508FAAB09EE241212D2
:104C33004E2774067808120CF4A808EA48FCEBFD2A
:104C4300124DE06004780180027800EE2416FAE445
:104C53003FFBE4C8F9ED49FDEE2411124DE3F508DD
:104C6300880974097808120CF4ED4509FD8A828BD2
:104C730083124E2D740B7808120CF4ED4509FDEEEA
:104C83002417124E27740C7808120CF4ED4509FD15
:104C93008E828F83A3A3A3A3A3A3124E2D740A789A
:104CA30008120CF4ED4509FDEE2423124E27740D72
:104CB3007808120CF4ED4509F9EC850C82850D8317
:104CC300F0E9A3F0EE2402124E0A124E49F0EE244C
:104CD30004124E0AA3A3124E49A3A3F0EE24131207
:104CE3004E1AF0EE2414124E1AA3F0750B088A82A2
:104CF3008B83E060151260F3125BFCE50C2408FA69
:104D0300E4350DFB1215EC750B10EE2417124DE371
:104D13006019125C7F125BFCA80BE50C28FAE435E2
:104D23000DFB1215EC7408250BF50B8E828F83A3F4
:104D3300A3A3A3A3A3E0604EEE2407F50EE43FF57F
:104D43000F850E82F583E0C0E0124DF9D0E0124EDC
:104D530039E0C0E008124DFBD0E0124E39A31260D7
:104D63006D120B3B850E82850F83E01250D3A80B87
:104D7300E50C28124DD5120B52850E82850F83E068
:104D8300C333250BF50B124DE06008C0E0124DF95B
:104D9300D0E0F01253C912606D120B3B123082FC4B
:104DA3007D007403120E49124E02E0F8E50C28F858
:104DB300E4350DF9E82AFAE439124DD9120B52AA57
:104DC3000CAB0D7401026056EA2423F582E43FF52F
:104DD3008322FAE4350DFB121436740322EE2415F4
:104DE300F582E43FF583E022F582E43FF583E08535
:104DF300188285198322A80BE50C281250E622E0BD
:104E0300FA8E828F83A322F8E43FF98882F583E048
:104E1300850C82850D8322F582E43FF583124E5380
:104E2300A3A3A322F582E43FF583E0F50875090007
:104E330022126832F922F0050B8E828F83A3A3A37B
:104E4300A3A3A3A3A322A3A3126229A3124E5322B3
:104E5300E0850C82850D83A3A3A32274030234BED1
:104E63001261E68E828F83A3A32274F01206467426
:104E7300FD120C011260377402120E49E9F08C0C1A
:104E83008D0D750B017C267D007900AA0CAB0D12EC
:104E930014427402120E49E0C39408500302505C9A
:104EA300124E12F0AC0CAD0D851882851983125188
:104EB30008FA85188285198312572E125405E96062
:104EC30003750B0085188285198312601712512907
:104ED300E0F9EA850C82850D83A3A3A3A3A3A3A36F
:104EE300A3A3F0A3E912515EA3A3125129A3A3E044
:104EF300F9E50C126096EA125171125BECC0E0E521
:104F03000C241112686AD0E01251742407F582E46C
:104F130038F583E0C0E0126866D0E012602A7408B6
:104F2300125155A3E06026851882851983E0240871
:104F3300F8A3E03400F9E50C2413F582E4350D12EF
:104F43005B20850C82850D83A3E02408F0850C8209
:104F5300850D83A3A3A3A3A3A3A3A3E0602A850C26
:104F630082850D83A385820E85830F125116F8A3C4
:104F7300E03400F9E50C1257EF350D125B20850E76
:104F830082850F83E02408F01250DAE4F01250EE29
:104F9300E4F0A312602AA3A3A3A3E0601112513A81
:104FA300850C82850D83A3A3A3A3A3125166E50CED
:104FB3001250FBE0700302504812513AFA1250DAD1
:104FC300EA125166F8851882851983E028FBA3E06D
:104FD30034008B82F583E0F8E50C241A12686AE842
:104FE300125166E8C39AE50C50561250F6F8902C0D
:104FF30069E493C39850047E0C8006E50C1250F6C6
:10500300FE850C82850D83125115F508A3E034004B
:10501300F509750A007808120B3BEE1250D37A5E3D
:105023007B0E124DDA120B521250EE745EF0A37423
:105033000EF0EEC333F8850E82850F83E0288004DB
:105043001250FBE4F0850C82850D83A3E0F8850CF8
:1050530082850D83E0C39850047900807012511546
:10506300FAA3E03400FBE50C12624C12686D126087
:105073003D850C82850D83E0C398C0E0E50C2417C1
:1050830012686AD0E0125155E06040E50C2417FE27
:10509300E4350DFF8E82F583E024F2F0E50C241D48
:1050A300F8E4350DF98882F583E0240EFAA3E034A1
:1050B30000FB8882898312603D90193CE0F9121F3E
:1050C300D0E9F88E828F83E0C398F0A90B02605475
:1050D30025E0FCE433FD22E50C1250E022241912F2
:1050E30050E622F582E4350DF58322E50C241B12EC
:1050F30050E6221250E0E0221260241250E922F519
:1051030082E43FF58312510C221261EBF58388820E
:10511300E022A312511A2212511F2822E0F8851807
:1051230082851983E022A3A3E0FA85188285198377
:1051330012601DA3A3A322850C82850D83A3858200
:105143000E85830F12511AFAA3E034008A82F58385
:10515300E02212602EA3A3A3A3A322125179F58305
:10516300888222F0850E82850F83E004F022F0A36B
:10517300E9125179C822126836F8A3E02274F412B6
:1051830006468A088B09EA125229A3A3F0EA1313ED
:10519300543F12521CA3F0EAC413131252291252A1
:1051A300337409780A120DD4125213A3A3A3A3A331
:1051B300A3F0EB125215125232740A780A120DD46C
:1051C300E50A5401C0E0EC1260243DF583D0E012FF
:1051D3005237740B780A120DD412521312523074D0
:1051E3000C780A120DD4125213A3125230740D7894
:1051F3000A120DD4E50A5401C0E0EC2424F582E43C
:105203003DF583D0E0F0740E7808120DD40234AD6E
:10521300E50A54018C828D8322125222A3A32254C5
:105223000F8C828D832254038C828D8322A3A3A3AC
:10523300A3A3A3A3F08A0A8B0B22C082C0837900A5
:105243008A828B83A3A3A3A3A3A3E090193B600E3D
:10525300E0701F8A828B83A3A3E070168012E06044
:1052630011125EE4901944E06A7003A3E06B6002DC
:1052730079018003125EF1D083D082020B0274F2B3
:105283001206468A0A8B0B890CECFEEDFF8A828B91
:1052930083E0FA125405850A82850B83A3A3125374
:1052A300F9E0F9EA8E828F83A3A3A3A3A3A3A3A305
:1052B300A312541E1253F9A3A3E0F91253C9EA121D
:1052C300541EA3A3E0C0E0EE2411F582E43FF5836E
:1052D300D0E0125425A3A3A3E0C0E0EE2412F5828C
:1052E300E43FF583D0E01261027408124447A3A39C
:1052F300A3E06017E50A2408F8E4350BF91248CF58
:10530300E8F0A3E9126102E02408F08E828F83A300
:10531300A3A3A3A3A3A3A3E060188E828F83A312E6
:1053230053E8EE2415125B1C850882850983E0246B
:1053330008F08E828F83A3A3A3A3A3E060248E82AD
:105343008F83A3858208858309E0F8E50A28F5821F
:10535300E4350B1253DDA3A3F0850882850983E0AE
:1053630004F0EEFAEFFB1220F0E9F50D70498E829E
:105373008F83A3A3A3A3A3A31253D7A37014E0F80B
:10538300E50A28FAE4350BFB1253BF12603DE50C26
:10539300801A1253E8E8240EF8500109EE241D1276
:1053A3005B1C12540CF9E50CC39924F2C398C0E0BA
:1053B300EE125C76D0E0F0A90D02421EEE241DF53C
:1053C30082E43FF58322EE1253CE22240BF582E4CE
:1053D3003FF58322E08E828F8322F583E08E828FD6
:1053E30083A3A3A322858208858309E0F8E50A281D
:1053F300F8E4350BF922E0FA850A82850B83A3A32F
:10540300A32212625E1220EA2290193CE0F9121FD5
:10541300D0E9F8850882850983E022F0A3E91254D4
:105423002522F0850A82850B83A3A3A3A322C0822E
:10543300C0837AC47B1979E2121B6E7AC47B19028A
:10544300527AC082C083901944025277C082C083CB
:10545300901947025277C082C083794A121B6E02A9
:10546300527A74F61206469019CCE0FE04F0EEF977
:105473001220A2EA4B70F0EE60EDF90255EA74F2E5
:10548300120646EAFEEBFF8C088D09890A1221E019
:10549300740E120E49E0F9740F120E49E0F8EA4B4C
:1054A3007012E8701BA90AAC08AD09EEFAEFFB1203
:1054B30021FE8065E86017E970068A828B83E4F039
:1054C3007401687054E99019CF7024E4801EE97068
:1054D30048EA24021249F2A80A28F8E4340013E83F
:1054E30013F070358A828B83A3A37401F0802AE0C2
:1054F30004F0901B28E0F89019CFE0C398401AE419
:10550300F0901947E06E7003A3E06F700CEEFAEFB2
:10551300FB7901121CE212551F02421E7A017B0025
:1055230090199EE0F91215BC2274F41206468A08FB
:105533008B098C0A8D0B9082027808120C2C700751
:105543007A011246B8801E901B157808120DE3EA03
:105553004B4C4D600D7808120B3712325C120B5214
:10556300800312551F0234C1C082C083901B1902ED
:105573003F69C082C083901B1B023F6974F6120609
:10558300467E007508307509197808120B3F7C6E4A
:105593007D007A217B001215627402120B52E964BA
:1055A3000A70027E01121C40E9640A7004EED2E123
:1055B300FE900487126081600F12572F1207D1E902
:1055C300640A7004EED2E3FE121E5CE9640A7004FE
:1055D300EED2E4FE121AF0E9640A7004EED2E5FE9C
:1055E300EEF98003120B527F020208B874F612061A
:1055F300461214067508307509197808120B3F75A1
:10560300086E7509007808120B3F12562C120B52C4
:10561300121C46900489126081600612572F1207EC
:10562300D1121E62121B0280BE7C007D007A217B98
:105633000012156E74042274F612064674FF120CDF
:10564300017E007508307509197808120B3F7C6ECE
:105653007D007A217B001215627402120B52E960FD
:10566300030257067808120B3F75086E8E097808F7
:10567300120B3F7C007D007A217B001215747404A9
:10568300120B52E9707D901944E064FE7003A3E0AD
:10569300F460707E01901953E064086005E06404CF
:1056A300705C851882851983EE1257467A5B7B19E5
:1056B3007943121B747A587B197947121B747A4900
:1056C3007B19794A1257217A517B197950121B742D
:1056D3007A447B197953121B747A597B19795412C2
:1056E3001B747A467B1979E1121B7490193EE0A270
:1056F300E35004D2F08002C2F01257338005121433
:10570300067E00121C3490048B12608160061257CF
:105713002F1207D1121E6EEEF974010255E7121B08
:10572300747A477B19794B121B7422A312601E22D1
:10573300A2F0E4338518828519831257A579521292
:105743001B74221257A57942121B742274F6120697
:1057530046E9FEA2E0501C75083075091978081255
:105763000B3F75086E7509007808120B3F12562C13
:10577300120B52EEA2E35003121C3AEEA2E2500EB9
:1057830090048D126081600612572F1207D10255C3
:10579300EA1220547AA17B197945121B74221257FD
:1057A300A522F0AA18AB192274F712064674ED125B
:1057B3000C01E9FE90199DF0AC18AD191257D7747E
:1057C30012120E49EE1257E4AA18AB191257947429
:1057D300130245D8901B57E0F97AA17B1912205A7E
:1057E30022F0901B57E0F97CA17D19222415F58244
:1057F300E4221268023509F58322EFFB90199EE03B
:10580300F912146022EE241612580F22F582E43F97
:10581300F5837401F0221268013FF58312582322A5
:105823001261EBF98882F5832274F41206468A0822
:105833008B097A007B041255231258CE90195374A6
:1058430009F0125E6612392D125EF1125E72640166
:1058530070677A0F7B001214548A0A8B0BAF0BEA22
:105863004F60568A828B837402F0E50812624C35CE
:105873000912626AFC88828983A3A3E0FBEC8A8213
:105883008F83A3A312603E88828983A3A3A3E08AA4
:10589300828F831258BFFAA3E0FB794A121B7485E7
:1058A3000882850983A3A3A3A3A3A3E0700690178B
:1058B300CC7405F0AA0A1257FD0234C1A3F0E5081F
:1058C3002415F582E43509F583E0229018D9126195
:1058D300E6901B1BE8F0A3E9F09018DB1261E69059
:1058E3001B19E8F0A3E9F02274F412064674FD12C2
:1058F3000C018A088B097401120E49740212612388
:1059030070030259C61258197404F0A3E41259E340
:10591300E06401700888828983A37420F08508827B
:10592300850983A3A3A3A3A3E064017009888289E3
:1059330083A3E0D2E6F0850882850983A3A3A3A30A
:10594300A3A3E06401700A88828983A3E0D2E7807D
:1059530006EA1248D074011259DEE0640170208512
:105963000882850983A3A31260816004EA1258099F
:10597300850882850983A3A31261E2EA125B1A8573
:105983000882850983A3A3A3A3A3A3A3E06401704F
:1059930009EA240F12580BA3E4F0850882850983D2
:1059A3001248FB6009EE240F124DE34404F0125930
:1059B300EF8508828509831259CB1259D512622FBC
:1059C300F980027910024E5EE0F8A3E0F98E828F2F
:1059D3008322A3A3E8F0A3E9F0EE221259E3A32262
:1059E300F0850882850983A3A3A3A322EE125C6436
:1059F3002274F512064674F3120C01890AEAFEEBCF
:105A0300FF7508007509007C0D7D007900AA18ABAD
:105A1300191214421253BF125C09741F58600C7A96
:105A2300D37B0012197C7900025B05E8A2E55008DC
:105A3300740C120E497401F0E8A2E75008740B12BB
:105A43000E497401F0E8A2E6740A5008120E497474
:105A530001F08008120E49E0640170138E828F8377
:105A6300A3A3A3A3A3A3A3E06036EE241380128E03
:105A7300828F83A3A3A3A3A3A3A3A3E06022EE2403
:105A830015F582E43FF583126221E50845096010AC
:105A9300AC08AD097402120E49AA82AB831215EC4D
:105AA3001253C9125B0A125B22740A120E49E06494
:105AB300017046901B4CE0604764017006901B35F3
:105AC300E0603DEE240B1261DC901947E06870033F
:105AD300A3E069702B1248EE7026E50845096019AA
:105AE3001220FC8A088B09AC08AD097402120E4916
:105AF300AA82AB83125E726007AA18AB19121CDC70
:105B0300A90A740D024736125B0E22E0F8A3E0F9EE
:105B1300851882851983222418F582E43FF583E8EA
