:020000040000FA
:0600000002104A0205CACD
:030013000206865C
:03002B00020DA91A
:03003300020B2994
:03003B000206DBDF
:03004300020CC5E7
:030053000204F9AB
:03006B00020B0085
:1000830002055B010100F0FF0700080000FFFF000D
:1000930000050400000003000147726F757000FF44
:1000A3000400100020FD000206FFFF1EB81A000026
:1000B30000000000000000000000000000003C0001
:1000C300010401020301032E81000000010400006A
:1000D300BE17000000E8030000FFFF0F180188139C
:1000E3000000E803000064006400B801A0BB0D0039
:1000F300A0BB0D00020202070401051E02051E0239
:100103000A0A010108080103B80B02803E0102FE3E
:10011300FFE8030A050001FFFF020A011401E005DD
:10012300030101FF0FA32C00000000D92B000000E6
:1001330000FF000000FF00121069604612105A60B1
:100143003DE9687008F618F618F618F62274806709
:10015300F712016E090909748067F72212105A60B9
:100163001D1210697005191919801A120F22701FB8
:10017300120F36C37003E6673319191940071818AD
:10018300182208080874FFF618F618F618F6221253
:100193000F366017121113702192F012110A7019A1
:1001A300501720F014080808090909E7F61819E799
:1001B300F61819E7F61819E7F62212110A60E6E8AD
:1001C30069701F0808E62480F608E436F618547FA1
:1001D300B47F0CE654806007F6E418F618F622188C
:1001E3001822E9C6CC08C6CD08C6CE08C6CFC0E0E3
:1001F300E8C0E0EAC0E0EBC0E009E9F809E7FA0982
:10020300E7FBE6F918E6F8C3EC98ED99EE9AEBC232
:10021300E7F5F0EFC2E795F0500E600CEBCFFBEA89
:10022300CEFAE9CDF9E8CCF8EAA2E7D2E7FAEB3364
:10023300FB13F5F0EEA2E7D2E7FEEF33FFC5F013B1
:10024300A2E730E601B313C5F0C3C0E0C0F07F00FE
:10025300C39BFB605E9418600F401D14601AD0E0CE
:1002630023F9D0E0F80203408AF0E9486003D2F0B2
:10027300E4AFF0FAF9F8803BEB30E40D89F0EA6083
:1002830003D2F0E4AFF0F9CAF8EB30E30D88F0EFF6
:100293006002D2F0AFF0E4CAC9F8EB54076014FB74
:1002A300C3EA13FAE913F9E813F8EF135002D2E0A3
:1002B300FFDBEDD0E0C0E030E739C3E49FFFF5F0AA
:1002C300EC98FC42F0ED99FD42F0EE9AFE42F0D03C
:1002D300E0F9D0E0F8E5F0607AE923F9EE20E742AF
:1002E300D8028067C3EF33FFEC33FCED33FDEE330D
:1002F300FE80EAEC28FCED39FDEE3AFED0E023F96E
:10030300D0E0F84002801BC3EE13FEED13FDEC13A7
:10031300FCEF135002D2E0FF08B800067F7F74FFA2
:10032300802EEF3350178CF020F00260100CBC00CD
:100333000C0DBD00080EBE000408E860DFE933E8D9
:1003430013FFEE2313FE4F4D4C8008E95480FFE466
:10035300FEFDFCEE33EF33F47004FCFD7E80D0E051
:10036300FBD0E0FAD0E0F8D0E0CFC618CEC618CD67
:10037300C618CCC6F9220012105A604F12106960D9
:1003830012E7548066F6120F227011121113703B9C
:10039300090909F4F618F618F618F622120F367042
:1003A3001512110A08080860EAE6447FF6187680F9
:1003B30018E4F618F62212110A60161211137012BD
:1003C300E4F608F608F608E65480F6090909181851
:1003D3001822EAC0E0EBC0E0ECC0E0EDC0E0E68745
:1003E300F0A4FBACF008E687F0A42CFCE435F0FAAB
:1003F3001809E687F0A42C4B60027401CA35F0FC9F
:10040300E433FB09E687F0D2F7A42CCB35F0FC19D3
:1004130008E687F0A42BCC35F0FBE433FD0819E69E
:1004230087F0D2E7A42C4ACB35F0CD3400FC09E6A3
:1004330087F0D2E7A42DCC35F0FDE433FA0918E6B2
:1004430087F0D2F7A42CCD35F0CA3400FC08E68738
:10045300F0D2E7D2F7A42ACC35F07A7E20E70B0A54
:10046300CB33CBCD33CDCC33CC33CB33501470041F
:10047300ED30E00ED2F1E4CD3DCDCC3CCC3B50058C
:10048300DA05C2F1EB547FC63308E63392F0FBE79B
:100493003309E733C39A502D2B70190C0D4C4D7053
:1004A300151806E608C333700D20F10AA2F013F6FF
:1004B300E418800B4024E4F630F002768018F61836
:1004C300F618F68024D33B14501074FFA2F013F6F1
:1004D300187680E418F618F6800FA2F013F618E6E3
:1004E3003303F618ECF618EDF6D0E0FDD0E0FCD0BF
:1004F300E0FBD0E0FA22C0E074F112095BA2AFE4A2
:1005030033F509D2AF85A708AFA1EF5508FE7410E4
:100513005E600612143A75A1EF74085E6008121447
:100523004075A1F78024EFA2E092F0E508A2E082F3
:10053300F05017906198E0F8900A0CE0C398A2D2AB
:1005430065D0335002E8F075A1FE751A00E509A2E3
:10055300E092AF7F020209BAC0E074F212095BA213
:10056300AFE433FED2AF9061A4E0F8759B00E59150
:1005730058540860087591F712148E8023E591583A
:10058300541060087591EF1214948014E591A2E061
:1005930092F0E8A2E082F05007E0C2E0F01215F614
:1005A3009061A3E0F8E5E9585404600E1215CC7588
:1005B300E9FB906193E0A2E640F2751A00EEA2E037
:1005C30092AF7F010209BAC0E074F212095BA2AFD5
:1005D300E433FED2AF9061A5E0F8E5BF5854046060
:1005E3000675BFFB12160E80D1C3E498F8E499F99F
:1005F30012062D8026C3E49AFAE49BFBE920E7E97F
:1006030012062DE498F8E499F922C3E498F8E499E2
:10061300F912062DE498F8E499F9C3E49AFAE49BF5
:10062300FB22EB20E7CFE920E7E0B90010BB00088D
:10063300E88AF084F8AAF022E4FBC8FA22EB7022DD
:100643007B10C833C8C933C9335007C39AC3DBF21D
:1006530080069A50012ADBEAC833F4C8C933F4C9C7
:10066300FA2275F008E4C833C8C933C933C99AC933
:100673009B5004C92AC93BD5F0ECFBC833F4C8E44A
:10068300C9FA22C0E0C0D0E8C0E0E9C0E0C082C03F
:1006930083A8C1E8C0E0900979E0F874F828F582EE
:1006A300E43408F583D0E0F0900978E0F8A3E0683B
:1006B3007006E59590097BF0900979E004F0C39406
:1006C300804002E4F0A374C6F0D083D082D0E0F976
:1006D300D0E0F8D0D0D0E032C0E0C0D0E8C0E0E94C
:1006E300C0E0C082C0839009FCE0F8A3E068700812
:1006F300539AFBA374018022C2E99009FCE0F874C9
:100703000128F0747C28F582E43409F583E0F5C10F
:100713009009FCE0C394804002E4F080AC08080830
:10072300EAC0E0EBC0E086F0E7A4FA180986F0E738
:10073300A42AFA180986F0E7A42AFA180986F0E72A
:10074300A42AFA1986F0E7A4FBE5F02AFA19088629
:10075300F0E7A42BFBE5F03AFA190886F0E7A42B9F
:10076300FBE5F03AFA18180986F0E7A4C5F02BFB6D
:10077300E43AFA1908E7C5F0C6A426F6E5F03BFB10
:10078300E43AFA1886F0E7A4F6E5F00826F6E43B27
:1007930008F6E43A08F6D0E0FBD0E0FA22080808AD
:1007A300E630E711120EFA1207B8080808C64480AB
:1007B300C618181822181818E9799EC608CAC60858
:1007C300CBC608CCC6C370207996CACBCC70197936
:1007D3008ECBCC70137986CC700EF9802ACA33CABB
:1007E300CB33CBCC33CC331930E7F2CCCBCA335039
:1007F300147004EA30E00DE4CA3ACACB3BCBCC3CDC
:10080300CC500209C3E913C6CC182313C6CB18C6B0
:10081300CA18C6F922E4CFC0E0E4CEC0E0E4CDC0FC
:10082300E0E4CCC0E075F020E626F608E633F608EF
:10083300E633F608E633F6181818EC33FCED33FD0F
:10084300EE33FEEF33FFC3EC9709ED9709EE9709FB
:10085300EF97191919400FFFEC97FC09ED97FD0964
:10086300EE97FE191906D5F0BFECF709EDF709EE7F
:10087300F709EFF7191919D0E0FCD0E0FDD0E0FE3D
:10088300D0E0FF222518C582C0E0E51934FFC583F7
:10089300C0E0E518C3958224F810AF088583198555
:1008A30082188008858319858218D2AFCEF0A3E51C
:1008B30020F0A37808E608F0A3DEFAEFF0A3E581C1
:1008C30024FAF8E608F0A3E608F0A3E608F0A30884
:1008D30008E608F0A3E608F0A315811581D0E0FE31
:1008E300D0E0F8158115811581E8C0E0EEC0E02263
:1008F3001210E2B90003020945E490040178AE79CD
:10090300178002F0A3D8FCD9FA781A9000867A01EE
:10091300BA00028007E493A3F608DAF97AAE7B1AE9
:1009230090008778B479018015E493A3AD82AE83F8
:100933008A828B83F0A3AA82AB838D828E83D8E9CC
:10094300D9E77582927583897405120D8B7582467A
:100953007583297400120D8BC0D02518C582C0E0A1
:10096300E51934FFC583C0E0E518C3958224F3106D
:10097300AF088583198582188008858319858218B5
:10098300D2AFC8F0A3E9F0A3EAF0A3EBF0A3790890
:10099300E709F0A3D8FAECF0A3EDF0A3EEF0A3EF90
:1009A300F0A3D0E0F0A3D0E0F0A3D0E0F0A3E520E3
:1009B300F0A3E5F0F0A322851983851882E0C0E057
:1009C300A3E0F9A3E0FAA3E0FBA37808E0F608A309
:1009D300DFFAE0FCA3E0FDA3E0FEA3E0FFA3E0C099
:1009E300E0A3E0C0E0A3E0F5D0A3E0F520A3E0A3FB
:1009F300F5F010AF0885831985821880088583195F
:100A0300858218D2AFD082D083D0E0F8D0E032E430
:100A13007375F0108E218F22858226858325851894
:100A230082851983E0CEA3E0CF852682852583EBDB
:100A3300C9EAC8EDCBECCAC3E833C8E933C9EA3322
:100A4300CAEB33CBC3EA9EF524EB9FF523B35004E3
:100A5300AB23AA24EC33CCED33CDD5F0DAAE21AF02
:100A6300222212105A601C121069601712110A70A8
:100A7300071211137001D322C0D01211137006D0C4
:100A8300D0B322C32233D0D0501430E0F6C3E7965C
:100A93000809E7960809E7960809E796B32220E0D4
:100AA300D5E6970809E6970809E6970809E697B394
:100AB30022D083D082ECC0E0EDC0E0E493A3FCE459
:100AC30093A3FDED4C600D120BD3EC24FFFCED342E
:100AD300FFFD80EFE493A3FCE493A3FDED4C600DD5
:100AE300120C70EC24FFFCED34FFFD80EFD0E0FD31
:100AF300D0E0FCE493A3C0E0E493C0E022C0E07440
:100B0300F212095BA2AFE433FED2AFE589A2E15052
:100B130003121314758900C2C5751A00EEA2E09280
:100B2300AF7F010209BAC0E074F212095BA2AFE41D
:100B330033FED2AFE58BA2E05003121314758B0082
:100B4300C2E880D5851983851882E0A3FEE0A3F56A
:100B5300207808E0A3F608DFFAE0A3FFE0A3C0E0F3
:100B6300E0A3C0E0E0A3C0E0E0A3C0E0E0A3C0E0F6
:100B730010AF0885821885831980088582188583BC
:100B830019D2AFD083D082020D91D083D082E9C035
:100B9300E0E493A3C386F0C5F095F0F908E493A3CA
:100BA30086F0C5F095F0700BE493A3C3994005E973
:100BB300048002A3E475F002A42582F582E5F035F2
:100BC30083F583D0E0F9E493A3C0E0E493C0E0228B
:100BD300C0E0C3E49396087401939618400FE4931E
:100BE30066700808740193661870007019A3A3C394
:100BF300E49396087401939618A3A3400DD0E0D014
:100C0300E0D0E0020AF0A3A3A3A3A3A3D0E022743D
:100C130004800474028000CCC0E0EDC0E0E518C39A
:100C23009CCCAD1950011D10AF068C188D19800690
:100C33008C188D19D2AF120D0DD0E0FDD0E0FC223F
:100C430074028000CCC0E0EDC0E0E518C39CCCADDD
:100C53001950011D10AF068C188D1980068C188D44
:100C630019D2AF120CEBD0E0FDD0E0FC22C0E0C003
:100C7300F088F0E4936670080874019366187000B6
:100C8300A8F0A3A3700BD0F0D0E0D0E0D0E0020A2C
:100C9300F0A3A3D0F0D0E022D083D082CCC0E0E494
:100CA30093A36006120D4D1470FAE493A360061229
:100CB3000E901470FAD0E0FCE493A3C0E0E493C078
:100CC300E022C0E074F212095BA2AFE433FED2AFBC
:100CD300C2C0E5D1A2E450031213B0751A00EEA20C
:100CE300E092AF7F010209BACAC0E0E493A3C582D0
:100CF300CCC582C583CDC583F0A3C582CCC582C5CF
:100D030083CDC583DAE5D0E0CA22CAC0E0E0A3C53B
:100D130082CCC582C583CDC583F0A3C582CCC582F1
:100D2300C583CDC583DAE6D0E0CA22700908080876
:100D3300226016181818C6C333C608C633C608C6B9
:100D430033C608C633C6D5E0EA22C0E0E493A3D392
:100D53009C5010E493A3C39C400AD0E0D0E0D0E0C1
:100D6300020CB8A3A3A3D0E022C008C3E096F50801
:100D730008A3E096420808A3E096420808A3E09679
:100D830045087001D3D00822C09FF59FE473D09F1C
:100D930022D083D082C09FE493C0E0740193C0E06B
:100DA300740293F59F22C0E0C0D0E8C0E0A8A8D2A7
:100DB300AFC2C7751A00E8A2E792AFD0E0F8D0D06F
:100DC300D0E0327404800A740380067402800274D3
:100DD30001C0E0F404120DFCD0E01210A52200C003
:100DE300D0251810AF08F518500C05198008F51810
:100DF30050020519D2AFD0D0222518F58210AF08C2
:100E0300F518400C15198008F51840021519D2AFD2
:100E130085198322BB0102E722C082C08389828AAB
:100E230083BB0003E08002E493D083D08222601668
:100E3300080808C6C313C618C613C618C613C618AF
:100E4300C613C6D5E0EA22C3E0C696F608A3E0C6F9
:100E530096F608A3E0C696F608A3E0C696F6222502
:100E630018F8E43519F9222518FAE43519FB222577
:100E730018FCE43519FD22251810AF08F518400CAD
:100E830015198008F51840021519D2AF22C0E0E405
:100E930093A36C7009D0E0D0E0D0E0020CB8A3A318
:100EA300D0E022E066701008A3E066700A08A3E0B1
:100EB30066700408A3E06622C3E09608A3E09608E0
:100EC300A3E09608A3E096A2D265D03322C3E796A7
:100ED3000809E7960809E7960809E796A2D265D0BC
:100EE3003322E76670100809E766700A0809E766A7
:100EF30070040809E76622181818E4C396F608E494
:100F030096F608E496F608E496F622C3E096F0080F
:100F1300A3E096F008A3E096F008A3E096F0221869
:100F23001818E60846087009E626087005E633F443
:100F3300220822191919E70947097009E7270970D7
:100F430005E733F4220922C3E697F60809E697F684
:100F53000809E697F60809E697F622C3E49396088C
:100F6300740193960874029396087403939622E689
:100F730027F60809E637F60809E637F60809E637DB
:100F8300F622700422600D18C6C333C608C633C6E2
:100F9300D5E0F41822E657F60809E657F60809E6FD
:100FA30057F60809E657F622E026F608A3E036F6D8
:100FB30008A3E036F608A3E036F622E026F008A3FD
:100FC300E036F008A3E036F008A3E036F022E0565E
:100FD300F608A3E056F608A3E056F608A3E056F693
:100FE30022E056F008A3E056F008A3E056F008A369
:100FF300E056F022E647F60809E647F60809E64711
:10100300F60809E647F622600D08C6A2E713C618DC
:10101300C613C6D5E0F322C6F4C608C6F4C608C68E
:10102300F4C608C6F4C622C3E09608A3E09608A354
:10103300E09608A3E09622C3E7960809E796080915
:10104300E7960809E7962275D00075813F75180168
:10105300751904000208F3E6084608C3134608336B
:101063006002E633F422E7094709C31347093360F3
:1010730002E733F422600C08C6C313C618C613C6AE
:10108300D5E0F422E6F008A3E6F008A3E6F008A30F
:10109300E6F022E0F608A3E0F608A3E0F608A3E0F2
:1010A300F622CAC0E0E6F0A308DAFAD0E0FA22E0BA
:1010B300FAA3E0FBA3E0FCA3E0FD22EAF0A3EBF03C
:1010C300A3ECF0A3EDF022E0F8A3E0F9A3E0FAA388
:1010D300E0FB22E8F0A3E9F0A3EAF0A3EBF022E5BA
:1010E300C754F84401F5C77901222518F582E43580
:1010F30019F58322E9F874FF28F90470F722C2AFC7
:1011030075D69F02000022E6261846184618462286
:10111300E72719471947194722120D94CBE4011207
:101123000D94FBE401120D9448E501120D94D1E5F1
:1011330001120D9478E601120D94C9E601120D9483
:101143000DE701120D94B1E701120D941EE801128F
:101153000D944DE801120D9460E901120D9489E993
:1011630001120D94E4E901120D94B6EA01120D94F3
:10117300DCEC01120D948AED01120D9432F0011290
:101183000D94B7F001120D9498F301120D94CDF55F
:1011930001120D940BF601120D9465F701120D94D3
:1011A30078F701120D94B9F701120D944CF901125D
:1011B3000D94F1FA01120D947DEC03120D94F9ECE8
:1011C30003120D942CED03120D945AED03120D949A
:1011D3009FEF03120D94BEEF03120D9403F003125D
:1011E3000D9499F003120D94E5F003120D9477F129
:1011F30003120D9450F203120D94A1F203120D94F5
:1012030006F303120D9479F303120D94BDF3031245
:101213000D9415F403120D9437F403120D94C7F4CF
:1012230003120D9458F503120D94A4F503120D94B3
:10123300D0F503120D9411F603120D94A9F70312BE
:101243000D9495F803120D9477F903120D94AD954F
:1012530005120D94BE9505120D945C9605120D941E
:10126300769605120D94F6FF02120D94E4FF041214
:101273000D94E79305120D94F79305120D941294B0
:1012830005120D94C69405120D94E29105120D9466
:10129300669205120D94CE9205120D9473F2041208
:1012A3000D94A7F204120D94D3F204120D94FDF2DF
:1012B30004120D9421F304120D9469F304120D9496
:1012C30090F304120D94D5F304120D946AF40412EE
:1012D3000D94FFF404120D9434F504120D9459F592
:1012E30004120D9485F504120D94C0F504120D94A7
:1012F300F3F504120D942BFE02120D944AFE021212
:101303000D94B0FE02120D94CFFE02120D9414FF41
:1013130002120D946DFF02120D94ACFF02120D9494
:10132300AFFF02120D94B39005120D94C8900512ED
:101333000D943C9105120D94569105120D946D91E7
:1013430005120D94809105120D94989105120D9438
:10135300AD9105120D9486E604120D9494E60412E1
:101363000D940DE704120D94E2E704120D94B4E911
:1013730004120D9419EA04120D9480EA04120D94D8
:10138300F87F00120D94858705120D94BD87051211
:101393000D940B8905120D948F8905120D94B5F9DF
:1013A30004120D9421FA04120D9496FB04120D9469
:1013B300FDFB04120D944AFC04120D94CEFC04129E
:1013C3000D9403FD04120D9426FD04120D9451FA9D
:1013D30003120D947DFA03120D9414FD03120D9460
:1013E30054FD03120D9490FD03120D94A4FD0312FA
:1013F3000D94BDFD03120D94AEFE03120D9460FF18
:1014030003120D9474FF03120D94818B05120D9436
:10141300A58B05120D94BE8B05120D94FC8B051242
:101423000D942C8C05120D94598C05120D94638C1C
:1014330005120D94C98C05120D94CC8C05120D94D4
:10144300D68C05120D94E38C05120D943DFD041208
:101453000D945DFD04120D949CFD04120D94BAFDD0
:1014630004120D94D5FD04120D943BFE04120D9449
:1014730047FE04120D94A4FE04120D94B3FE04124D
:101483000D94D7FE04120D9498FF04120D94A5FF3A
:1014930004120D94B6FF04120D94B6FF01120D94BD
:1014A300CEFF01120D94FAFF01120D94EAD8041233
:1014B3000D943EDA04120D944CDA04120D945FDAA3
:1014C30004120D9474DA04120D9489DA04120D9443
:1014D3009CDA04120D9418DB04120D947DDB0412C4
:1014E3000D9405DC04120D947DDC04120D9456DD7D
:1014F30004120D9466DD04120D9475DD04120D942F
:10150300B79805120D94DB9805120D9403990512F3
:101513000D942B9905120D94F28205120D941983E3
:1015230005120D94378305120D94A68305120D94AD
:10153300B67C00120D94CF7C00120D94DB7C00125C
:101543000D94EF7C00120D940D7D00120D94177D08
:1015530000120D94217D00120D94347D00120D9420
:10156300BE7D00120D94337E00120D94677E00122F
:101573000D94B57E00120D94027F00120D941D7F11
:1015830000120D94277F00120D944D7F00120D94CD
:10159300B27F00120D94D39405120D94F5940512A5
:1015A3000D94839505120D94D8FF03120D943BC23D
:1015B30004120D9467C204120D9484C204120D9494
:1015C30097C204120D94B2C204120D940CC30412F8
:1015D3000D943AC304120D944EC704120D94ACC873
:1015E30004120D94DEC804120D9441C904120D9423
:1015F300C6CA04120D94EECA04120D9403CB04124E
:101603000D9413CB04120D9453CB04120D9495CB6C
:1016130004120D94A5CB04120D94838F05120D941F
:101623009D8F05120D94C58F05120D94DE8F051243
:101633000D94029005120D94209005120D9437908D
:1016430005120D94659005120D94809005120D946A
:101653005B9705120D949F9705120D942CF60412B7
:101663000D943CF604120D9441F704120D9473F794
:1016730004120D94A3F704120D94C6F704120D94EB
:10168300DDF704120D9417F804120D947CF804127C
:101693000D94BEF804120D9405F904120D9432F959
:1016A30004120D945DF904120D94ED8C05120D9442
:1016B300FF8C05120D94138E05120D94168E0512D0
:1016C3000D94859605120D94BB9605120D94FD9607
:1016D30005120D940D9705120D94519705120D9453
:1016E300D5CB04120D940FCC04120D9478CC0412B4
:1016F3000D9497CC04120D9439CD04120D9442CD60
:1017030004120D9493CD04120D94BCCD04120D94C8
:10171300C9CD04120D943ACE04120D94C8CE04120E
:101723000D9416CF04120D944CCF04120D94ADCF2B
:1017330004120D94D6CF04120D944DD004120D94BF
:10174300A9D004120D94E6D004120D941DD10412F5
:101753000D942FD104120D9441D104120D9460D134
:1017630004120D9469D104120D9429D204120D941C
:1017730075D204120D94B3D204120D94438E051244
:101783000D9488FF03120D94478505120D947D85F2
:1017930005120D94C58505120D941E8705120D942F
:1017A300008004120D94318104120D946D81041292
:1017B3000D94278304120D94518304120D94CA854A
:1017C30004120D940A8604120D949E8704120D943C
:1017D3003D8804120D94958804120D9428890412EF
:1017E3000D94628904120D94A48904120D94178B2D
:1017F30004120D94978C04120D94D48E04120D943C
:10180300028F04120D942E8F04120D94378F04123D
:101813000D94948F04120D94249004120D946093EC
:1018230004120D94E29304120D940D9805120D9475
:10183300259805120D942F9805120D94859805127D
:101843000D9416E204120D942CE204120D94CDE2D1
:1018530004120D940CE304120D9429E304120D9465
:101863005AE304120D94A7E304120D94DBE304126C
:101873000D9416E404120D9413E604120D9479E604
:1018830004120D94E79205120D94469305120D94DC
:10189300849305120D94C59305120D9494EA0412D2
:1018A3000D9404EC04120D94EEEC04120D9422ED4D
:1018B30004120D9474ED04120D94BD7F00120D9467
:1018C300C87F00120D94DA7F00120D94EB7F001293
:1018D3000D94DFD204120D943BD304120D9466D3FE
:1018E30004120D94BBD304120D9453D504120D941A
:1018F300A3D504120D94FDD504120D9450D60412F1
:101903000D94F5D604120D949BD704120D94008008
:1019130002120D940C8002120D946E8002120D942B
:10192300788002120D94058102120D9441810212F6
:101933000D942D8202120D948C8202120D94158344
:1019430002120D94828302120D94CC8302120D9421
:10195300478402120D94FE8502120D94C48702126D
:101963000D94CA8802120D94D18902120D94328CFF
:1019730002120D94A78D02120D94448E02120D943F
:10198300908F02120D94909002120D940292021203
:101993000D94999602120D94839702120D94059853
:1019A30002120D942A9802120D944F9802120D946C
:1019B300EA9802120D94089902120D9426990212C4
:1019C3000D94979902120D94B69902120D94E3990E
:1019D30002120D94E49A02120D94CD9B02120D94FF
:1019E300649D02120D94859D02120D942B9E02128A
:1019F3000D94729E02120D94E49E02120D94679F41
:101A030002120D94CC9F02120D9429A002120D9480
:101A1300CCA002120D9441A102120D947CA10212DA
:101A23000D94DEA102120D9441A302120D94D1A4D0
:101A330002120D9478A502120D94D0A702120D94F0
:101A43001AA802120D942FA802120D9480A8021254
:101A53000D94F1A802120D9421A902120D9492A9DA
:101A630002120D9431AA02120D9446AC02120D9487
:101A7300DCAE02120D94E9AF02120D94EAB3021226
:101A83000D94B4B402120D94D1B502120D9485B71E
:101A930002120D948CEE04120D94BCEE04120D94FC
:101AA3001CEF04120D9431F004120D944CF0041247
:101AB3000D944CF104120D9499F104120D94A5F1B7
:101AC30004120D944EF204120D94B8FF02120D94F9
:101AD3003F9404120D94F79404120D94709504121C
:101AE3000D946C9604120D94769704120D9400983D
:101AF30004120D942C9904120D944D9904120D9413
:101B0300F19904120D94149B04120D94C29B0412B8
:101B13000D943E9F04120D9443D703120D9472D774
:101B230003120D94EAD703120D94F9D803120D94FE
:101B330055D903120D94CCDA03120D94E8DA03128B
:101B43000D943ADB03120D947DDB03120D9490DBAD
:101B530003120D94E8DB03120D94AADC03120D9417
:101B630018DD03120D944FDD03120D9487DD03126C
:101B73000D9419DF03120D94F8DF03120D9446E15F
:101B830003120D9429E203120D94B5E203120D948E
:101B9300F5E203120D9414E303120D945FE30312B1
:101BA3000D947FE303120D9418E403120D94A7E43C
:101BB30003120D9402E503120D9442E503120D94F2
:101BC300BFE703120D94E3E803120D9429E903120E
:101BD3000D941EEA03120D9446EA03120D9449EA8A
:101BE30003120D9453EA03120D946FEA03120D943A
:101BF300F7EA03120D9430EB03120D945CEB03121E
:101C03000D9483EB03120D94A7EB03120D9418ECC0
:101C130003120D942BEC03120D945EEC03120D943E
:101C2300509905120D945C9905120D949A99051219
:101C33000D94FDFF01120D94F4C003120D9417C10E
:101C430003120D9464C203120D943BBE04120D944F
:101C53000BC303120D9471C303120D9474C30312C7
:101C63000D94C5C303120D943FC403120D940FE4E6
:101C730001120D94C5C403120D944DC503120D94A6
:101C830090C503120D94B3C903120D9464CB0312D0
:101C93000D94A5CB03120D941CCF03120D944AD0BF
:101CA30003120D94C7D103120D944DD203120D9458
:101CB3003FD303120D94C2D503120D94376C001257
:101CC3000D94D76C00120D94436D00120D945E6D4C
:101CD30000120D94E86D00120D94416E00120D94E4
:101CE3008C6E00120D94F36E00120D94747000123A
:101CF3000D948DDD01120D940F7200120D94177463
:101D030000120D94BB7400120D945A7500120D94B9
:101D1300487600120D94267800120D94C7790012AC
:101D23000D945A7A00120D94667B00120D94B9A596
:101D330003120D941CA603120D9464A603120D94B2
:101D4300A2A603120D94FDA603120D945AA7031223
:101D53000D9495A703120D9417A803120D9471A85F
:101D630003120D94E5A903120D946FAA03120D94A7
:101D7300C2AA03120D94DCAA03120D94F6AA03124D
:101D83000D9450AB03120D94D6AD03120D94F5AD23
:101D930003120D94E0AE03120D941AB003120D94C6
:101DA30099B003120D94D0B003120D943FB10312F6
:101DB3000D9400B203120D94D9B303120D94DAB447
:101DC30003120D944BB603120D944BB803120D94EA
:101DD300C6BA03120D94A0BC03120D9461BD031285
:101DE3000D94D9BD03120D94F0BD03120D94EABEF8
:101DF30003120D94E2BF03120D9451C003120D940C
:101E0300008005120D94578105120D941682051258
:101E13000D947E8205120D94B5FC01120D94D0FC35
:101E230001120D9414FD01120D943AFD01120D944B
:101E330061FD01120D9479FD01120D941BFE011237
:101E43000D9430FE01120D9452FF01120D945BFFAD
:101E530001120D9464FF01120D946DFF01120D9494
:101E6300A6DD04120D94A8E104120D94ADE1041251
:101E73000D94AFE104120D940E8A05120D94CF99BF
:101E830005120D94008003120D94338003120D94F8
:101E93009F8003120D943A8103120D94D78103128C
:101EA3000D941C8203120D943E8203120D945782EB
:101EB30003120D947D8203120D949F8203120D94DD
:101EC300DD8203120D94218303120D9443830312C5
:101ED3000D94A58303120D946C8403120D94238532
:101EE30003120D94958503120D94608603120D94CD
:101EF300B38603120D94198703120D9453870312AB
:101F03000D94A58703120D94138803120D947E88F4
:101F130003120D94818803120D94028903120D9408
:101F2300998903120D94198A03120D94388A0312A6
:101F33000D949C8B03120D94A98B03120D94B58CF5
:101F430003120D94C28C03120D94CB8C03120D94C7
:101F5300A38E03120D94BD8F03120D9436900312BA
:101F63000D94A89003120D94CA9003120D945E91E0
:101F730003120D94329303120D94099703120D94D7
:101F83001D9703120D942D9703120D943797031287
:101F93000D94409703120D94499703120D94539790
:101FA30003120D94809703120D94A99703120D94B5
:101FB300B49703120D94D89703120D94FC97031250
:101FC3000D94669803120D94AC9803120D94C9985E
:101FD30003120D94469903120D947D9903120D94E7
:101FE300BC9903120D94099A03120D948F9A03124C
:101FF3000D945D9C03120D94E09C03120D94C49DFB
:1020030003120D942BA003120D9484A003120D94BC
:10201300CEA003120D9429A203120D945EA2031203
:102023000D94B0A203120D9465A303120D9414A48E
:1020330003120D9451A403120D94E6A403120D94FC
:1020430052A503120D94128201120D9444820112BF
:102053000D94728201120D94488401120D94288507
:1020630001120D94808501120D94BB8601120D940B
:10207300078701120D94308A01120D94238D0112EA
:102083000D94738E01120D94098F01120D94158F07
:1020930001120D94478F01120D94CA9001120D94F1
:1020A300D89101120D94029201120D9469920112BA
:1020B3000D94C29201120D94289301120D943F9531
:1020C30001120D94CE9601120D94989701120D945E
:1020D300DE9801120D942E9B01120D94FE9D0112A8
:1020E3000D940B9E01120D94929E01120D94269F46
:1020F30001120D94699F01120D94B29F01120D9468
:1021030006A001120D947FA001120D94EEA00112FE
:102113000D940BA101120D943BA101120D9470A11A
:1021230001120D9440A201120D94E9A201120D9423
:102133006FA501120D948FA601120D947AA70112B7
:102143000D94FCA701120D9433AC01120D9470ACE5
:1021530001120D94C8AC01120D94FBAC01120D9445
:1021630065AD01120D949BAD01120D9426AE0112C3
:102173000D947EAE01120D9455AF01120D940EB065
:1021830001120D94A9B001120D94B1B301120D9473
:10219300CDB401120D9470B801120D9464B90112FB
:1021A3000D9467B901120D9496B901120D949CBB5D
:1021B30001120D9475BC01120D94B8BC01120D945B
:1021C3000EBE01120D944DBE01120D94DFBE01121D
:1021D3000D9413BF01120D94D8BF01120D94F0C1D9
:1021E30001120D9461C201120D94A1C201120D944A
:1021F3002FC301120D9457C401120D9419C5011276
:102203000D9420C701120D9438C701120D944CC7C9
:1022130001120D9484C701120D94B2C701120D94DB
:1022230031C901120D9456CA01120D94BACA011292
:102233000D946CCB01120D949CCB01120D9463CCC5
:1022430001120D94FBCC01120D9421CF01120D94B8
:1022530056CF01120D94B9CF01120D94E8D001129B
:102263000D9490D101120D94C1D101120D94D9D1C5
:1022730001120D9468D201120D941CD501120D9414
:10228300F4D601120D9410D701120D942CD701121C
:102293000D94FAD701120D94EDDB01120D94402F2A
:1022A30000120D94722F00120D94613300120D94DD
:1022B300AD3300120D94F33300120D9495340012D4
:1022C3000D94F13400120D94363500120D947D36C1
:1022D30000120D94913700120D94803B00120D945F
:1022E300043C00120D94113D00120D946D3D00123B
:1022F3000D945D3F00120D94D23F00120D94DC3F0C
:1023030000120D94E93F00120D94144000120D9435
:10231300FB4000120D94A54100120D9423420012BC
:102323000D94434200120D946C4200120D948E42A0
:1023330000120D94EE4400120D94B44500120D9456
:10234300F94500120D94764600120D9427470012AA
:102353000D94594700120D949F4700120D94DB47CB
:1023630000120D942B4800120D947F4800120D9417
:10237300D54800120D94214900120D948E49001284
:102383000D94094A00120D94D44B00120D94D44CB1
:1023930000120D94F94D00120D94385100120D9452
:1023A3004B5400120D94085500120D944C55001215
:1023B3000D94FC5600120D94105700120D941A57E9
:1023C30000120D94245700120D94305700120D94EF
:1023D3004C5700120D94F75700120D943658001203
:1023E3000D94405800120D944A5800120D94BA5897
:1023F30000120D94055900120D941A5A00120D94EF
:10240300765A00120D94F75A00120D94B65B00121F
:102413000D94BF5C00120D94F35D00120D94E15E08
:1024230000120D94F95E00120D94545F00120D9486
:10243300725F00120D94BA5F00120D94E15F0012F7
:102443000D947C6000120D94426100120D94D461CE
:1024530000120D944E6200120D94686300120D94E5
:10246300156400120D943D6500120D948D650012E4
:102473000D94F16500120D94536600120D9481665C
:1024830000120D94A56600120D94DA6600120D94E5
:102493000B6700120D943E6700120D945E670012E5
:1024A3000D94C66700120D94BA6800120D94156955
:1024B30000120D943E6900120D94C66900120D942A
:1024C300496A00120D94746A00120D94596B00123C
:1024D3000D9468A104120D94A0A104120D94C1A13E
:1024E30004120D9403A204120D9465A204120D9418
:1024F3006FA204120D947FA204120D94BAA20412C7
:102503000D949AA604120D9487A804120D946DAA33
:1025130004120D9404AB04120D94A6AB04120D9493
:10252300C2BA02120D9440BB02120D949CBB02125C
:102533000D94E7BB02120D9402BC02120D942DBC44
:1025430002120D944ABC02120D9456BC02120D9451
:10255300EDBD02120D9406BE02120D948BBE021243
:102563000D949EBE02120D94BDBE02120D9461BF66
:1025730002120D94E2C002120D9495C202120D9440
:102583002BC302120D942EC302120D949EC302128A
:102593000D94BCC302120D9453C402120D949BC438
:1025A30002120D949EC402120D9464C502120D947E
:1025B300D1C502120D94F7C502120D9482C6021200
:1025C3000D94A0C602120D94E6C602120D949AC78A
:1025D30002120D94E4C702120D9413C802120D9453
:1025E30070C802120D94A5C802120D94D1C802122C
:1025F3000D94DFC802120D942CC902120D949CC9CC
:1026030002120D94E5C902120D9431CA02120D94FF
:102613005DCA02120D9468CA02120D9486CA021290
:102623000D9471CB02120D947BCB02120D94B6CB99
:1026330002120D94C6CB02120D94CFCB02120D944D
:1026430023CC02120D9437CC02120D9466CD0212E4
:102653000D947DCD02120D9492CD02120D9420CED5
:1026630002120D9465CE02120D94F1CE02120D9456
:10267300FCCE02120D943ED002120D9459D00212D8
:102683000D94A5D002120D9414D102120D944DD1C4
:1026930002120D9467D102120D94A9D102120D9466
:1026A30079D402120D9426D502120D9493D50212F9
:1026B3000D94D3D702120D94EBD702120D94EED7DB
:1026C30002120D94FAD702120D940ED802120D9431
:1026D30016D802120D9449D802120D944BD9021246
:1026E3000D94D2D902120D9442DA02120D94C4DA77
:1026F30002120D9485DB02120D94A4DB02120D94D9
:1027030045DC02120D94A2DC02120D94A5DC021228
:102713000D94D2DC02120D94E7DC02120D945BDD02
:1027230002120D94AADE02120D94B0DF02120D9470
:102733003BE002120D9456E102120D941EE20212C6
:102743000D944FE202120D9472E202120D947BE299
:1027530002120D94AAE202120D943AE302120D94AE
:10276300F0E302120D9465E402120D940CE50212DB
:102773000D9481E502120D94B8E502120D94F6E56D
:1027830002120D942CE602120D9427BE04120D942E
:1027930077BD04120D947DBC04120D949EBB0412EC
:1027A3000D94F4B804120D9406B804120D949BB75B
:1027B30004120D9417FE02120D940DFE02120D94D5
:1027C300A0FD02120D948BE101120D94C2C40312F9
:1027D3000D94D1FB02120D948FFB02120D94FDDCBC
:1027E30001120D94B7DC01120D949DFA02120D949F
:1027F30071FA02120D9428FA02120D9465F902126D
:102803000D944FF602120D9412F402120D94DFF39D
:1028130002120D9486F302120D9419F302120D9411
:10282300D8F202120D9411F202120D94ABF10212BE
:102833000D944AF102120D94EAF002120D94C1EFC5
:1028430002120D9455EF02120D94ADEE02120D9487
:10285300A8EE02120D949CEE02120D9482DC01127A
:102863000D944FDC01120D943ADC01120D940FDC30
:1028730001120D94F5C104120D94C1C104120D94FB
:102883006AC104120D94CFEA02120D94A9EA02124E
:102893000D9447EA02120D94E8E902120D94F1BF78
:1028A30004120D94D5E902120D94CAE902120D9493
:1028B30099E902120D9486E702120D9443BF0412A4
:1028C3000D94F9E602120D9439DE01120D94B5E66A
:1028D30002120D9489E602120D9446B704120D9468
:1028E300F1B604120D94C4B604120D9491B60412F9
:1028F3000D9469B604120D940AB604120D94EAB548
:1029030004120D94B5B504120D9479B204120D940A
:102913004EB004120D943EAE04120D94BBAD0412DE
:102923000D948C7100120D946FAD04120D94A6BE1C
:1029330004120D9423AD04120D947DAC04120D9476
:10294300ADC20300000080FB8F000100451B870020
:102953000100431B350004000C1B25000200101B63
:1029630026000200121B27000200141B280001008E
:102973001E1B290001001F1B840004009A188600F7
:102983000100BC1A2A000100201B2B000100211B9F
:102993002C000100251B2D000800A6182E000100A5
:1029A300261B2F000100271B30000100281B3100CC
:1029B3000100291B32000100AE1833000100AF18DB
:1029C300340001002A1B36000100B0183800010052
:1029D3002B1B39000100241B83000200411B6300F1
:1029E3000100BC1864000100221B65000100231BC9
:1029F3006D000100BD18710008009E1866000100FB
:102A0300401B43000100311B44000200321B450000
:102A13000100341B46000200351B47000800B418B0
:102A230048000100371B4B000100381B0400010064
:102A3300441BA1000100481B37000100471B88000D
:102A43000100461B3C000100B1183D0001002C1B96
:102A530049000200391B67000100BE184D00020047
:102A63003B1B4E0001003D1B4F0002003E1B3E007E
:102A73000100301B51000100B218520001002E1B4F
:102A8300530001002F1B54000100B3180000000085
:102A930000000001363601010001020100010301BB
:102AA30000010401060605020000070100340801C5
:102AB300000F090401010D0100FF0E0800001702B9
:102AC3000000190100FF1A0100011B0100FE1C0197
:102AD30000081D0200001F01000120010001210266
:102AE30000002301000F240200002601000127013A
:102AF3000008280200FF2A0100072B0102402C01D5
:102B030000002D0100012E0100012F0100FF300103
:102B13000B1D310800003A0100083B01000F3C0186
:102B230000013D0100FF3E04000042040000460492
:102B330000004A0400004E04000052040000560442
:102B430000005A0400000000000020010C82000075
:102B5300010020010E82000002002001108200000B
:102B6300030020010D82000004004201EB800000FD
:102B730005004201DB80000006004201F5800000F1
:102B83000700300111820000100042037917000092
:102B9300110030038A170000120010038B17000086
:102BA300FDFF21010A820300000021038C170300AB
:102BB300FDFF21410A820C00550039058E170C00D8
:102BC30045003901EA810C0041003901EE810C0016
:102BD30001022123E81A0103710301030103010325
:102BE3000103010322030203010310030003000393
:102BF3000003000300030003000342030003240354
:102C03000603000300030403120325032303250320
:102C1300230304030403000300030003440300032A
:102C2300000323030003650321003503810300032D
:102C3300050300030003000300032503230301012D
:102C430071010101010111010101310101010101C1
:102C53008001100161013B001400630173017201E3
:102C6300620143010001130106013D013500040126
:102C730012010001000100010001040104013301FC
:102C830033013C01440132013600000100016501BA
:102C9300000135008101000105018201830100016A
:102CA3000300710030016000110070003102200345
:102CB30050048000100061000000140063007300E2
:102CC30072006200430000001300060000000000D1
:102CD30004001200000000000000000004000400D3
:102CE300370037003C0244000000000000000000F1
:102CF300650000003500810000000500000083002E
:102D0300000003027102300160021102700201022D
:102D1300020202028002100261023A0041006302D1
:102D230073027202620243020002130238000002BD
:102D33000002040212020002000200020002040266
:102D43000402370037003C0244020002390000024B
:102D530000026502000235028102000205028202BE
:102D63008302000236000100060000000F0000008D
:102D73000000000000000000000003FFFF0000044B
:102D830003FFFF0000FFFF0FF4010005C40403204D
:102D9300000100000B000000000000000003010F11
:102DA3000000000000000000000000000000000020
:102DB3000000000000000000000000000000000010
:102DC30000001C1A641A221A2C19281A6A1A281AC3
:102DD300761A2E1A2C19281A6A1A341A2C1900007A
:102DE30000003A1A2C190000000000000000401AED
:102DF3002C19461A7C1A4C1A2C19000000000000EA
:102E0300000000000000521A8E1A581A2C19521A88
:102E13008E1A581A2C19461A7C1A5E1A2C1900009D
:102E2300E61C0100E61C02005C1C0280561C030029
:102E3300621C0400681C0480CC270500741C060077
:102E4300801C3100921C3300981C34009E1CFFFF31
:102E5300000007ECFDFDFDECDCDCCCBCACAC9C9CC9
:102E63008C7C7C6C6C5C5C5C4C4C3C3C2C2C1C1C4F
:102E73000A162302E02205EC2207E6220CC8220DE3
:102E8300D422FF000000160F00000B150B020002F6
:102E9300220F3300000E0F5A6967426565416C6C5F
:102EA30069616E63653039D0D1D2D3D4D5D6D7D842
:102EB300D9DADBDCDDDEDF150AF4D4C0A595827236
:102EC300636155504900034D4C4651181A250502BC
:102ED3000001191618161618230300303016181996
:102EE30020231A1C1E30303017181921301B1D1FC8
:102EF30030003C40423A3F3F392F47300C0E020B23
:102F0300040B0A0708000F02040201010101090270
:102F130000BE040AE8030000E8030100F6FBBA2E32
:102F23000300552E0E0010030A0C040408040328A2
:102F3300020C051E0815FF00FF0412091E74F71288
:102F43000887E9901993F0901948E4F01216AA90B3
:102F530019ABE4F0A3F0901994F0A3F012246612D5
:102F630016B09018CCE4F0A3F0121E480248A674E1
:102F7300F012088774D3120E7A12630254806066CB
:102F8300901993E0F91217168A088B09AF09EA4FD3
:102F9300604C7C0080010CEC75F003A4F8A9F0747C
:102FA3007328F582742E39F583E493F46029E4934E
:102FB300F88A828B83E06870DDEC75F003A4F87403
:102FC3007428F582742E39F583E493C0E074019379
:102FD300F583D082120A12AA08EFFB121704126AB1
:102FE300346480023341851882851983A3E0542019
:102FF300601F12237C8A088B09AF09EA4F600A120B
:1030030022D4AA08EFFB121704126A346420023395
:1030130041851882851983E0A2E0504290194DE062
:10302300640F702E900CEA126A3F900CEAC3E0948E
:10303300E9A3E09403400A7A007B809017BE12490B
:103043008879001222AAE96009901B0C1210B212AF
:1030530022C2851882851983E06401023326542035
:10306300700302332B7A207B00901993E0F9121836
:103073006CEA4B4C4D701A9019A71210CAE8494AD2
:103083004B700E750801750900750A00750B0080F9
:103093006D750C00750D00750E00750F0012187E0E
:1030A3008A088B098C0A8D0B9019A71210CAE8495C
:1030B3004A4B60319019A77808120D6C400E750CBD
:1030C300FF750DFF750EFF750F7F801985080C8541
:1030D300090D8C0E8D0F9019A7780C120E4A7401EE
:1030E300780C120E31850C08850D09850E0A850FA3
:1030F3000BE5084509450A450B70030232857C0040
:1031030079047A007B001223528A0C8B0DAE0CAF2C
:103113000D0231C974021210ED74FFF07403121022
:10312300ED74FFF074041210ED74FF1249FB126189
:10313300BC7407120E72126472E96401706A12336E
:103143004D4480F8A3E0F974281210EDE8F0A3E9E8
:10315300126706E0C0E0742A1210EDD0E01249E8CD
:103163005408601674281210EDA3E0440112335A78
:10317300C0E0742C1210EDD0E0F01263456011E84A
:10318300240B123B40F874161210EDE8F0A3E4F0A0
:103193009081D6120C127406120E72740B120E6A00
:1031A300121F747404120DE18E828F83A3A3A3A351
:1031B300A3A3A3A3A3740612335AF91223347405E9
:1031C3001210ED1264C9EE4F70030232857C007950
:1031D30004EEFAEFFB12235274051210EDEAF0A38A
:1031E300EB124712E0F50CA3E0F50DE4F50EF50F35
:1031F3007808790C12103A4023EE2404F8E43FF9DE
:1032030085080C85090D8882F583C3E0950CF0A32E
:10321300E0950D126B29E84970A4800C8E828F8390
:10322300A3A3A3A3E4F0A3F08E828F83A3A3A3A3FA
:10323300A3A3A3A3A3A3E064018E828F83A3A3A369
:10324300A3A3A37020E0540460030231178E828F7E
:1032530083A3A3A3A3A3A3A3A3A37406F07AB71280
:1032630034800231C1A3A3A3A3E060030231178E0C
:10327300828F83A3A3A3A3A3A3A3A3A37401F00295
:1032830031C11223227C0079017A007B0012235280
:10329300EA4B60031249817C0079047A007B0012B7
:1032A3002352EA4B701380448A828B83A3A3A3A384
:1032B3001264E1EE98EF99400B8A828B83A3A3A358
:1032C300A31264C97C0079041223528B0BA90BEA65
:1032D3004970D5C3E5089EE5099F500DC3EE9508D7
:1032E300FEEF9509FFEE4F700D1249819019A71259
:1032F3003353A3F08024EE2EFEEF338E08F509E45A
:10330300F50AF50B7808120DC67A20123529120D2D
:10331300E112187E9019A71210BE851882851983B1
:10332300E06420FAA3E08016A3E054046013125B68
:10333300991228987901123D07126A346404FB80BC
:10334300047A007B00742D026321EE12632FE022C6
:10335300E4F0A3F0A3F0221249EDA3A3E022C0827C
:10336300C08374EA120E7A7C167D007900AA18AB2A
:10337300191216EC74081210ED7402F090193C1235
:103383005DD51233A174091210ED125DED741312A1
:1033930010EDE4125A6C121E3C7416024CB7E8F09E
:1033A300A3E9F09019461264B12274F712088774E6
:1033B300DA120E7AEAFEEBFFEA4F602DAC18AD1974
:1033C30012239A74061210EDE0601E74171210EDAA
:1033D300E0FD74011210EDE0FCEEFAEFFB79001250
:1033E3002280E9600479A48002790074260248A34C
:1033F30074F7120887EAFEEBFF8A82F583A3A3A37F
:10340300A3A3A3E0544060178A828B831262E21263
:103413004BC660067AFF7BFF80151262DE80039045
:10342300193C1261BC74FE6A700374FF6B60411235
:1034330062DE126308122430E98E828F83600B12DE
:103443005ECB126AF4E4F0A38003126AE3F07CB06B
:103453007D228E828F8312423CE9F5087015EE4F70
:1034630060097901EEFAEFFB12232EA9080248A6A0
:103473007508CDAA08123480E960E380EE8E828F4E
:1034830083125ECF240CF582E438F583E0F912222F
:10349300BC2274F6120887E9FEEAFF7A0F7B00125A
:1034A30016FEEA4B601A8A828B83740CF0EEA3A398
:1034B300F0EF8A828B83124661125ACA7900802BFD
:1034C300EEF91223588B09A909EA49601C8A828BF9
:1034D30083A3A3A3A3A3A3A3A3A3740612466AE08F
:1034E300F9122016EEF912233479100258B574F448
:1034F3001208878A088B098C0A8D0B90194DE0649A
:103503000F701EEA4B4C4D6018901948E064086038
:1035130005E06404700B7808120DC6123527120DEE
:10352300E102378C7A017B00901993E0F912185A63
:1035330074042274F412088774FC120E7AEAFEEB08
:10354300FF8A82F583A3A3E0F91223588A088B0923
:10355300EA4B700302366F8E828F83A3A882A983FE
:10356300E0C0E0EA125AC0D0E01244D064F160280F
:103573008E828F83A3E064CD601E8E828F83A3E04F
:10358300641A60148E828F83A3E064E9600A8E82DA
:103593008F83A3E064E17033790012232EE9602B5B
:1035A300E5082404F50AE43509F50B850882850945
:1035B30083A3A3A3A3A3A31245A61244AE1216BCCE
:1035C300850A82850B8312630880708E828F83A3A2
:1035D300E0C0E074021210EDD0E0124CC5124DE8C9
:1035E300123F56C0E074031210EDD0E0F0E508126C
:1035F30067B1123BFFE0AA18AB197005121F6E806A
:103603000312241874021210EDE064E9702D85088A
:1036130082850983123D65750A01780A120DD275F8
:103623000AE9780A120DD2124482123F23FCA3E066
:10363300FD8A828B83123F4D120DE1850882850935
:1036430083A3A3A3A3A3A3A3A3A3E06402701285EC
:103653000882850983A3A3A3A3A3A3A3A3A3740697
:10366300F08E828F83A3A3E0F912233412232290D6
:103673001B12123B71740402378974F4120887EA2F
:10368300FEEBFF7508008A82F583A3A3A3A3A3E03F
:1036930060387508081261AF79FF1220EEEA4B60BB
:1036A3001075082C8E828F83A3A3A3A3A3E0D2E07B
:1036B300F08E828F83A3A3A3A3A3E05403640160CA
:1036C30003023778430811023778EA24181250AE00
:1036D3006036EA241A1250AE6003F4701312649138
:1036E3007003A3E069600302377875082202377814
:1036F300EA241B12377C241A1250AEFAEE24191254
:1037030050AEF9122004806D8A828B83A3A3A3A3F6
:10371300A3A3A3A3A3123B5C70037508018E828F3E
:10372300831264957003A3E0697006E508D2E1F59E
:1037330008E50860158E828F83A3A3E07006E50871
:10374300D2E58004E508D2E6F508124BB9640170AE
:1037530006E508D2E0F5088E828F83A3A3E0601507
:10376300EE241D1253CDF912241EE964016006E50F
:1037730008C2E0F508A9088010F582E43FF583123A
:103783006B4CEA227409120DE17F04020B4774F0BB
:1037930012088774D7120E7AEAFEEBFF8A82F5834A
:1037A300A3A3A3A3E0600E901B1012634C600690CA
:1037B3001B10123B717403120E728E828F83A3A3AC
:1037C300A3125C981261BA12239AE9700302392298
:1037D300780174051210EDE0C3940240027800747E
:1037E300071210EDE0C3940240027800740C12102B
:1037F300EDE064F87003A3E0F47003023922740C63
:103803001210EDE064F97003A3E0F47003023922AF
:10381300740C1210EDE064FA7003A3E0F470030279
:103823003922740C1210EDE064FB7003A3E0F47012
:103833000302392274061210EDE0F9901936E0699B
:103843006003023922E8A2E04003023922742712FE
:1038530010EDE06003023922EE24131264A77422F0
:103863001210ED125CA2241C1264A774101210ED46
:10387300125DED74091210EDE0601D741A1210ED63
:10388300E0FD74041210EDE0FC8E828F831261BAA6
:103893007901122280E9703B7403120E6A1222CE60
:1038A300E9F50C74091210EDE0702C901930E0600A
:1038B300267422596422601F74425964427014743E
:1038C300201210ED123B56600E74201210ED123BC5
:1038D3004F60047ACF804AE9A2E6504D742012105B
:1038E300ED1253D324FD600F14600C24FD600824F3
:1038F300FD600424FE702874201210ED123B487002
:103903000E74201210ED1259F9A3E0640D601A74BD
:1039130003120E6A122448E96401700D023B387ADF
:10392300D37B00121C32023B38EE242DF582E43F98
:10393300F583123D5C7003A3E069701D7508007880
:1039430008120DD27808120DD2EE242F1250AEF9C0
:10395300123B62123F4D120DE174091210EDE0703B
:1039630003023A00123B621261BC1224968A0E8B48
:103973000FEA4B7003023A9174041210EDE0F88ED3
:10398300828F83A3A3E028F8A3E03400F9E8240D91
:10399300123B40F88A828B83A3A3A3E068600EE8FE
:1039A3008A828B83A3A3A312465A1233547904E960
:1039B3001210ED1250CDA3E02AF8A3E03400888260
:1039C300F583A3AA82AB831216F28A088B098C0AA9
:1039D3008D0B850E82850F83A3A3A3A37808120DF5
:1039E3006C4003023B389081F27808120FAB850ECE
:1039F30082850F83A3A3126B52A3124DF190194832
:103A0300E064046008E064096003023B38E50CA24B
:103A1300E54003023ACBEE242F1250B6F0EE2430E9
:103A23001250AEC0E074011210EDD0E0F0EE24317C
:103A33001250AEC0E074021210EDD0E0F074141214
:103A430010EDE064017026740E1210ED1244A924E7
:103A5300131250AE687003A3E0697011740C121056
:103A6300ED123B5C700774141210EDE4F0EE2425A4
:103A7300F582E43FF583120C127404120E7274077C
:103A8300120E6A121F747404120DE1023B3890196E
:103A93008DE064016003023A0074201210ED123BC2
:103AA300567009E50CA2E65003023A007410121096
:103AB300EDE0F47003A3E0F4607BEEFCEFFD740330
:103AC300120E6A1222DA806DA2E650697420121077
:103AD300ED125EDB7016741A1210EDE0640270557D
:103AE3007403120E6A790012241280497420121092
:103AF300ED123B4F7014741A1210EDE0640470352C
:103B03007403120E6A122406802B74201210ED1215
:103B13003B48700C79007403120E6A12245480150A
:103B230074201210ED1259F9E0640C70087403123A
:103B33000E6A1224607429026321E82406F582E4E4
:103B430039F583E0221262E8E06403221262E8E0BE
:103B53006407221253D7640622124BCA640222EE70
:103B6300242BF582E43F126B4AEE124B9F22E0F5C1
:103B730008A3E0AA08FBE4FCFD1222C22274F4129B
:103B83000887EAFEEBFF8C088D099018AEE0600F02
:103B93001264917003A3E0697005121FF2805379D8
:103BA300001261AF1220228A828B83E582458360F3
:103BB3002CA3A3A3A3A3A3E054186021E508241C0A
:103BC300123BFC120C16123BF8120C16EE241812C0
:103BD3003F34125694126469120DE1801579008EF8
:103BE300828F83A3A3A3125EC11256941261BC12E7
:103BF3001FF802378CE5082413F582E43509F583B1
:103C03002274F712088774F7120E7AEAFEEBFF901C
:103C13001948E06403600DE064016008E064096032
:103C230003023D028A828B83A3E06003023CD07CC3
:103C3300007D007A027B001216B612650E8A82128C
:103C430064AB901939125DED7953121E2A9019480D
:103C5300E0640960099019461261BC12249085182A
:103C6300828519837401125A119019487404F074EF
:103C730001120E6A794A121E247401120E727A3EE0
:103C83007B191218969017C1E0640B70057406F047
:103C930080057900123D07901939125EC77A037BBC
:103CA300001216B690193C125EC77A047B001216F6
:103CB300B6901933E0A2E35004D2F08002C2F012AE
:103CC30059FE901B0C1210B21222C2802FFC7D00F1
:103CD3007A037B101216B69017C1E0640B7003745D
:103CE3000AF09018B2E4F0FA7B401257EE8E828FFE
:103CF30083A3E0F9123D07901948E4F012230474FA
:103D0300090248A39019461261C0121F8622C0827D
:103D1300C0839018CC12634C7017901948E024FBB1
:103D23006005146007800A9018D2801F9018D48011
:103D33001AE8496007123B3D6401700C8A828B8349
:103D4300A3E0F9121F7A800E9019C212634C600629
:103D53001259FA120A120255451264B1901946E03B
:103D630068221264B1E8FAE9FB2274F51208877439
:103D7300D8120E7A8A088B098A828B83A3A3A3A302
:103D8300A3A3A3A3E0C3940F5003023F1E8A828B15
:103D930083A3A3A31264C97415120E728A828B8340
:103DA300A3A3A3A3A3A3A3A3123F23FAA3E0FB12FA
:103DB300231074151210EDE0702E85088285098397
:103DC300A3A3A3A3A3A3A3A3E0C3940B401A8E822C
:103DD3008F83A3A3A3A3A3A3A3A3E064027009EE09
:103DE300240B1250AEF46003023F1E74171210ED41
:103DF300E0600764026003023F1E901948E064021A
:103E0300601CE0640660179018CC12634C700302C8
:103E13003F1E123B3D64016003023F1E8025901844
:103E2300CC12634C701D7508007808120DD2780807
:103E3300120DD2EE2410123F348E828F83123F4D27
:103E4300120DE18E828F83126B211244D91264AD5D
:103E530074021210ED125CA212334EC0E07404120D
:103E630010EDD0E0123F56F508A3E0F509740F7882
:103E73000812107874051210EDE508F07419121089
:103E8300EDE0C0E074061210EDD0E0F0741B1210E8
:103E9300EDE0C0E074071210EDD0E0F074161210DC
:103EA300EDE0C0E074091210EDD0E0F074171210C9
:103EB300EDE0C0E074081210EDD0E0F0EE24101233
:103EC30050AEC0E0740A1210EDD0E0F0741A121074
:103ED300EDE0C0E0740B1210EDD0E0F07427121087
:103EE300EDE0C0E0740C1210EDD0E0F0741C121081
:103EF300EDA982AA8389088A09750A007808120D38
:103F0300CA7C087D0074101210EDAA82AB83125094
:103F1300A5120DE1AA18AB19121F807428024A01D9
:103F2300E0F98A828B83A3A3A3A3A3A3A3A3A3E000
:103F330022F582E43FF583E0F98E828F83A3A3A366
:103F4300A3A3A3A3A3A3126B4C221261C01223D079
:103F5300740222F0EE125699E02274F2120887746A
:103F6300F8120E7A8A0A8B0B8C0C8D0D89089081BE
:103F730007AC18AD197408120D0DC200AC0AAD0BD5
:103F8300AA18AB1912613D7002D2009019948013E4
:103F9300AC0AAD0BEE240BFAE43FFB12613D701B40
:103FA300124B90124823601EA20040E48E828F833E
:103FB300E0650C7004A3E0650D70E58E828F83A32A
:103FC300A3E0650870DAEEFAEFFB74080244E6C07A
:103FD30082C083901994025542C082C08390199481
:103FE300E4F0A302423874F7120887901994126A16
:103FF3003A800FEA2414F582E41264C612179AEE8B
:10400300FAEFFBEA4B70EC901994E4F0A3F002484A
:10401300A674F21208878A0C8B0DEDFF890B8A8236
:104023008B83E08C828D83F0A3A882A9838A828B01
:10403300831240DD124654E0C454F0FA8882898327
:10404300E04AF0EC2402F8E43FF9850C828B83A369
:10405300A31240DD1240F0E0333354FC1240E4E09D
:1040630033333354F81240E4A3E0A2E0E4331313F0
:10407300FA88828983E04AF0EC2403FE50010FE5BD
:104083000C2407F508E4350DF509750A00780812C4
:104093000DCA7C087D00EEFAEF1250A4120DE1EE7A
:1040A3002408FE50010FE50C240FF508E4350DF547
:1040B300097808120DCA7C037D00EEFAEF1250A4B2
:1040C300120DE1E50BC3940F400DE50C2412F582AC
:1040D300E4350D1256A8F00244E9A3E088828983EF
:1040E30022FA88828983E04A1240F0A322F0850CE9
:1040F300828B83A3A3A3A32274F2120887EBFF8C02
:104103000C8D0D8A82F583E08C828D83126B0BA359
:10411300A882A983E01254ED1244CFC41254E7F0ED
:10412300EA126B151254F41244CDA2E2E4338C82EA
:104133008D831244CC131313541F1254EDA3124452
:10414300CCA2E7E4338C828D83A3A3A3A3A3A3F020
:10415300EA2403FE50010FF5088F09750A00780859
:10416300120DCA7C087D00E50C24071250A0120D25
:10417300E1EE2408FE50010FF5088F097808120DAF
:10418300CA7C037D00E50C240F1250A0120DE18EB2
:10419300828F83A3A3A3E0C0E0126B31D0E0F002CF
:1041A30044E974F6120887EAFEEBFF8A82F583A3DB
:1041B300858208858309E0F9121F9E850882850997
:1041C30083E064EB601E8E828F83A3E064E160145E
:1041D3008E828F83A3E064F1600A8E828F83A3E0D3
:1041E300641A70078E828F83A3E4F0901B0C121065
:1041F300B21222C27508017808120DD28E828F8303
:10420300A3E0F5087808120DD27900901946125EE2
:10421300C790193C123F4D120DE11223220258B5EB
:10422300C082C083E99019A67003E4800274018000
:1042330004EAF0A3EBF00255451261C0121E4222BC
:1042430074F61208879019A6E0701B7C0079017A36
:10425300007B00122352EA4B600C8A828B83126329
:104263004C60031222B60258B5C082C083124703C2
:10427300401079FF12234CE9F8902F34E493C3984C
:10428300500479018002790002554574F2120887BF
:104293008A0A8B0B8909C2008A828B83A3A3A3A3F7
:1042A300A3A3A3A3E0F91223588A0C8B0DAE0CAF82
:1042B3000D750801EA4F600302436F850A82850B7F
:1042C30083125EC1850A82850B83A3A3A3A3A3A341
:1042D300A31244AE1223408A0C8B0DAE0CAF0DEA31
:1042E3004F700302447B8A828B83A3A3A3A3E4F0CE
:1042F300A3F0E50A240CFAE4350BFB8A82F583E08C
:10430300C0E0124482D0E0F0E50A240D1244A22456
:104313000D125DE7122436124BA8126308E50A2436
:10432300111244A22411125DE7E50A24131264D882
:10433300C0E0124B9AD0E0F0D200EE2406F8E43F3E
:10434300F91244951244D0540460030243E1901BD4
:104353001EE0F50A750B007407780A120F858E822A
:104363008F83A3A3A3A3A3A312448CF08E828F8372
:10437300A3A3A3A3A3A3E0F50AA3E0F50B74077813
:104383000A121078E50A5407FCE50960618E828FF2
:1043930083A3A3A3A3A3A3A3A3A374021249FB12FE
:1043A3004798600B90193412512EA3A3125DEDECC4
:1043B3007003024452EE2406F8E43FF9E8FAE912E6
:1043C3004495F0EC24FFF50AE434FFF50B74077809
:1043D3000A120F858A82898312448CF080718E823F
:1043E3008F83A3A3A3A3A3A3E0448002436EEC7033
:1043F3000575080080598E828F83A3A3A3A3A3A36B
:10440300E05420600C1216F8EA547F7900245F8090
:10441300198E828F83A3A3A3A3A3A3E05410601ACE
:104423001216F8EA540F7900240A5001098E828F7C
:1044330083A3A3A3A3F0A3E9800D8E828F83A3A3F9
:10444300A3A37401F0A3E41244D97404124719A27C
:104453000050288E828F83A3A3A3A31261C6F9EE13
:10446300FAEFFB122346E96012126345600312441C
:10447300BBEEFAEFFB12179A750800A9088067EEE6
:10448300240CF582E43FF58322E0450AF0A3E045DE
:104493000B228882F583E0547FF0A3E054FC22F5DD
:1044A30082E4350BF5831264B1EE22A3E0F9850AA9
:1044B30082850B831261C0221244C212491822EE74
:1044C300240FF582E43FF58322A3A3A3A31244D4CC
:1044D300221264F4E0221244DD221249F1A3A3A3C1
:1044E300227403120DE17F06020B4774F41208874E
:1044F30074F7120E7A7E00122358EA4B70030245BA
:10450300A18A828B83A3A3A3A3A3A3A3A3A3E064EE
:104513000660030245A18A828B83A3A3A3A3A3A35B
:10452300A3E0FF8A828B83126AD3E0C0E07408128F
:1045330010EDD0E01248C9125DDA125DED12236A64
:10454300EF54086057851882851983125EC77A0075
:104553007B0012233AEA4B7043126B3C7C007D00D4
:104563007A007B0080228E828F831253D3F47003F0
:10457300A3E0F460279019461245A61248AB601CCD
:104583007C007D00EEFAEFFB12233A8A0A8B0BAE16
:104593000AAF0BEE4F70CF7900121E5A7E01EEF96F
:1045A3000237871245AA22E0FCA3E0FD8E828F83A7
:1045B30022C082C0838A828B83E5824583700990FF
:1045C30019AB80068A828B83A3A31247CC60208A0F
:1045D300828B83A3A3A3A3A3A3A3E0540860E5EC66
:1045E3004D60101247D27003A3E06D70D780047A38
:1045F300007B0002554574F21208878A088B0989EB
:104603000AECFEEDFF7A147B00121794EA4B603735
:104613008A828B83A3A3A3A3A3A3A3A3A3E4124686
:104623006AE50A1248B5EEF0A3EF12465A1248D0D3
:104633001246618A828B83126B5412464D12624377
:10464300A3124654F0A3F00244E9EA240FF582E4EE
:1046530022126B0FA3A3221248BBE4F0A322A3F000
:10466300126ACC1262432212466E221248BFA3A3DF
:10467300A3A32274F5120887EAFEEBFF890A8C08CC
:104683008D09EA4F60757401697012790112234C28
:10469300E9F8902F37E493C3985015800A7404699E
:1046A3007009124703500979118052740269704BE3
:1046B3008E828F83A3A3A3A3A3A3A3A3A3E50A1219
:1046C3004712124DE81263CDA3E4F0A3F09019ABA7
:1046D30012634C601880031264AD88828983A3A39C
:1046E3001247CC88828983A3A370EC80039019AB13
:1046F300EEF0A3EF1247197900800279C1024A0450
:10470300790412234CE9F8902F35E493C3982212CD
:1047130063D1A3A3A322F07A207B00901993E0F93D
:1047230012174022C082C083E9F879009019AB8048
:104733001D8A828B83A3A3A3A3A3A3A3A3A3E0683C
:10474300600574FF687001098A828B83A3A31247F3
:10475300CC70DE02554574F7120887EA4B7005905A
:1047630019AB80068A828B83A3A31247CC601F8A6E
:10477300828B83A3A3A3A3A3A3A3A3A3E06970E44E
:10478300EC600F8A828B8312479870D880047A007A
:104793007B000248A6126AECE0540422C082C08364
:1047A3009019AB80068A828B83A3A31247CC601235
:1047B3008A828B83A3A3A3A3A3A3A3A3E06970E526
:1047C30080047A007B000255451261C0EA4B228ABD
:1047D300828B831253D76C2274F21208878A0A8B56
:1047E3000B8C0C8D0D750800750900EA4B602A903F
:1047F30019AB80068E828F83A3A3124823601AAC61
:104803000CAD0DEEFAEFFB850A82850B83120A12BB
:10481300E9640170DF8E088F09AA08AB090244E935
:10482300E0FEA3E0FFEE4F2274F71208879019AB66
:104833001264AD7C007D00800DE8FCE9FD8882896F
:1048430083A3A31264ADE8496030EA687002EB69A0
:1048530070E79019AB1261BCE86A7002E96B888259
:104863008983A3A370081264AD9019AB8009126405
:10487300AD8C828D83A3A3125DED802774F712089C
:1048830087EAFEEBFFEA4F60151223641249041214
:10489300634560031244BBEEFAEFFB12179A8003E1
:1048A300120DE17F01020B471261C0121E4EE96433
:1048B3001A221248BBA3A3221248BF22F08A828B7A
:1048C30083A3A3A3A322126B0F1253D72212466E04
:1048D300A32274F61208879019AB1264C9801412CC
:1048E30064E61249041244BBEEFAEFFB12179AAEC8
:1048F30008AF09EE4F70E89019ABE4F0A3F002584B
:10490300B58E828F83126AC0F5831249188E828F07
:104913008312491822E0FAA3E0FB12179A22C082FD
:10492300C083EAFCEBFDEA4D6017EA24FBF582EB5A
:1049330034FF12634A7007124976E0F460071217D6
:10494300047905802B901993E0C0E0124976D0E0FA
:10495300F0902F2BE493F97AAD7B1912173AE9649F
:1049630001700B7A007B201249857900800279045B
:10497300025545EA24FFF582EB34FFF583227A20C2
:104983007B00901993E0F91217402274F412088700
:10499300A2AFE433F508C2AF9019AD1248236038D3
:1049A300EE24FBF582EF34FF12634A7A007B2090FA
:1049B300199360051249888005E0F9121746E4F55A
:1049C3000AF50B780A120DCEEEFCEFFD7AAD7B19DA
:1049D3001217347402120DE1E508A2E092AFEEFA69
:1049E300EFFB02378C1249EDE0221249F122124902
:1049F300FBA3A3A3A3A3A322F08E828F8322120D72
:104A0300E17F03020B4774F212088774FA120E7ADD
:104A1300EAFEEBFF7508FE7509FF122328E960051E
:104A23007911024B8B1250AB603C901B38E0C433BE
:104A330054E0F8E0333354FC48C0E0EE125ABA3F76
:104A4300F583D0E0126508FAA3E0FB79FF1220EEAC
:104A5300EA4B60127508FFEE240F1250AE4404F0C7
:104A63001250ABD2E0F08E828F83124BC46006EEFD
:104A73002412126520EE24131250AE700D902F3FB6
:104A8300E493C0E0124B9AD0E0F08E828F83E0A2D1
:104A9300E7500454038019EE24141250AE701290A0
:104AA3001925E0C0E0124B90D0E0F0901925E00406
:104AB300F0EE24111250AE64017016901B22E060D8
:104AC3000D901930E0700A8E828F83E070031265B7
:104AD3001D8E828F83E064017013EE240B1253CD7D
:104AE30064027009EE240F1250AE4440F0AC18ADCE
:104AF30019EEFAEFFB1223948A0A8B0B74FE6508F6
:104B0300700374FFF470031264E6EA4B60768E82DE
:104B13008F83E0C0E074011210EDD0E0F074041252
:104B230010EDEEF0A3EFF0EE241E1264A774021250
:104B330010ED125DED7401120E62880C890D780C74
:104B4300120DCEEE2420124BAD120DD2124BA81231
:104B53000C16EE240E124BAD120DD2901939120C15
:104B63001674081210EDE0F9AC08AD0912238E7427
:104B730008120DE1E9FE74106E700BAA0AAB0B125A
:104B8300179A80027E10EEF974060244E6EE2414AE
:104B9300F582E43FF58322EE124B9F222413F58224
:104BA300E43FF58322EE1244C322F582E43FF5830A
:104BB300E0F50C780C228E828F83A3A3A3A3A3A377
:104BC300A3A3A3124BCA22E0FAA3E0FB122430E909
:104BD30022C082C08374D7120E7A9080927403121B
:104BE3000E727426120D0D8A828B83A3A3A3A312C4
:104BF30064AD740E1210ED1263521264AD740C1294
:104C030010ED124CCD240D124CBDC0E0741A1210DD
:104C1300EDD0E0F01262491264AB74201210ED1271
:104C23004CCD2415124CBDC0E074081210EDD0E039
:104C3300F0EA241CF582E43B1264AB74121210ED0B
:104C4300124CCD2411124CBDC0E074091210EDD0EA
:104C5300E0F0EA2412124CBDC0E074071210EDD04C
:104C6300E0F0EA241EF582E43B1264AB74241210D4
:104C7300ED124CCD2420124CBDC0E074261210ED71
:104C8300D0E0124CC574FFF074011210ED74FFF004
:104C930074021210ED74FFF09081D6120C1274049A
:104CA300120E727407120E6A121F747404120DE14D
:104CB30079007429120DE1025545F582E43BF58331
:104CC300E022F085188285198322E8F0A3E9F0EA4F
:104CD3002274F412088774EC120E7A8A0A8B0B8CF6
:104CE300088D09E9FF7E107A217B0012179485183D
:104CF30082851983EAF0A3EB12635CE8497003022F
:104D03004DE17C217D007900851882851983E0FAC5
:104D13001216EC9019461261BC851882851983120C
:104D23005ECB2409F582E438F583126308742012FC
:104D330010ED1264AD74111210EDE812543C1263BD
:104D43000E38F583740212543F126ADA7402125455
:104D530029124DE812543F126AB7EFF07422121071
:104D6300ED1253EAF9A3E0C91267B139F583E812EA
:104D730050FFA3E0C9241FF582E439124DEF7423D9
:104D83001210ED1261BC74061210ED126308740860
:104D93001210EDE8F074261210ED1262E2C082C028
:104DA30083740C1210EDAC82AD83D083D082740572
:104DB300120D0D74251210EDE0C0E074131210ED06
:104DC300D0E0F07900AA18AB1912232EE964017020
:104DD300047E0080098518828519831244BEEEF98A
:104DE3007414023789E508F0A3E50922F583E50A7F
:104DF300F0A3E50BF02274F012088774FF120E7A09
:104E0300EAFEEBFF8C088D098A82F583A37408F010
:104E1300EA24161250AE60088A828B83A37410F0C2
:104E2300EA24171250AE60098A828B83A3E0240818
:104E3300F0EA1250AC60088A828B83A3E004F08A04
:104E4300828B83A3A3A3A3A3A3E060198A828B838A
:104E5300A3A3A3A3A3A3A3E0C3332402F88A828B4F
:104E630083A3E028F0EA24111250B66004740E8084
:104E730001E4F0901B30E0640170168A828B83E0BA
:104E83006401600D9018B2E06007125096740180BF
:104E930004125096E41250FF8A828B83A3E0F8EA4F
:104EA30012334E28298C828D83F0EA24111250AEDE
:104EB30060051256D729F0850882850983E0C394DB
:104EC300754009750C00750D0002508DE0FA7B00EA
:104ED3001217948A0C8B0DEA4B700302508D8E824D
:104EE3008F83E0FA9019361250F874027808120F83
:104EF30085EA4508FAAB09EE24121250F2740678DB
:104F030008120F85A808EA48FCEBFD1250AB6004B9
:104F1300780180027800EE2416FAE43FFBE4C8F936
:104F2300ED49FDEE24111250AEF508880974097895
:104F330008120F85ED4509FD8A828B831250F874A0
:104F43000B7808120F85ED4509FDEE24171250F278
:104F5300740C7808120F85ED4509FD8E828F83A3AB
:104F6300A3A3A3A3A31250F8740A7808120F85ED24
:104F73004509FDEE24231250F2740D7808120F85B3
:104F8300ED4509F9EC850C82850D83F0E9A3F0EE7C
:104F930024021250D5125114F0EE24041250D5A35A
:104FA300A3125114A3A3F0EE24131250E5F0EE2440
:104FB300141250E5A3F0750B088A828B83E0601509
:104FC3001263BE125EC7E50C2408FAE4350DFB122A
:104FD3001896750B10EE24171250AE6019125F4A23
:104FE300125EC7A80BE50C28FAE4350DFB121896E0
:104FF3007408250BF50B8E828F83A3A3A3A3A3A30E
:10500300E0604EEE2407F50EE43FF50F850E82F5C2
:1050130083E0C0E01250C4D0E0125104E0C0E008C5
:105023001250C6D0E0125104A3126338120DCA8580
:105033000E82850F83E012539EA80BE50C281250B5
:10504300A0120DE1850E82850F83E0C333250BF596
:105053000B1250AB6008C0E01250C4D0E0F01256FF
:1050630094126338120DCA12334DFC7D007403127F
:1050730010ED1250CDE0F8E50C28F8E4350DF9E811
:105083002AFAE4391250A4120DE1AA0CAB0D7401F3
:10509300026321EA2423F582E43FF58322FAE4350F
:1050A3000DFB1216E0740322EE2415F582E43FF59E
:1050B30083E022F582E43FF583E085188285198336
:1050C30022A80BE50C281253B122E0FA8E828F83BB
:1050D300A322F8E43FF98882F583E0850C82850DED
:1050E3008322F582E43FF58312511EA3A3A322F585
:1050F30082E43FF583E0F50875090022126AFDF9A1
:1051030022F0050B8E828F83A3A3A3A3A3A3A3A340
:1051130022A3A31264F4A312511E22E0850C8285FC
:105123000D83A3A3A32274030237891264B18E8271
:105133008F83A3A32274F012088774FD120E7A12D0
:10514300630274021210EDE9F08C0C8D0D750B01E6
:105153007C267D007900AA0CAB0D1216EC740212AA
:1051630010EDE0C3940850030253271250DDF0AC56
:105173000CAD0D8518828519831253D3FA851882D5
:105183008519831259F91256D0E96003750B00850E
:1051930018828519831262E21253F4E0F9EA850C4E
:1051A30082850D83A3A3A3A3A3A3A3A3A3F0A3E92E
:1051B300125429A3A31253F4A3A3E0F9E50C126339
:1051C30061EA12543C125EB7C0E0E50C2411126B85
:1051D30035D0E012543F2407F582E438F583E0C06C
:1051E300E0126B31D0E01262F57408125420A3E090
:1051F3006026851882851983E02408F8A3E034002B
:10520300F9E50C2413F582E4350D125DEB850C8270
:10521300850D83A3E02408F0850C82850D83A3A369
:10522300A3A3A3A3A3A3E0602A850C82850D83A374
:1052330085820E85830F1253E1F8A3E03400F9E56C
:105243000C125ABA350D125DEB850E82850F83E081
:105253002408F01253A5E4F01253B9E4F0A3126248
:10526300F5A3A3A3A3E06011125405850C82850D59
:1052730083A3A3A3A3A3125431E50C1253C6E07076
:1052830003025313125405FA1253A5EA125431F8C8
:10529300851882851983E028FBA3E034008B82F50F
:1052A30083E0F8E50C241A126B35E8125431E8C395
:1052B3009AE50C50561253C1F8902F2CE493C398DF
:1052C30050047E0C8006E50C1253C1FE850C8285CA
:1052D3000D831253E0F508A3E03400F509750A00C5
:1052E3007808120DCAEE12539E7A607B0E1250A5F7
:1052F300120DE11253B97460F0A3740EF0EEC333D0
:10530300F8850E82850F83E02880041253C6E4F0EB
:10531300850C82850D83A3E0F8850C82850D83E0DF
:10532300C3985004790080701253E0FAA3E034006C
:10533300FBE50C126517126B38126308850C828526
:105343000D83E0C398C0E0E50C2417126B35D0E061
:10535300125420E06040E50C2417FEE4350DFF8E67
:1053630082F583E024F2F0E50C241DF8E4350DF911
:105373008882F583E0240EFAA3E03400FB88828957
:1053830083126308901931E0F9122286E9F88E82BC
:105393008F83E0C398F0A90B02631F25E0FCE4337D
:1053A300FD22E50C1253AB2224191253B122F582CC
:1053B300E4350DF58322E50C241B1253B12212535D
:1053C300ABE0221262EF1253B422F582E43FF5837D
:1053D3001253D7221264B6F5838882E022A31253B4
:1053E300E5221253EA2822E0F8851882851983E022
:1053F30022A3A3E0FA8518828519831262E8A3A386
:10540300A322850C82850D83A385820E85830F12CB
:1054130053E5FAA3E034008A82F583E0221262F9AD
:10542300A3A3A3A3A322125444F583888222F08565
:105433000E82850F83E004F022F0A3E9125444C8DE
:1054430022126B01F8A3E02274F41208878A088BF6
:1054530009EA1254F4A3A3F0EA1313543F1254E7D6
:10546300A3F0EAC413131254F41254FE7409780A15
:105473001210781254DEA3A3A3A3A3A3F0EB125438
:10548300E01254FD740A780A121078E50A5401C038
:10549300E0EC1262EF3DF583D0E0125502740B7815
:1054A3000A1210781254DE1254FB740C780A12108C
:1054B300781254DEA31254FB740D780A121078E5A7
:1054C3000A5401C0E0EC2424F582E43DF583D0E0E6
:1054D300F0740E7808121078023778E50A54018CBC
:1054E300828D83221254EDA3A322540F8C828D83C9
:1054F3002254038C828D8322A3A3A3A3A3A3A3F08B
:105503008A0A8B0B22C082C08379008A828B83A391
:10551300A3A3A3A3A3E0901930600EE0701F8A82B7
:105523008B83A3A3E070168012E060111261AF9029
:105533001939E06A7003A3E06B60027901800312FA
:1055430061BCD083D082020D9174F21208878A0A5B
:105553008B0B890CECFEEDFF8A828B83E0FA1256EB
:10556300D0850A82850B83A3A31256C4E0F9EA8E81
:10557300828F83A3A3A3A3A3A3A3A3A31256E91276
:1055830056C4A3A3E0F9125694EA1256E9A3A3E082
:10559300C0E0EE2411F582E43FF583D0E01256F02B
:1055A300A3A3A3E0C0E0EE2412F582E43FF583D089
:1055B300E01263CD7408124712A3A3A3E06017E5BA
:1055C3000A2408F8E4350BF9124B9AE8F0A3E91220
:1055D30063CDE02408F08E828F83A3A3A3A3A3A3A8
:1055E300A3A3E060188E828F83A31256B3EE241513
:1055F300125DE7850882850983E02408F08E828F97
:1056030083A3A3A3A3A3E060248E828F83A38582B5
:1056130008858309E0F8E50A28F582E4350B12567C
:10562300A8A3A3F0850882850983E004F0EEFAEFCE
:10563300FB1223A6E9F50D70498E828F83A3A3A3E2
:10564300A3A3A31256A2A37014E0F8E50A28FAE470
:10565300350BFB12568A126308E50C801A1256B3F7
:10566300E8240EF8500109EE241D125DE71256D707
:10567300F9E50CC39924F2C398C0E0EE125F41D060
:10568300E0F0A90D0244E9EE241DF582E43FF58321
:1056930022EE12569922240BF582E43FF58322E091
:1056A3008E828F8322F583E08E828F83A3A3A3222E
:1056B300858208858309E0F8E50A28F8E4350BF9C3
:1056C30022E0FA850A82850B83A3A3A3221265290C
:1056D3001223A022901931E0F9122286E9F88508F5
:1056E30082850983E022F0A3E91256F022F0850AAD
:1056F30082850B83A3A3A3A322C082C0837AB97B31
:105703001979E2121E247AB97B19025545C082C069
:1057130083901939025542C082C08390193C0255C7
:1057230042C082C083794A121E2402554574F61280
:1057330008879019C1E0FE04F0EEF9122358EA4BF2
:1057430070F0EE60EDF90258B574F2120887EAFEC4
:10575300EBFF8C088D09890A122496740E1210ED42
:10576300E0F9740F1210EDE0F8EA4B7012E8701BC9
:10577300A90AAC08AD09EEFAEFFB1224B48065E880
:105783006017E970068A828B83E4F07401687054B1
:10579300E99019C47024E4801EE97048EA240212D7
:1057A3004CBDA80A28F8E4340013E813F070358AD6
:1057B300828B83A3A37401F0802AE004F0901B1F63
:1057C300E0F89019C4E0C398401AE4F090193CE063
:1057D3006E7003A3E06F700CEEFAEFFB7901121FFA
:1057E300981257EA0244E97A017B00901993E0F991
:1057F3001218662274F41208878A088B098C0A8DA2
:105803000B9081F27808120EA670077A0112498371
:10581300801E901B0C7808121087EA4B4C4D600DCC
:105823007808120DC6123527120DE180031257EACC
:1058330002378CC082C083901B10024234C082C0E6
:1058430083901B1202423474F61208877E00750897
:10585300257509197808120DCE7C6E7D007A217B9F
:105863000012180C7402120DE1E9640A70027E0141
:10587300121EF6E9640A7004EED2E1FE9004871268
:10588300634C600F1259FA120A12E9640A7004EEAB
:10589300D2E3FE122112E9640A7004EED2E4FE128E
:1058A3001DA6E9640A7004EED2E5FEEEF980031248
:1058B3000DE17F02020B4774F61208871216B075CA
:1058C30008257509197808120DCE75086E7509003B
:1058D3007808120DCE1258F7120DE1121EFC900437
:1058E3008912634C60061259FA120A121221181215
:1058F3001DB880BE7C007D007A217B0012181874CD
:10590300042274F612088774FF120E7A7E0075085B
:10591300257509197808120DCE7C6E7D007A217BDE
:105923000012180C7402120DE1E960030259D178D8
:1059330008120DCE75086E8E097808120DCE7C0004
:105943007D007A217B0012181E7404120DE1E970A8
:105953007D901939E064FE7003A3E0F460707E016A
:10596300901948E064086005E06404705C8518825F
:10597300851983EE125A117A507B197943121E2A24
:105983007A4D7B197947121E2A7A3E7B19794A127E
:1059930059EC7A467B197950121E2A7A397B197988
:1059A30053121E2A7A4E7B197954121E2A7A3B7B94
:1059B3001979E1121E2A901933E0A2E35004D2F0C0
:1059C3008002C2F01259FE80051216B07E00121E2C
:1059D300EA90048B12634C60061259FA120A1212EF
:1059E3002124EEF974010258B2121E2A7A3C7B1963
:1059F300794B121E2A22A31262E922A2F0E4338514
:105A03001882851983125A707952121E2A22125A49
:105A1300707942121E2A2274F6120887E9FEA2E068
:105A2300501C7508257509197808120DCE75086E76
:105A33007509007808120DCE1258F7120DE1EEA287
:105A4300E35003121EF0EEA2E2500E90048D126397
:105A53004C60061259FA120A120258B512230A7A36
:105A6300967B197945121E2A22125A7022F0AA181F
:105A7300AB192274F712088774ED120E7AE9FE90BF
:105A83001992F0AC18AD19125AA274121210EDEE5D
:105A9300125AAFAA18AB19125A5F74130248A39093
:105AA3001B4EE0F97A967B1912231022F0901B4EBD
:105AB300E0F97C967D19222415F582E422126ACD41
:105AC3003509F58322EFFB901993E0F912170A22A7
:105AD300EE2416125ADA22F582E43FF5837401F0BC
:105AE30022126ACC3FF583125AEE221264B6F98869
:105AF30082F5832274F41208878A088B097A007B63
:105B0300041257EE125B999019487409F01261312F
:105B1300123BF81261BC12613D640170677A0F7B1E
