:020000040000FA
:06000000020DA6020389B7
:030013000203AB3A
:03002B00020B1AAB
:0300330002089A26
:03003B00020400BC
:03004300020A3678
:030053000202B8EE
:03006B0002087117
:1000830002031A010100F0FF0700080000FFFF0050
:1000930000050400000003000147726F757000FF44
:1000A3000400100020FD000206FFFF1E08180000D8
:1000B3000000000000000000000000000000010438
:1000C30001020300033E8100000001040000CB177E
:1000D300000000E8030000FFFF1C18018813000064
:1000E300E803000064006400B801A0BB0D00A0BBDE
:1000F3000D00020202070401051E02051E020A0A80
:10010300010108080103B80B02803E0102FEFFE86B
:10011300030A050001FFFF020A011401E0050301C0
:1001230001FF0FDF2900000000152900000000FF78
:10013300000000FF0000120DB6604F120DC56012E3
:10014300E7548066F6120C7E7011120E6F703B0935
:100153000909F4F618F618F618F622120CA670150B
:10016300120E6608080860EAE6447FF618768018DF
:10017300E4F618F622120E666016120E6F7012E481
:10018300F608F608F608E65480F60909091818185F
:1001930022EAC0E0EBC0E0ECC0E0EDC0E0E687F0AF
:1001A300A4FBACF008E687F0A42CFCE435F0FA18C5
:1001B30009E687F0A42C4B60027401CA35F0FCE415
:1001C30033FB09E687F0D2F7A42CCB35F0FC1908F2
:1001D300E687F0A42BCC35F0FBE433FD0819E68762
:1001E300F0D2E7A42C4ACB35F0CD3400FC09E687E6
:1001F300F0D2E7A42DCC35F0FDE433FA0918E687F5
:10020300F0D2F7A42CCD35F0CA3400FC08E687F011
:10021300D2E7D2F7A42ACC35F07A7E20E70B0ACBBB
:1002230033CBCD33CDCC33CC33CB3350147004ED3F
:1002330030E00ED2F1E4CD3DCDCC3CCC3B5005DAE1
:1002430005C2F1EB547FC63308E63392F0FBE73384
:1002530009E733C39A502D2B70190C0D4C4D7015B3
:100263001806E608C333700D20F10AA2F013F6E472
:1002730018800B4024E4F630F002768018F618F666
:1002830018F68024D33B14501074FFA2F013F61811
:100293007680E418F618F6800FA2F013F618E6330A
:1002A30003F618ECF618EDF6D0E0FDD0E0FCD0E054
:1002B300FBD0E0FA22C0E074F112071AA2AFE433D4
:1002C300F509D2AF85A708AFA1EF5508FE74105EFC
:1002D300600612119C75A1EF74085E60081211A2EA
:1002E30075A1F78024EFA2E092F0E508A2E082F086
:1002F3005017906198E0F8900A0CE0C398A2D26579
:10030300D0335002E8F075A1FE751A00E509A2E0AA
:1003130092AF7F02020779C0E074F212071AA2AF0C
:10032300E433FED2AF9061A4E0F8759B00E59158E9
:10033300540860087591F71211F08023E591585421
:100343001060087591EF1211F68014E591A2E09206
:10035300F0E8A2E082F05007E0C2E0F012135890F8
:1003630061A3E0F8E5E9585404600E12132E75E911
:10037300FB906193E0A2E640F2751A00EEA2E092D0
:10038300AF7F01020779C0E074F212071AA2AFE44B
:1003930033FED2AF9061A5E0F8E5BF585404600680
:1003A30075BFFB12137080D1C0E0C0D0E8C0E0E994
:1003B300C0E0C082C083A8C1E8C0E0900979E0F83A
:1003C30074F828F582E43408F583D0E0F0900978D6
:1003D300E0F8A3E0687006E59590097BF090097951
:1003E300E004F0C394804002E4F0A374C6F0D08329
:1003F300D082D0E0F9D0E0F8D0D0D0E032C0E0C075
:10040300D0E8C0E0E9C0E0C082C0839009FCE0F816
:10041300A3E0687008539AFBA374018022C2E99099
:1004230009FCE0F8740128F0747C28F582E43409AF
:10043300F583E0F5C19009FCE0C394804002E4F049
:1004430080ACC3E498F8E499F91204868026C3E4E7
:100453009AFAE49BFBE920E7E9120486E498F8E4BE
:1004630099F922C3E498F8E499F9120486E498F818
:10047300E499F9C3E49AFAE49BFB22EB20E7CFE982
:1004830020E7E0B90010BB0008E88AF084F8AAF07E
:1004930022E4FBC8FA22EB70227B10C833C8C933AD
:1004A300C9335007C39AC3DBF280069A50012ADB93
:1004B300EAC833F4C8C933F4C9FA2275F008E4C8AA
:1004C30033C8C933C933C99AC99B5004C92AC93B24
:1004D300D5F0ECFBC833F4C8E4C9FA22080808EAEB
:1004E300C0E0EBC0E086F0E7A4FA180986F0E7A4C1
:1004F3002AFA180986F0E7A42AFA180986F0E7A46D
:100503002AFA1986F0E7A4FBE5F02AFA190886F01F
:10051300E7A42BFBE5F03AFA190886F0E7A42BFBD6
:10052300E5F03AFA18180986F0E7A4C5F02BFBE4C6
:100533003AFA1908E7C5F0C6A426F6E5F03BFBE452
:100543003AFA1886F0E7A4F6E5F00826F6E43B0845
:10055300F6E43A08F6D0E0FBD0E0FA22080808E611
:1005630030E711120C92120577080808C64480C6BA
:1005730018181822181818E9799EC608CAC608CB95
:10058300C608CCC6C370207996CACBCC7019798EB5
:10059300CBCC70137986CC700EF9802ACA33CACBC0
:1005A30033CBCC33CC331930E7F2CCCBCA33501432
:1005B3007004EA30E00DE4CA3ACACB3BCBCC3CCC66
:1005C300500209C3E913C6CC182313C6CB18C6CAF5
:1005D30018C6F922E4CFC0E0E4CEC0E0E4CDC0E029
:1005E300E4CCC0E075F020E626F608E633F608E62C
:1005F30033F608E633F6181818EC33FCED33FDEE4A
:1006030033FEEF33FFC3EC9709ED9709EE9709EF3C
:1006130097191919400FFFEC97FC09ED97FD09EEA7
:1006230097FE191906D5F0BFECF709EDF709EEF7B8
:1006330009EFF7191919D0E0FCD0E0FDD0E0FED0A6
:10064300E0FF222518C582C0E0E51934FFC583C049
:10065300E0E518C3958224F810AF088583198582D5
:10066300188008858319858218D2AFCEF0A3E520C0
:10067300F0A37808E608F0A3DEFAEFF0A3E58124FF
:10068300FAF8E608F0A3E608F0A3E608F0A30808E2
:10069300E608F0A3E608F0A315811581D0E0FED0AB
:1006A300E0F8158115811581E8C0E0EEC0E0221263
:1006B3000E3EB90003020704E490040178BB7917E6
:1006C3008002F0A3D8FCD9FA781A9000867A01BA8E
:1006D30000028007E493A3F608DAF97ABB7B1A9049
:1006E300008778B279018015E493A3AD82AE838A43
:1006F300828B83F0A3AA82AB838D828E83D8E9D9C0
:10070300E77582007583807405120AFC75828A7509
:1007130083267400120AFCC0D02518C582C0E0E508
:100723001934FFC583C0E0E518C3958224F310AFE5
:10073300088583198582188008858319858218D2D4
:10074300AFC8F0A3E9F0A3EAF0A3EBF0A37908E7BD
:1007530009F0A3D8FAECF0A3EDF0A3EEF0A3EFF0C9
:10076300A3D0E0F0A3D0E0F0A3D0E0F0A3E520F025
:10077300A3E5F0F0A322851983851882E0C0E0A3E6
:10078300E0F9A3E0FAA3E0FBA37808E0F608A3DF0F
:10079300FAE0FCA3E0FDA3E0FEA3E0FFA3E0C0E0DA
:1007A300A3E0C0E0A3E0F5D0A3E0F520A3E0A3F528
:1007B300F010AF0885831985821880088583198511
:1007C3008218D2AFD082D083D0E0F8D0E032E47385
:1007D3001075F0108E218F2285822685832585183A
:1007E30082851983E0CEA3E0CF852682852583EB1E
:1007F300C9EAC8EDCBECCAC3E833C8E933C9EA3365
:10080300CAEB33CBC3EA9EF524EB9FF523B3500425
:10081300AB23AA24EC33CCED33CDD5F0DAAE21AF44
:100823002222D083D082ECC0E0EDC0E0E493A3FCAD
:10083300E493A3FDED4C600D120944EC24FFFCEDA1
:1008430034FFFD80EFE493A3FCE493A3FDED4C6040
:100853000D1209E1EC24FFFCED34FFFD80EFD0E045
:10086300FDD0E0FCE493A3C0E0E493C0E022C0E049
:1008730074F212071AA2AFE433FED2AFE589A2E104
:100883005003121076758900C2C5751A00EEA2E0F6
:1008930092AF7F01020779C0E074F212071AA2AF88
:1008A300E433FED2AFE58BA2E05003121076758BD2
:1008B30000C2E880D5851983851882E0A3FEE0A3F2
:1008C300F5207808E0A3F608DFFAE0A3FFE0A3C071
:1008D300E0E0A3C0E0E0A3C0E0E0A3C0E0E0A3C089
:1008E300E010AF08858218858319800885821885F2
:1008F3008319D2AFD083D082020B02D083D082E996
:10090300C0E0E493A3C386F0C5F095F0F908E4933F
:10091300A386F0C5F095F0700BE493A3C39940054B
:10092300E9048002A3E475F002A42582F582E5F0D0
:100933003583F583D0E0F9E493A3C0E0E493C0E00A
:1009430022C0E0C3E49396087401939618400FE421
:100953009366700808740193661870007019A3A356
:10096300C3E49396087401939618A3A3400DD0E0B3
:10097300D0E0D0E0020861A3A3A3A3A3A3D0E02205
:100983007404800474028000CCC0E0EDC0E0E5187C
:10099300C39CCCAD1950011D10AF068C188D198066
:1009A300068C188D19D2AF120A7ED0E0FDD0E0FC80
:1009B3002274028000CCC0E0EDC0E0E518C39CCCFB
:1009C300AD1950011D10AF068C188D1980068C18B7
:1009D3008D19D2AF120A5CD0E0FDD0E0FC22C0E05A
:1009E300C0F088F0E4936670080874019366187089
:1009F30000A8F0A3A3700BD0F0D0E0D0E0D0E002C9
:100A03000861A3A3D0F0D0E022D083D082CCC0E091
:100A1300E493A36006120ABE1470FAE493A360067B
:100A2300120BEB1470FAD0E0FCE493A3C0E0E49360
:100A3300C0E022C0E074F212071AA2AFE433FED280
:100A4300AFC2C0E5D1A2E45003121112751A00EE31
:100A5300A2E092AF7F01020779CAC0E0E493A3C585
:100A630082CCC582C583CDC583F0A3C582CCC582A4
:100A7300C583CDC583DAE5D0E0CA22CAC0E0E0A3CE
:100A8300C582CCC582C583CDC583F0A3C582CCC541
:100A930082C583CDC583DAE6D0E0CA22C008C3E0AD
:100AA30096F50808A3E096420808A3E096420808D2
:100AB300A3E09645087001D3D00822C0E0E493A3D5
:100AC300D39C5010E493A3C39C400AD0E0D0E0D061
:100AD300E0020A29A3A3A3D0E02270090808082290
:100AE3006016181818C6C333C608C633C608C633FB
:100AF300C608C633C6D5E0EA22C09FF59FE473D08B
:100B03009F22D083D082C09FE493C0E0740193C03E
:100B1300E0740293F59F22C0E0C0D0E8C0E0A8A82B
:100B2300D2AFC2C7751A00E8A2E792AFD0E0F8D0FF
:100B3300D0D0E0327404800A740380067402800209
:100B43007401C0E0F404120B6DD0E0120E01220018
:100B5300C0D0251810AF08F518500C05198008F5FA
:100B63001850020519D2AFD0D0222518F58210AF44
:100B730008F518400C15198008F51840021519D20C
:100B8300AF85198322BB0102E722C082C083898219
:100B93008A83BB0003E08002E493D083D082226087
:100BA30016080808C6C313C618C613C618C613C644
:100BB30018C613C6D5E0EA22C3E0C696F608A3E03A
:100BC300C696F608A3E0C696F608A3E0C696F622F4
:100BD3002518F8E43519F9222518FAE43519FB220A
:100BE3002518FCE43519FD22C0E0E493A36C7009D9
:100BF300D0E0D0E0D0E0020A29A3A3D0E022251858
:100C030010AF08F518400C15198008F518400215A7
:100C130019D2AF22E76670100809E766700A08095F
:100C2300E76670040809E76622E066701008A3E02F
:100C330066700A08A3E066700408A3E06622C3E0B6
:100C43009608A3E09608A3E09608A3E096A2D265CF
:100C5300D03322C3E096F008A3E096F008A3E09611
:100C6300F008A3E096F022C3E697F60809E697F6A4
:100C73000809E697F60809E697F622181818E60811
:100C830046087009E626087005E633F422082218A0
:100C93001818E4C396F608E496F608E496F608E412
:100CA30096F622191919E70947097009E727097008
:100CB30005E733F4220922C3E4939608740193965B
:100CC3000874029396087403939622E026F608A309
:100CD300E036F608A3E036F608A3E036F622E0563F
:100CE300F608A3E056F608A3E056F608A3E056F686
:100CF30022700422600D18C6C333C608C633C6D596
:100D0300E0F41822E627F60809E637F60809E6377D
:100D1300F60809E637F622E657F60809E657F60815
:100D230009E657F60809E657F622E026F008A3E09D
:100D330036F008A3E036F008A3E036F022E647F6E3
:100D43000809E647F60809E647F60809E647F622E2
:100D5300E056F008A3E056F008A3E056F008A3E03D
:100D630056F022600D08C6A2E713C618C613C6D5EF
:100D7300E0F322C6F4C608C6F4C608C6F4C608C61D
:100D8300F4C622C3E7960809E7960809E796080917
:100D9300E79622C3E09608A3E09608A3E09608A38B
:100DA300E0962275D00075813F751801751904000E
:100DB3000206B2E6084608C3134608336002E63368
:100DC300F422E7094709C3134709336002E733F401
:100DD30022600C08C6C313C618C613C6D5E0F42296
:100DE300E6F008A3E6F008A3E6F008A3E6F022E0A5
:100DF300F608A3E0F608A3E0F608A3E0F622CAC0CB
:100E0300E0E6F0A308DAFAD0E0FA22E0FAA3E0FB86
:100E1300A3E0FCA3E0FD22EAF0A3EBF0A3ECF0A334
:100E2300EDF022E0F8A3E0F9A3E0FAA3E0FB22E867
:100E3300F0A3E9F0A3EAF0A3EBF022E5C754F844EA
:100E430001F5C77901222518F582E43519F58322C6
:100E5300E9F874FF28F90470F722C2AF75D69F0230
:100E6300000022E62618461846184622E7271947A7
:100E73001947194722120B0557DE01120B05B2E180
:100E830001120B0531E401120B05EDE401120B0510
:100E93001DE501120B056AE501120B05FEE50112C2
:100EA3000B05A7E601120B05F8E601120B053CE75B
:100EB30001120B05E0E701120B054DE801120B05CA
:100EC3007CE801120B058FE901120B05AFE9011252
:100ED3000B0513EA01120B05EFEA01120B051CEDDA
:100EE30001120B05CAED01120B0562F001120B058D
:100EF300E7F001120B055EF301120B0598F30112E3
:100F03000B05F4F401120B0507F501120B0548F567
:100F130001120B05E0F601120B05008004120B050C
:100F23007C8004120B05AF8004120B05DD800412D4
:100F33000B05228304120B05418304120B058683E0
:100F430004120B051C8404120B05688404120B05A0
:100F5300FA8404120B05D38504120B0524860412AC
:100F63000B05898604120B05FC8604120B054087CA
:100F730004120B05988704120B05BA8704120B059C
:100F83004A8804120B05DB8804120B052789041217
:100F93000B05538904120B05948904120B052C8B42
:100FA30004120B05188C04120B05FA8C04120B05A2
:100FB300A88D05120B05B98D05120B05578E051269
:100FC3000B05718E05120B05F2FF04120B05EAFFE8
:100FD30003120B05E28B05120B05F28B05120B05B1
:100FE3000D8C05120B05C18C05120B05DD8905124D
:100FF3000B05618A05120B05C98A05120B0550E121
:1010030004120B0584E104120B05B0E104120B0575
:10101300DAE104120B05FEE104120B0546E20412A9
:101023000B056DE204120B05B2E204120B0547E354
:1010330004120B05DCE304120B0511E404120B0587
:1010430036E404120B0562E404120B059DE404125A
:101053000B05D0E404120B05EF8105120B050E827C
:1010630005120B05748205120B05938205120B05FD
:10107300D88205120B05318305120B057083051207
:101083000B05738305120B05AE8805120B05C38888
:1010930005120B05378905120B05518905120B053E
:1010A300688905120B057B8905120B0593890512C7
:1010B3000B05A88905120B054AD904120B0558D94B
:1010C30004120B05D1D904120B05A6DA04120B0581
:1010D30078DC04120B05DDDC04120B0544DD04127D
:1010E3000B05F87F00120B05F1FD02120B0529FE1B
:1010F30002120B0577FF02120B05FBFF02120B0511
:1011030092E804120B05FEE804120B0573EA0412BD
:101113000B05DAEA04120B0527EB04120B05ABEB04
:1011230004120B05E0EB04120B0503EC04120B0590
:1011330033CB04120B055FCB04120B05F6CD04125F
:101143000B0536CE04120B0572CE04120B0586CEA8
:1011530004120B059FCE04120B0590CF04120B054E
:1011630042D004120B0556D004120B057C830512E2
:101173000B05A08305120B05B98305120B05F78335
:1011830005120B05278405120B05548405120B0564
:101193005E8405120B05C48405120B05C784051272
:1011A3000B05D18405120B05DE8405120B0568F8C7
:1011B30004120B0588F804120B05C7F804120B057B
:1011C300E5F804120B0500F904120B0566F9041285
:1011D3000B0572F904120B05CFF904120B05DEF9A6
:1011E30004120B0502FA04120B05C3FA04120B05D1
:1011F300D0FA04120B05E1FA04120B05B6FF011233
:101203000B05CEFF01120B05FAFF01120B052EFB96
:1012130003120B0582FC03120B0590FC03120B0552
:10122300A3FC03120B05B8FC03120B05CDFC031240
:101233000B05E0FC03120B055CFD03120B05C1FD5E
:1012430003120B0549FE03120B05C1FE03120B0526
:101253009AFF03120B05AAFF03120B05B9FF031232
:101263000B05B29005120B05D69005120B05FE90E7
:1012730005120B05269105120B050FFB04120B0536
:1012830036FB04120B0554FB04120B05C3FB0412BB
:101293000B0564EF04120B057DEF04120B0589EFB8
:1012A30004120B059DEF04120B05BBEF04120B0593
:1012B300C5EF04120B05CFEF04120B05E2EF041286
:1012C3000B056CF004120B05E1F004120B0515F18C
:1012D30004120B0563F104120B05B0F104120B05A4
:1012E300CBF104120B05D5F104120B05FBF104122B
:1012F3000B0560F204120B05CE8C05120B05F08C66
:1013030005120B057E8D05120B052F9205120B0599
:10131300D0BB04120B05FCBB04120B0519BC041251
:101323000B052CBC04120B0547BC04120B05A1BC16
:1013330004120B05CFBC04120B05E3C004120B050A
:1013430041C204120B0573C204120B05D6C2041268
:101353000B055BC404120B0583C404120B0598C46C
:1013630004120B05A8C404120B05E8C404120B05F0
:101373002AC504120B053AC504120B057E87051214
:101383000B05988705120B05C08705120B05D98736
:1013930005120B05FD8705120B051B8805120B05AE
:1013A300328805120B05608805120B057B88051230
:1013B3000B05568F05120B059A8F05120B0509E5D0
:1013C30004120B0519E504120B051EE604120B05A6
:1013D30050E604120B0580E604120B05A3E6041283
:1013E3000B05BAE604120B05F4E604120B0559E7E4
:1013F30004120B059BE704120B05E2E704120B052D
:101403000FE804120B053AE804120B05E8840512F1
:101413000B05FA8405120B050E8605120B051186C2
:1014230005120B05808E05120B05B68E05120B05F2
:10143300F88E05120B05088F05120B054C8F05124C
:101443000B05ACF801120B05E6F801120B054FF979
:1014530001120B056EF901120B0510FA01120B05AF
:1014630019FA01120B056AFA01120B0593FA01121C
:101473000B05A0FA01120B0511FB01120B059FFBD3
:1014830001120B05EDFB01120B0523FC01120B05E9
:1014930084FC01120B05ADFC01120B0524FD0112A6
:1014A3000B0580FD01120B05BDFD01120B05F4FDBB
:1014B30001120B0506FE01120B0518FE01120B05A6
:1014C30037FE01120B0540FE01120B0500FF01124E
:1014D3000B054CFF01120B058AFF01120B053E861B
:1014E30005120B05A2FF04120B0564FD04120B0584
:1014F3009AFD04120B05E2FD04120B053BFF0412D7
:101503000B052ED603120B055FD703120B059BD7D2
:1015130003120B0555D903120B057FD903120B05D3
:10152300F8DB03120B0538DC03120B05CCDD0312C9
:101533000B056BDE03120B05C3DE03120B0556DF2F
:1015430003120B0590DF03120B05D2DF03120B0509
:1015530045E103120B05C5E203120B0502E5031275
:101563000B0530E503120B055CE503120B0565E57E
:1015730003120B05C2E503120B0552E603120B051A
:101583008EE903120B0510EA03120B0508900512EE
:101593000B05209005120B052A9005120B05809070
:1015A30005120B056AD004120B0580D004120B053B
:1015B30021D104120B0560D104120B057DD1041255
:1015C3000B05AED104120B05FBD104120B052FD270
:1015D30004120B056AD204120B0567D404120B051F
:1015E300CDD404120B05E28A05120B05418B0512BB
:1015F3000B057F8B05120B05C08B05120B0558DD00
:1016030004120B05C8DE04120B05B2DF04120B052E
:10161300E6DF04120B0538E004120B05CA9105122C
:101623000B05D59105120B05E79105120B05F891F2
:1016330005120B056AC504120B05C6C504120B057A
:10164300F1C504120B0546C604120B05DEC70412CE
:101653000B052EC804120B0588C804120B05DBC842
:1016630004120B0580C904120B0526CA04120B05CC
:10167300008002120B050C8002120B056E80021211
:101683000B05788002120B05058102120B054181BF
:1016930002120B052D8202120B058C8202120B051E
:1016A300158302120B05928302120B050D8402129D
:1016B3000B05C48502120B058A8702120B0590885D
:1016C30002120B05978902120B05F88B02120B0508
:1016D3006D8D02120B050A8E02120B05568F021234
:1016E3000B05569002120B05C89102120B055F966B
:1016F30002120B05499702120B05CB9702120B0539
:10170300F09702120B05159802120B05B0980212FE
:101713000B05CE9802120B05EC9802120B055D998E
:1017230002120B057C9902120B05A99902120B05F3
:10173300AA9A02120B05939B02120B052A9D021211
:101743000B054B9D02120B05F19D02120B05389EF2
:1017530002120B05AA9E02120B052D9F02120B0506
:10176300929F02120B05EF9F02120B0592A0021229
:101773000B0507A102120B0542A102120B05A4A13E
:1017830002120B0507A302120B0597A402120B0505
:101793003EA502120B0596A702120B05E0A7021243
:1017A3000B05F5A702120B0546A802120B05B7A8F5
:1017B30002120B05E7A802120B0558A902120B052A
:1017C300F7A902120B050CAC02120B05A2AE021212
:1017D3000B05AFAF02120B05B0B302120B057AB4BF
:1017E30002120B0597B502120B054BB702120B053C
:1017F30010EC04120B05B2EC04120B05CDEC041231
:101803000B058EED04120B05F7ED04120B0505EE27
:1018130004120B05AEEE04120B05D3EE04120B05F6
:10182300C17F00120B05D48D04120B058C8E04129C
:101833000B05058F04120B05019004120B050B9188
:1018430004120B05959104120B05C19204120B05AA
:10185300E29204120B05869304120B05A994041259
:101863000B05579504120B05D39804120B05F4C00E
:1018730003120B0523C103120B059BC103120B05B6
:10188300AAC203120B0506C303120B057DC4031280
:101893000B0599C403120B05EBC403120B052EC5EC
:1018A30003120B0541C503120B0599C503120B0562
:1018B3005BC603120B05C9C603120B0500C703124F
:1018C3000B0538C703120B05CAC803120B05A9C9B8
:1018D30003120B05F7CA03120B05DACB03120B0530
:1018E30066CC03120B05A6CC03120B05C5CC031261
:1018F3000B0510CD03120B0530CD03120B05C9CD1B
:1019030003120B0558CE03120B05B3CE03120B05BE
:10191300F3CE03120B0570D103120B0594D20312FD
:101923000B05DAD203120B05CFD303120B05F7D342
:1019330003120B05FAD303120B0504D403120B0590
:1019430020D403120B05A8D403120B05E1D4031210
:101953000B050DD503120B0534D503120B0558D512
:1019630003120B05C9D503120B05DCD503120B05B6
:101973000FD603120B054B9105120B055791051258
:101983000B05959105120B05FDFF01120B057269FD
:1019930000120B05956900120B05E26A00120B0594
:1019A3002B6B00120B0512B604120B05EF6B001222
:1019B3000B05F26B00120B05436C00120B05BD6C9B
:1019C30000120B05ABDD01120B05436D00120B0575
:1019D300CB6D00120B050E6E00120B053172001257
:1019E3000B05E27300120B05237400120B059A77A3
:1019F30000120B05C87800120B05457A00120B057F
:101A0300CB7A00120B05BD7B00120B05407E001242
:101A13000B056DEA03120B050DEB03120B0579EBB6
:101A230003120B0594EB03120B051EEC03120B05BB
:101A330077EC03120B05C2EC03120B0529ED03121D
:101A43000B0592DC01120B05C2EF03120B0545F0E7
:101A530003120B054DF203120B05F1F203120B05F2
:101A630090F303120B057EF403120B055CF60312CD
:101A73000B05FDF703120B0590F803120B059CF9F8
:101A830003120B05B9A503120B051CA603120B05C4
:101A930064A603120B05A2A603120B05FDA60312EF
:101AA3000B055AA703120B0595A703120B0517A8DD
:101AB30003120B0571A803120B05E5A903120B050D
:101AC3006FAA03120B05C2AA03120B05DCAA0312A9
:101AD3000B05F6AA03120B0550AB03120B05D6AD8B
:101AE30003120B05F5AD03120B05E0AE03120B0554
:101AF3001AB003120B0599B003120B05D0B00312F1
:101B03000B053FB103120B0500B203120B05D9B34A
:101B130003120B05DAB403120B054BB603120B05C4
:101B23004BB803120B05C6BA03120B05A0BC031274
:101B33000B0561BD03120B05D9BD03120B05F0BDE7
:101B430003120B05EABE03120B05E2BF03120B05DA
:101B530051C003120B056CF504120B05C3F60412F6
:101B63000B0582F704120B05EAF704120B056BF25F
:101B730004120B0586F204120B05CAF204120B05BC
:101B8300F0F204120B0517F304120B052FF30412E2
:101B93000B05D1F304120B05E6F304120B0508F54C
:101BA30004120B0511F504120B051AF504120B05AB
:101BB30023F504120B05DAD404120B05DCD8041246
:101BC3000B05E1D804120B05E3D804120B057C8046
:101BD30005120B05039205120B05008003120B057A
:101BE300338003120B059F8003120B053A81031206
:101BF3000B05D78103120B051C8203120B053E82D2
:101C030003120B05578203120B057D8203120B058A
:101C13009F8203120B05DD8203120B05218303123E
:101C23000B05438303120B05A58303120B056C8479
:101C330003120B05238503120B05958503120B0570
:101C4300608603120B05B38603120B051987031273
:101C53000B05538703120B05A58703120B05138886
:101C630003120B057E8803120B05818803120B05F3
:101C7300028903120B05998903120B05198A0312B2
:101C83000B05388A03120B059C8B03120B05A98BDA
:101C930003120B05B58C03120B05C28C03120B0543
:101CA300CB8C03120B05A38E03120B05BD8F0312FE
:101CB3000B05369003120B05A89003120B05CA906F
:101CC30003120B055E9103120B05329303120B05EE
:101CD300099703120B051D9703120B052D9703128A
:101CE3000B05379703120B05409703120B05499712
:101CF30003120B05539703120B05809703120B0571
:101D0300A99703120B05B49703120B05D897031277
:101D13000B05FC9703120B05669803120B05AC9891
:101D230003120B05C99803120B05469903120B0501
:101D33007D9903120B05BC9903120B05099A031233
:101D43000B058F9A03120B055D9C03120B05E09C98
:101D530003120B05C49D03120B052BA003120B05E5
:101D630084A003120B05CEA003120B0529A20312B4
:101D73000B055EA203120B05B0A203120B0565A3AC
:101D830003120B0514A403120B0551A403120B0534
:101D9300E6A403120B0552A503120B0522820112BE
:101DA3000B05548201120B05828201120B05588424
:101DB30001120B05388501120B05908501120B05E5
:101DC300CB8601120B05178701120B05408A0112FE
:101DD3000B05338D01120B05838E01120B05198F31
:101DE30001120B05258F01120B05578F01120B05ED
:101DF300DA9001120B05E89101120B051292011200
:101E03000B05799201120B05D29201120B0538933F
:101E130001120B054F9501120B05DE9601120B05FE
:101E2300A89701120B05EE9801120B053E9B0112B8
:101E33000B050E9E01120B051B9E01120B05A29EA4
:101E430001120B05369F01120B05799F01120B0539
:101E5300C29F01120B0516A001120B058FA00112E0
:101E63000B05FEA001120B051BA101120B054BA1D3
:101E730001120B0580A101120B0550A201120B05E3
:101E8300F9A201120B057FA501120B059FA60112F2
:101E93000B058AA701120B050CA801120B0543AC15
:101EA30001120B0580AC01120B05D8AC01120B0516
:101EB3000BAD01120B0575AD01120B05ABAD011294
:101EC3000B0536AE01120B058EAE01120B0565AF85
:101ED30001120B051EB001120B05B9B001120B055F
:101EE300C1B301120B05DDB401120B0580B8011259
:101EF3000B0574B901120B0577B901120B05A6B9CD
:101F030001120B05ACBB01120B0585BC01120B05BD
:101F1300C8BC01120B051EBE01120B055DBE0112EA
:101F23000B05EFBE01120B0523BF01120B05E8BF22
:101F330001120B0500C201120B0571C201120B0540
:101F4300B1C201120B053FC301120B0567C4011295
:101F53000B0529C501120B0530C701120B0548C734
:101F630001120B055CC701120B0594C701120B0587
:101F7300C2C701120B0541C901120B0566CA011242
:101F83000B05CACA01120B057CCB01120B05ACCBA6
:101F930001120B0573CC01120B050BCD01120B05BE
:101FA30031CF01120B0566CF01120B05C9CF011208
:101FB3000B05F8D001120B05A0D101120B05D1D1ED
:101FC30001120B05E9D101120B0578D201120B05A1
:101FD3002CD501120B0504D701120B0520D70112D2
:101FE3000B053CD701120B050AD801120B05FDDBCB
:101FF30001120B057B2C00120B05AD2C00120B05F7
:102003009C3000120B05E83000120B052E31001234
:102013000B05D03100120B052C3200120B05713267
:1020230000120B05B83300120B05CC3400120B055C
:10203300BB3800120B053F3900120B054C3A001256
:102043000B05A83A00120B05983C00120B050D3D39
:1020530000120B05173D00120B05243D00120B0562
:102063004F3D00120B05363E00120B05E03E0012F9
:102073000B055E3F00120B057E3F00120B05A73FC9
:1020830000120B05C93F00120B05294200120B0574
:10209300EF4200120B05344300120B05B14300124B
:1020A3000B05624400120B05944400120B05DA443D
:1020B30000120B05164500120B05664500120B05B1
:1020C300BA4500120B05104600120B055C460012C0
:1020D3000B05C94600120B05444700120B050F49B7
:1020E30000120B050F4A00120B05344B00120B05AF
:1020F300734E00120B05865100120B05435200125A
:102103000B05875200120B05375400120B054B5475
:1021130000120B05555400120B055F5400120B05FA
:102123006B5400120B05875400120B053255001235
:102133000B05715500120B057B5500120B058555D8
:1021430000120B05F55500120B05405600120B0546
:10215300555700120B05B15700120B0532580012E8
:102163000B05F15800120B05FA5900120B052E5BF3
:1021730000120B051C5C00120B05345C00120B05EE
:102183008F5C00120B05AD5C00120B05F55C0012B1
:102193000B051C5D00120B05B75D00120B057D5E80
:1021A30000120B050F5F00120B05895F00120B0570
:1021B300A36000120B05506100120B057862001238
:1021C3000B05C86200120B052C6300120B058E630E
:1021D30000120B05BC6300120B05E06300120B0534
:1021E300156400120B05466400120B057964001296
:1021F3000B05996400120B05016500120B05F565CB
:1022030000120B05506600120B05796600120B05D0
:10221300016700120B05846700120B05AF670012FC
:102223000B05946800120B05FD9A04120B05359BF0
:1022330004120B05569B04120B05989B04120B0505
:10224300FA9B04120B05049C04120B05149C041244
:102253000B054F9C04120B052FA004120B051CA2A7
:1022630004120B0502A404120B0599A404120B0516
:102273003BA504120B0588BA02120B0506BB02121A
:102283000B0562BB02120B05ADBB02120B05C8BBEB
:1022930002120B05F3BB02120B0510BC02120B0555
:1022A3001CBC02120B05B3BD02120B05CCBD0212FE
:1022B3000B0551BE02120B0564BE02120B0583BE51
:1022C30002120B0527BF02120B05A8C002120B0551
:1022D3005BC202120B05F1C202120B05F4C2021219
:1022E3000B0564C302120B0582C302120B0519C44A
:1022F30002120B0561C402120B0564C402120B0522
:102303002AC502120B0597C502120B05BDC50212A1
:102313000B0548C602120B0566C602120B05ACC6B6
:1023230002120B0560C702120B05AAC702120B05A6
:10233300D9C702120B0536C802120B056BC802126D
:102343000B0597C802120B05A5C802120B05F2C8AC
:1023530002120B0562C902120B05ABC902120B056F
:10236300F7C902120B0523CA02120B052ECA021269
:102373000B054CCA02120B0537CB02120B0541CBDE
:1023830002120B057CCB02120B058CCB02120B0540
:1023930095CB02120B05E9CB02120B05FDCB021202
:1023A3000B052CCD02120B0543CD02120B0558CDA4
:1023B30002120B05E6CD02120B052BCE02120B0502
:1023C300B7CE02120B05C2CE02120B0504D00212C5
:1023D3000B051FD002120B056BD002120B05DAD0CE
:1023E30002120B0513D102120B052DD102120B059C
:1023F3006FD102120B053FD402120B05ECD402126B
:102403000B0559D502120B0599D702120B05B1D74B
:1024130002120B05B4D702120B05C0D702120B052B
:10242300D4D702120B05DCD702120B050FD8021208
:102433000B0511D902120B0598D902120B0508DA04
:1024430002120B058ADA02120B054BDB02120B0593
:102453006ADB02120B050BDC02120B0568DC0212AD
:102463000B056BDC02120B0598DC02120B05ADDCCD
:1024730002120B0521DD02120B0570DE02120B05A1
:1024830076DF02120B0501E002120B051CE10212BA
:102493000B05E4E102120B0515E202120B0538E20B
:1024A30002120B0541E202120B0570E202120B0548
:1024B30000E302120B05B6E302120B052BE4021232
:1024C3000B05D2E402120B0547E502120B057EE56C
:1024D30002120B05BCE502120B05F2E502120B0515
:1024E30033B504120B0589B204120B059BB1041218
:1024F3000B0530B104120B05DDFD02120B05D3FDF4
:1025030002120B0566FD02120B0597FB02120B0567
:1025130055FB02120B050DDD01120B05406D001278
:102523000B0563FA02120B0537FA02120B055FDC87
:1025330001120B054ADC01120B05EEF902120B0521
:102543002BF902120B0515F602120B05D8F3021232
:102553000B05A5F302120B054CF302120B05DFF278
:1025630002120B059EF202120B05D7F102120B05A4
:1025730071F102120B0510F102120B05B0F00212F9
:102583000B0587EF02120B051BEF02120B0573EE0F
:1025930002120B056EEE02120B0562EE02120B0520
:1025A3001FDC01120B058ABB04120B0556BB041278
:1025B3000B05FFBA04120B0586B904120B05D8B834
:1025C30004120B053BB804120B0595EA02120B0526
:1025D3006FEA02120B050DEA02120B05AEE90212B5
:1025E3000B05D0B704120B059BE902120B0590E90A
:1025F30002120B055FE902120B054CE702120B05F1
:10260300BCB704120B05BFE602120B05C7DC0112AF
:102613000B057BE602120B054FE602120B05DBB03E
:1026230004120B0586B004120B0559B004120B05F6
:1026330026B004120B05FEAF04120B059FAF041264
:102643000B057FAF04120B054AAF04120B050EAC4A
:1026530004120B05E3A904120B05D3A704120B05FF
:1026630050A704120B05AAEE03120B0504A70412CC
:102673000B050CB704120B05B8A604120B0512A622
:1026830004120B05896B0000000080FB8F00010022
:10269300501B870001004E1B35000400171B25004B
:1026A30002001B1B260002001D1B270002001F1B2C
:1026B30028000100291B290001002A1B84000400B3
:1026C300A71886000100C91A2A0001002B1B2B0042
:1026D30001002C1B2C000100301B2D000800B31837
:1026E3002E000100311B2F000100321B30000100BE
:1026F300331B31000100341B32000100BB183300CF
:102703000100BC1834000100351B36000100BD1860
:1027130038000100361B390001002F1B8300020023
:102723004C1B63000100C918640001002D1B6500E8
:1027330001002E1B6D000100CA1871000800AB18C0
:10274300660001004B1B430001003C1B44000200D8
:102753003D1B450001003F1B46000200401B470094
:102763000800C11848000100421B4B000100431B35
:10277300040001004F1BA1000100531B370001009F
:10278300521B88000100511B3C000100BE183D0094
:102793000100371B49000200441B67000100CB18EE
:1027A3004D000200461B4E000100481B4F00020073
:1027B300491B3E0001003B1B51000100BF185200A2
:1027C3000100391B530001003A1B54000100C018DB
:1027D3000000000000000001363601010001020183
:1027E30000010301000104010606050200000701C0
:1027F30000340801000F090401010D0100FF0E0858
:10280300000017020000190100FF1A0100011B015B
:1028130000FE1C0100081D0200001F010001200131
:102823000001210200002301000F24020000260101
:10283300000127010008280200FF2A0100072B01DD
:1028430002402C0100002D0100012E0100012F0187
:1028530000FF30010B1D310800003A0100083B0165
:10286300000F3C0100013D0100FF3E040000420453
:102873000000460400004A0400004E040000520415
:102883000000560400005A0400000000000020016C
:102893001C820000010020011E82000002002001B2
:1028A30020820000030020011D8200000400420179
:1028B300CA80000005004201EC80000006004201CE
:1028C300DB8000000700300121820000100042037A
:1028D3008617000011003003971700001200100341
:1028E30098170000FDFF21011A8203000000210355
:1028F30099170300FDFF21411A820C005500390589
:102903009B170C0045003901FA810C004100390185
:10291300FE810103710301030103010301030103A9
:102923002203020301031003000300030003000357
:102933000003000300034203000324030603000310
:1029430000030403120325032303250323030403C2
:1029530004030003000300034403000300032303F1
:10296300000365032100350381030003050300030E
:102973000003000300032503230301017101010187
:102983000101110101013101010101018001100166
:1029930061013B0014006301730172016201430191
:1029A3000001130106013D0135000401120100017C
:1029B30000010001000104010401330133013C0162
:1029C30044013201360000010001650100013500B8
:1029D30081010001050182018301000103007100EF
:1029E30030016000110070003102200350048000A8
:1029F30010006100000014006300730072006200A5
:102A03004300000013000600000000000400120051
:102A1300000000000000000004000400370037003D
:102A23003C024400000000000000000065000000BC
:102A33003500810000000500000083000000030250
:102A430071023001600211027002010202020202ED
:102A53008002100261023A004100630273027202B3
:102A63006202430200021302380000020002040261
:102A730012020002000200020002040204023700F4
:102A830037003C02440200023900000200026502E2
:102A93000002350281020002050282028302000263
:102AA30036000100060000000F00000000000000D7
:102AB30000000000000003FFFF00000403FFFF000D
:102AC30000FFFF0FF4010005C40403200001000010
:102AD3000B000000000000000003010F00000000D5
:102AE30000000000000000000000000000000000E3
:102AF3000000000000000000000000000000781744
:102B0300C0177E178E168417C6178417D2178A1715
:102B13008E168417C61790178E160000000096179E
:102B23008E1600000000000000009C178E16A217EE
:102B3300D817A8178E160000000000000000000040
:102B43000000AE17EA17B4178E16AE17EA17B417BC
:102B53008E16A217D817BA178E1600003C1A01005A
:102B63003C1A0200B2190280AC190300B819040020
:102B7300BE1904801C250500CA190600D6193100A8
:102B8300E8193300EE193400F419FFFF000007ECD5
:102B9300FDFDFDECDCDCCCBCACAC9C9C8C7C7C6C8F
:102BA3006C5C5C5C4C4C3C3C2C2C1C1C0A6C20026A
:102BB3003620054220073C200C1E200D2A20FF0052
:102BC3000000160F00000B150B020002220F33004A
:102BD300000E0F5A6967426565416C6C69616E63EB
:102BE300653039D0D1D2D3D4D5D6D7D8D9DADBDC36
:102BF300DDDEDF150AF4D4C0A595827263615550FA
:102C03004900034D4C4651181A25050200011916B7
:102C130018161618230300303016181920231A1C0F
:102C23001E30303017181921301B1D1F30003C4057
:102C3300423A3F3F392F47300C0E020B040B0A0771
:102C430008000F02040201010101090200BE040A87
:102C5300E8030000E8030100F6FBF62B0300912BC9
:102C63000E00030A0C040408040328020C051E08C2
:102C730015FF00FF0411091E74F7120646E99019A7
:102C8300A0F0901955E4F012140C9019B8E4F0A3D5
:102C9300F09019A1F0A3F01221BC1214129018D9CC
:102CA300E4F0A3F0121B9E0245E174F01206467491
:102CB300D3120C0112603D548060669019A0E0F9B4
:102CC3001214788A088B09AF09EA4F604C7C0080A4
:102CD300010CEC75F003A4F8A9F074AF28F5827425
:102CE3002B39F583E493F46029E493F88A828B8388
:102CF300E06870DDEC75F003A4F874B028F5827415
:102D03002B39F583E493C0E0740193F583D08212E9
:102D130007D1AA08EFFB12146612676F64800230B2
:102D23007C851882851983A3E05420601F1220D26A
:102D33008A088B09AF09EA4F600A12202AAA08EF12
:102D4300FB12146612676F642002307C851882853B
:102D53001983E0A2E0504290195AE0640F702E905C
:102D63000CEA12677A900CEAC3E094E9A3E09403B7
:102D7300400A7A007B809017CB1246C37900122059
:102D830000E96009901B17120E0E12201885188295
:102D9300851983E0640102306154207003023066B8
:102DA3007A207B009019A0E0F91215CEEA4B4C4D26
:102DB300701A9019B4120E26E8494A4B700E750822
:102DC30001750900750A00750B00806D750C00759F
:102DD3000D00750E00750F001215E08A088B098C23
:102DE3000A8D0B9019B4120E26E8494A4B603190B4
:102DF30019B47808120A9F400E750CFF750DFF7504
:102E03000EFF750F7F801985080C85090D8C0E8DBB
:102E13000F9019B4780C120BBB7401780C120BA22F
:102E2300850C08850D09850E0A850F0BE5084509F4
:102E3300450A450B7003022FC07C0079047A007B9E
:102E4300001220A88A0C8B0DAE0CAF0D022F047458
:102E530002120E4974FFF07403120E4974FFF074EA
:102E630004120E4974FF124736125EF77407120BF1
:102E7300E31261ADE96401706A1230884480F8A3FB
:102E8300E0F97428120E49E8F0A3E9126441E0C0A6
:102E9300E0742A120E49D0E01247235408601674D6
:102EA30028120E49A3E04401123095C0E0742C129D
:102EB3000E49D0E0F01260806011E8240B12387BD9
:102EC300F87416120E49E8F0A3E4F09081E61209B3
:102ED300837406120BE3740B120BDB121CCA74040B
:102EE300120B528E828F83A3A3A3A3A3A3A3A3A393
:102EF3007406123095F912208A7405120E49126273
:102F030004EE4F7003022FC07C007904EEFAEFFB4E
:102F13001220A87405120E49EAF0A3EB12444DE007
:102F2300F50CA3E0F50DE4F50EF50F7808790C1216
:102F33000D864023EE2404F8E43FF985080C850947
:102F43000D8882F583C3E0950CF0A3E0950D12681C
:102F530064E84970A4800C8E828F83A3A3A3A3E4A7
:102F6300F0A3F08E828F83A3A3A3A3A3A3A3A3A3FE
:102F7300A3E064018E828F83A3A3A3A3A3A37020E2
:102F8300E054046003022E528E828F83A3A3A3A373
:102F9300A3A3A3A3A37406F07AB71231BB022EFC3A
:102FA300A3A3A3A3E06003022E528E828F83A3A365
:102FB300A3A3A3A3A3A3A37401F0022EFC1220785E
:102FC3007C0079017A007B001220A8EA4B6003128F
:102FD30046BC7C0079047A007B001220A8EA4B707F
:102FE3001380448A828B83A3A3A3A312621CEE984B
:102FF300EF99400B8A828B83A3A3A3A31262047C61
:103003000079041220A88B0BA90BEA4970D5C3E5FC
:10301300089EE5099F500DC3EE9508FEEF9509FF45
:10302300EE4F700D1246BC9019B412308EA3F0808F
:1030330024EE2EFEEF338E08F509E4F50AF50B783E
:1030430008120B377A20123264120B521215E090D9
:1030530019B4120E1A851882851983E06420FAA325
:10306300E08016A3E0540460131258D41225DC79CF
:1030730001123A4212676F6404FB80047A007B00FA
:10308300742D02605CEE12606AE022E4F0A3F0A308
:10309300F022124728A3A3E022C082C08374EA125D
:1030A3000C017C167D007900AA18AB1912144E741A
:1030B30008120E497402F0901949125B101230DCA9
:1030C3007409120E49125B287413120E49E4125745
:1030D300A7121B9274160249F2E8F0A3E9F09019C3
:1030E300531261EC2274F712064674DA120C01EAE9
:1030F300FEEBFFEA4F602DAC18AD191220F07406F9
:10310300120E49E0601E7417120E49E0FD7401129D
:103113000E49E0FCEEFAEFFB7900121FD6E96004DA
:1031230079A48002790074260245DE74F7120646FC
:10313300EAFEEBFF8A82F583A3A3A3A3A3A3E05430
:103143004060178A828B8312601D12490160067AE0
:10315300FF7BFF80151260198003901949125EF7F7
:1031630074FE6A700374FF6B60411260191260434E
:10317300122186E98E828F83600B125C0612682F00
:10318300E4F0A3800312681EF07C067D208E828FFC
:1031930083123F77E9F5087015EE4F60097901EE68
:1031A300FAEFFB122084A9080245E17508CDAA08AD
:1031B3001231BBE960E380EE8E828F83125C0A24B6
:1031C3000CF582E438F583E0F91220122274F6122A
:1031D3000646E9FEEAFF7A0F7B00121460EA4B60B1
:1031E3001A8A828B83740CF0EEA3A3F0EF8A828B8E
:1031F3008312439C1258057900802BEEF91220AEFE
:103203008B09A909EA49601C8A828B83A3A3A3A320
:10321300A3A3A3A3A374061243A5E0F9121D6CEEA6
:10322300F912208A79100255F074F41206468A08BE
:103233008B098C0A8D0B90195AE0640F701EEA4BB0
:103243004C4D6018901955E064086005E064047003
:103253000B7808120B37123262120B520234C77A00
:10326300017B009019A0E0F91215BC74042274F4D8
:1032730012064674FC120C01EAFEEBFF8A82F58308
:10328300A3A3E0F91220AE8A088B09EA4B7003026C
:1032930033AA8E828F83A3A882A983E0C0E0EA12B7
:1032A30057FBD0E012420B64F160288E828F83A318
:1032B300E064CD601E8E828F83A3E0641A60148E57
:1032C300828F83A3E064E9600A8E828F83A3E06424
:1032D300E170337900122084E9602BE5082404F5BA
:1032E3000AE43509F50B850882850983A3A3A3A303
:1032F300A3A31242E11241E912141E850A82850B2F
:103303008312604380708E828F83A3E0C0E07402D7
:10331300120E49D0E0124A00124B23123C91C0E036
:103323007403120E49D0E0F0E5081264EC12393A46
:10333300E0AA18AB197005121CC4800312216E7425
:1033430002120E49E064E9702D8508828509831213
:103353003AA0750A01780A120B43750AE9780A1232
:103363000B431241BD123C5EFCA3E0FD8A828B83BA
:10337300123C88120B52850882850983A3A3A3A359
:10338300A3A3A3A3A3E06402701285088285098323
:10339300A3A3A3A3A3A3A3A3A37406F08E828F83E3
:1033A300A3A3E0F912208A122078901B1D1238ACD7
:1033B30074040234C474F4120646EAFEEBFF750883
:1033C300008A82F583A3A3A3A3A3E060387508084A
:1033D300125EEA79FF121E44EA4B601075082C8EC8
:1033E300828F83A3A3A3A3A3E0D2E0F08E828F8373
:1033F300A3A3A3A3A3E05403640160030234B34370
:1034030008110234B3EA2418124DE96036EA241A8B
:10341300124DE96003F470131261CC7003A3E069E9
:1034230060030234B37508220234B3EA241B123456
:10343300B7241A124DE9FAEE2419124DE9F9121DB7
:103443005A806D8A828B83A3A3A3A3A3A3A3A3A35D
:1034530012389770037508018E828F831261D070C2
:1034630003A3E0697006E508D2E1F508E5086015F5
:103473008E828F83A3A3E07006E508D2E58004E57E
:1034830008D2E6F5081248F464017006E508D2E0B4
:10349300F5088E828F83A3A3E06015EE241D1251DD
:1034A30008F9122174E964016006E508C2E0F50831
:1034B300A9088010F582E43FF583126887EA227435
:1034C30009120B527F040208B874F012064674D72F
:1034D300120C01EAFEEBFF8A82F583A3A3A3A3E008
:1034E300600E901B1B1260876006901B1B1238AC8A
:1034F3007403120BE38E828F83A3A3A31259D312F7
:103503005EF51220F0E9700302365D78017405124E
:103513000E49E0C39402400278007407120E49E09A
:10352300C3940240027800740C120E49E064F870F0
:1035330003A3E0F4700302365D740C120E49E064D9
:10354300F97003A3E0F4700302365D740C120E49A4
:10355300E064FA7003A3E0F4700302365D740C12A6
:103563000E49E064FB7003A3E0F4700302365D745C
:1035730006120E49E0F9901943E069600302365DD3
:10358300E8A2E0400302365D7427120E49E06003AF
:1035930002365DEE24131261E27422120E491259AF
:1035A300DD241C1261E27410120E49125B287409A7
:1035B300120E49E0601D741A120E49E0FD740412E4
:1035C3000E49E0FC8E828F83125EF57901121FD6BD
:1035D300E9703B7403120BDB122024E9F50C740928
:1035E300120E49E0702C90193DE060267422596454
:1035F30022601F744259644270147420120E4912DF
:103603003891600E7420120E4912388A60047ACF02
:10361300804AE9A2E6504D7420120E4912510E243D
:10362300FD600F14600C24FD600824FD600424FE7B
:1036330070287420120E49123883700E7420120EF3
:1036430049125734A3E0640D601A7403120BDB12A2
:10365300219EE96401700D0238737AD37B0012193D
:1036630088023873EE242DF582E43FF583123A97EE
:103673007003A3E069701D7508007808120B437886
:1036830008120B43EE242F124DE9F912389D123C18
:1036930088120B527409120E49E0700302373B1271
:1036A300389D125EF71221EC8A0E8B0FEA4B7003E2
:1036B3000237CC7404120E49E0F88E828F83A3A3E1
:1036C300E028F8A3E03400F9E8240D12387BF88AE7
:1036D300828B83A3A3A3E068600EE88A828B83A313
:1036E300A3A312439512308F7904E9120E49124EA7
:1036F30008A3E02AF8A3E034008882F583A3AA8212
:10370300AB831214548A088B098C0A8D0B850E82A5
:10371300850F83A3A3A3A37808120A9F400302384B
:10372300739082027808120CCE850E82850F83A3D4
:10373300A312688DA3124B2C901955E06404600802
:10374300E064096003023873E50CA2E54003023824
:1037530006EE242F124DF1F0EE2430124DE9C0E0B5
:103763007401120E49D0E0F0EE2431124DE9C0E0AD
:103773007402120E49D0E0F07414120E49E0640191
:103783007026740E120E491241E42413124DE96897
:103793007003A3E0697011740C120E49123897700C
:1037A300077414120E49E4F0EE2425F582E43FF584
:1037B300831209837404120BE37407120BDB121CCC
:1037C300CA7404120B5202387390199AE0640160B0
:1037D3000302373B7420120E491238917009E50C2D
:1037E300A2E6500302373B7410120E49E0F4700353
:1037F300A3E0F4607BEEFCEFFD7403120BDB1220FD
:1038030030806DA2E650697420120E49125C167066
:1038130016741A120E49E0640270557403120BDB1E
:10382300790012216880497420120E4912388A7077
:1038330014741A120E49E0640470357403120BDB1E
:1038430012215C802B7420120E49123883700C797C
:10385300007403120BDB1221AA80157420120E4987
:10386300125734E0640C70087403120BDB1221B698
:10387300742902605CE82406F582E439F583E022CA
:10388300126023E0640322126023E06407221251D2
:1038930012640622124905640222EE242BF582E407
:1038A3003F126885EE1248DA22E0F508A3E0AA0881
:1038B300FBE4FCFD1220182274F4120646EAFEEB28
:1038C300FF8C088D099018BBE0600F1261CC700368
:1038D300A3E0697005121D4880537900125EEA1255
:1038E3001D788A828B83E5824583602CA3A3A3A3DF
:1038F300A3A3E054186021E508241C1239371209E8
:1039030087123933120987EE2418123C6F1253CFF2
:103913001261A4120B52801579008E828F83A3A3A8
:10392300A3125BFC1253CF125EF7121D4E0234C773
:10393300E5082413F582E43509F5832274F71206AA
:103943004674F7120C01EAFEEBFF901955E064038D
:10395300600DE064016008E064096003023A3D8A97
:10396300828B83A3E06003023A0B7C007D007A0222
:103973007B001214181262498A821261E69019467A
:10398300125B287953121B80901955E06409600972
:10399300901953125EF71221E685188285198374F4
:1039A3000112574C9019557404F07401120BDB7912
:1039B3004A121B7A7401120BE37A4B7B191215F826
:1039C3009017CEE0640B70057406F0800579001241
:1039D3003A42901946125C027A037B001214189043
:1039E3001949125C027A047B00121418901940E002
:1039F300A2E35004D2F08002C2F0125739901B1791
:103A0300120E0E122018802FFC7D007A037B1012F9
:103A130014189017CEE0640B7003740AF09018BF6B
:103A2300E4F0FA7B401255298E828F83A3E0F912CA
:103A33003A42901955E4F012205A74090245DE9077
:103A43001953125EFB121CDC22C082C0839018D96A
:103A53001260877017901955E024FB600514600706
:103A6300800A9018DF801F9018E1801AE8496007E8
:103A73001238786401700C8A828B83A3E0F9121CDC
:103A8300D0800E9019CF1260876006125735120747
:103A9300D10252801261EC901953E068221261EC5A
:103AA300E8FAE9FB2274F512064674D8120C018A6F
:103AB300088B098A828B83A3A3A3A3A3A3A3A3E055
:103AC300C3940F5003023C598A828B83A3A3A3128E
:103AD30062047415120BE38A828B83A3A3A3A3A3AB
:103AE300A3A3A3123C5EFAA3E0FB12206674151293
:103AF3000E49E0702E850882850983A3A3A3A3A39F
:103B0300A3A3A3E0C3940B401A8E828F83A3A3A322
:103B1300A3A3A3A3A3E064027009EE240B124DE94F
:103B2300F46003023C597417120E49E06007640203
:103B33006003023C59901955E06402601CE064067E
:103B430060179018D91260877003023C59123878B5
:103B530064016003023C5980259018D91260877074
:103B63001D7508007808120B437808120B43EE24E6
:103B730010123C6F8E828F83123C88120B528E82FE
:103B83008F8312685C1242141261E87402120E49A8
:103B93001259DD123089C0E07404120E49D0E012CC
:103BA3003C91F508A3E0F509740F7808120DD4745D
:103BB30005120E49E508F07419120E49E0C0E074CD
:103BC30006120E49D0E0F0741B120E49E0C0E074F7
:103BD30007120E49D0E0F07416120E49E0C0E074EB
:103BE30009120E49D0E0F07417120E49E0C0E074D8
:103BF30008120E49D0E0F0EE2410124DE9C0E07433
:103C03000A120E49D0E0F0741A120E49E0C0E074B3
:103C13000B120E49D0E0F07427120E49E0C0E07495
:103C23000C120E49D0E0F0741C120E49A982AA832B
:103C330089088A09750A007808120B3B7C087D0005
:103C43007410120E49AA82AB83124DE0120B52AAD2
:103C530018AB19121CD6742802473CE0F98A828BF0
:103C630083A3A3A3A3A3A3A3A3A3E022F582E43F77
:103C7300F583E0F98E828F83A3A3A3A3A3A3A3A3B6
:103C8300A312688722125EFB122126740222F0EE31
:103C93001253D4E02274F212064674F8120C018A0D
:103CA3000A8B0B8C0C8D0D8908908117AC18AD19FC
:103CB3007408120A7EC200AC0AAD0BAA18AB191223
:103CC3005E787002D2009019A18013AC0AAD0BEE9E
:103CD300240BFAE43FFB125E78701B1248CB1245AB
:103CE3005E601EA20040E48E828F83E0650C700448
:103CF300A3E0650D70E58E828F83A3A3E065087052
:103D0300DAEEFAEFFB7408024221C082C0839019F5
:103D1300A102527DC082C0839019A1E4F0A3023FA7
:103D23007374F71206469019A1126775800FEA247F
:103D330014F582E41262011214FCEEFAEFFBEA4B73
:103D430070EC9019A1E4F0A3F00245E174F21206BD
:103D5300468A0C8B0DEDFF890B8A828B83E08C8264
:103D63008D83F0A3A882A9838A828B83123E1812C3
:103D7300438FE0C454F0FA88828983E04AF0EC244C
:103D830002F8E43FF9850C828B83A3A3123E181239
:103D93003E2BE0333354FC123E1FE033333354F8ED
:103DA300123E1FA3E0A2E0E4331313FA888289834F
:103DB300E04AF0EC2403FE50010FE50C2407F5085C
:103DC300E4350DF509750A007808120B3B7C087D74
:103DD30000EEFAEF124DDF120B52EE2408FE5001F3
:103DE3000FE50C240FF508E4350DF5097808120BDF
:103DF3003B7C037D00EEFAEF124DDF120B52E50B15
:103E0300C3940F400DE50C2412F582E4350D1253D3
:103E1300E3F0024224A3E08882898322FA8882891C
:103E230083E04A123E2BA322F0850C828B83A3A34B
:103E3300A3A32274F2120646EBFF8C0C8D0D8A822B
:103E4300F583E08C828D83126846A3A882A983E060
:103E530012522812420AC4125222F0EA1268501275
:103E6300522F124208A2E2E4338C828D831242075E
:103E7300131313541F125228A3124207A2E7E43369
:103E83008C828D83A3A3A3A3A3A3F0EA2403FE50F0
:103E9300010FF5088F09750A007808120B3B7C089F
:103EA3007D00E50C2407124DDB120B52EE2408FEB5
:103EB30050010FF5088F097808120B3B7C037D0036
:103EC300E50C240F124DDB120B528E828F83A3A3BA
:103ED300A3E0C0E012686CD0E0F002422474F61252
:103EE3000646EAFEEBFF8A82F583A3858208858373
:103EF30009E0F9121CF4850882850983E064EB600C
:103F03001E8E828F83A3E064E160148E828F83A36D
:103F1300E064F1600A8E828F83A3E0641A70078ED7
:103F2300828F83A3E4F0901B17120E0E12201875D4
:103F330008017808120B438E828F83A3E0F508787B
:103F430008120B437900901953125C02901949121D
:103F53003C88120B521220780255F0C082C083E9CC
:103F63009019B37003E4800274018004EAF0A3EBB8
:103F7300F0025280125EFB121B982274F612064660
:103F83009019B3E0701B7C0079017A007B0012204A
:103F9300A8EA4B600C8A828B83126087600312202D
:103FA3000C0255F0C082C08312443E401079FF12C8
:103FB30020A2E9F8902C6FE493C398500479018010
:103FC30002790002528074F21206468A0A8B0B8928
:103FD30009C2008A828B83A3A3A3A3A3A3A3A3E001
:103FE300F91220AE8A0C8B0DAE0CAF0D750801EAE9
:103FF3004F60030240AA850A82850B83125BFC850E
:104003000A82850B83A3A3A3A3A3A3A31241E9124B
:1040130020968A0C8B0DAE0CAF0DEA4F7003024154
:10402300B68A828B83A3A3A3A3E4F0A3F0E50A24B7
:104033000CFAE4350BFB8A82F583E0C0E01241BD44
:10404300D0E0F0E50A240D1241DD240D125B2212AB
:10405300218C1248E3126043E50A24111241DD2446
:1040630011125B22E50A2413126213C0E01248D531
:10407300D0E0F0D200EE2406F8E43FF91241D0126A
:10408300420B5404600302411C901B29E0F50A759E
:104093000B007407780A120CF48E828F83A3A3A3F8
:1040A300A3A3A31241C7F08E828F83A3A3A3A3A3C9
:1040B300A3E0F50AA3E0F50B7407780A120DD4E523
:1040C3000A5407FCE50960618E828F83A3A3A3A32F
:1040D300A3A3A3A3A374021247361244D3600B9085
:1040E3001941124E69A3A3125B28EC700302418DA0
:1040F300EE2406F8E43FF9E8FAE91241D0F0EC24A3
:10410300FFF50AE434FFF50B7407780A120CF48AFE
:104113008289831241C7F080718E828F83A3A3A308
:10412300A3A3A3E044800240A9EC700575080080B6
:10413300598E828F83A3A3A3A3A3A3E05420600C6F
:1041430012145AEA547F7900245F80198E828F8378
:10415300A3A3A3A3A3A3E05410601A12145AEA540E
:104163000F7900240A5001098E828F83A3A3A3A38E
:10417300F0A3E9800D8E828F83A3A3A3A37401F020
:10418300A3E41242147404124454A20050288E82F1
:104193008F83A3A3A3A3125F01F9EEFAEFFB12200F
:1041A3009CE9601212608060031241F6EEFAEFFBA5
:1041B3001214FC750800A9088067EE240CF582E44C
:1041C3003FF58322E0450AF0A3E0450B228882F500
:1041D30083E0547FF0A3E054FC22F582E4350BF531
:1041E300831261ECEE22A3E0F9850A82850B831228
:1041F3005EFB221241FD12465322EE240FF582E4A8
:104203003FF58322A3A3A3A312420F2212622FE03E
:10421300221242182212472CA3A3A3227403120BC7
:10422300527F060208B874F412064674F7120C01A2
:104233007E001220AEEA4B70030242DC8A828B833B
:10424300A3A3A3A3A3A3A3A3A3E0640660030242BF
:10425300DC8A828B83A3A3A3A3A3A3A3E0FF8A8205
:104263008B8312680EE0C0E07408120E49D0E0128E
:104273004604125B15125B281220C0EF54086057E6
:10428300851882851983125C027A007B00122090C4
:10429300EA4B70431268777C007D007A007B0080D4
:1042A300228E828F8312510EF47003A3E0F46027F1
:1042B3009019531242E11245E6601C7C007D00EE2A
:1042C300FAEFFB1220908A0A8B0BAE0AAF0BEE4F6C
:1042D30070CF7900121BB07E01EEF90234C2124294
:1042E300E522E0FCA3E0FD8E828F8322C082C0839F
:1042F3008A828B83E582458370099019B880068A88
:10430300828B83A3A312450760208A828B83A3A396
:10431300A3A3A3A3A3E0540860E5EC4D60101245EA
:104323000D7003A3E06D70D780047A007B00025206
:104333008074F21206468A088B09890AECFEEDFFA7
:104343007A147B001214F6EA4B60378A828B83A3BC
:10435300A3A3A3A3A3A3A3A3E41243A5E50A12451E
:10436300F0EEF0A3EF12439512460B12439C8A82A0
:104373008B8312688F124388125F7EA312438FF0E0
:10438300A3F0024224EA240FF582E42212684AA32E
:10439300A3221245F6E4F0A322A3F0126807125FEA
:1043A3007E221243A9221245FAA3A3A3A32274F5E2
:1043B300120646EAFEEBFF890A8C088D09EA4F6074
:1043C30075740169701279011220A2E9F8902C72B8
:1043D300E493C3985015800A740469700912443E2B
:1043E300500979118052740269704B8E828F83A3B6
:1043F300A3A3A3A3A3A3A3A3E50A12444D124B2390
:10440300126108A3E4F0A3F09019B8126087601852
:1044130080031261E888828983A3A31245078882F7
:104423008983A3A370EC80039019B8EEF0A3EF1275
:1044330044547900800279C102473F79041220A2D3
:10444300E9F8902C70E493C3982212610CA3A3A300
:1044530022F07A207B009019A0E0F91214A222C066
:1044630082C083E9F879009019B8801D8A828B8312
:10447300A3A3A3A3A3A3A3A3A3E068600574FF68F6
:104483007001098A828B83A3A312450770DE02524F
:104493008074F7120646EA4B70059019B880068AB5
:1044A300828B83A3A3124507601F8A828B83A3A3F6
:1044B300A3A3A3A3A3A3A3E06970E4EC600F8A8280
:1044C3008B831244D370D880047A007B000245E1C9
:1044D300126827E0540422C082C0839019B8800672
:1044E3008A828B83A3A312450760128A828B83A3DC
:1044F300A3A3A3A3A3A3A3E06970E580047A007B2D
:1045030000025280125EFBEA4B228A828B83125195
:10451300126C2274F21206468A0A8B0B8C0C8D0DD8
:10452300750800750900EA4B602A9019B880068E59
:10453300828F83A3A312455E601AAC0CAD0DEEFA15
:10454300EFFB850A82850B831207D1E9640170DFD3
:104553008E088F09AA08AB09024224E0FEA3E0FFFC
:10456300EE4F2274F71206469019B81261E87C00E8
:104573007D00800DE8FCE9FD88828983A3A3126195
:10458300E8E8496030EA687002EB6970E79019B8AF
:10459300125EF7E86A7002E96B88828983A3A370CD
:1045A300081261E89019B880091261E88C828D8342
:1045B300A3A3125B28802774F7120646EAFEEBFFDB
:1045C300EA4F60151220BA12463F12608060031250
:1045D30041F6EEFAEFFB1214FC8003120B527F013B
:1045E3000208B8125EFB121BA4E9641A221245F6F4
:1045F300A3A3221245FA22F08A828B83A3A3A3A347
:104603002212684A125112221243A9A32274F612EB
:1046130006469019B8126204801412622112463FB2
:104623001241F6EEFAEFFB1214FCAE08AF09EE4F9F
:1046330070E89019B8E4F0A3F00255F08E828F83EE
:104643001267FBF5831246538E828F8312465322E1
:10465300E0FAA3E0FB1214FC22C082C083EAFCEB65
:10466300FDEA4D6017EA24FBF582EB34FF12608507
:1046730070071246B1E0F460071214667905802BC7
:104683009019A0E0C0E01246B1D0E0F0902C66E4AF
:1046930093F97ABA7B1912149CE96401700B7A00BE
:1046A3007B201246C0790080027904025280EA24FA
:1046B300FFF582EB34FFF583227A207B009019A06B
:1046C300E0F91214A22274F4120646A2AFE433F501
:1046D30008C2AF9019BA12455E6038EE24FBF5822A
:1046E300EF34FF1260857A007B209019A0600512D9
:1046F30046C38005E0F91214A8E4F50AF50B780A1D
:10470300120B3FEEFCEFFD7ABA7B1912149674027A
:10471300120B52E508A2E092AFEEFAEFFB0234C7A8
:10472300124728E02212472C22124736A3A3A3A341
:10473300A3A322F08E828F8322120B527F030208DF
:10474300B874F212064674FA120C01EAFEEBFF7516
:1047530008FE7509FF12207EE9600579110248C63B
:10476300124DE6603C901B43E0C43354E0F8E03361
:104773003354FC48C0E0EE1257F53FF583D0E01206
:104783006243FAA3E0FB79FF121E44EA4B60127501
:1047930008FFEE240F124DE94404F0124DE6D2E077
:1047A300F08E828F831248FF6006EE241212625B42
:1047B300EE2413124DE9700D902C7AE493C0E012AD
:1047C30048D5D0E0F08E828F83E0A2E750045403F3
:1047D3008019EE2414124DE97012901932E0C0E0F2
:1047E3001248CBD0E0F0901932E004F0EE2411121D
:1047F3004DE964017016901B2DE0600D90193DE0AA
:10480300700A8E828F83E070031262588E828F83C8
:10481300E064017013EE240B12510864027009EE78
:10482300240F124DE94440F0AC18AD19EEFAEFFB3A
:104833001220EA8A0A8B0B74FE6508700374FFF476
:104843007003126221EA4B60768E828F83E0C0E0B0
:104853007401120E49D0E0F07404120E49EEF0A375
:10486300EFF0EE241E1261E27402120E49125B286D
:104873007401120BD3880C890D780C120B3FEE24B4
:10488300201248E8120B431248E3120987EE240E64
:104893001248E8120B439019461209877408120E46
:1048A30049E0F9AC08AD091220E47408120B52E98F
:1048B300FE74106E700BAA0AAB0B1214FC80027EFE
:1048C30010EEF97406024221EE2414F582E43FF55A
:1048D3008322EE1248DA222413F582E43FF5832281
:1048E300EE1241FE22F582E43FF583E0F50C780CED
:1048F300228E828F83A3A3A3A3A3A3A3A3A312495B
:104903000522E0FAA3E0FB122186E922C082C083DC
:1049130074D7120C019080927403120BE374261265
:104923000A7E8A828B83A3A3A3A31261E8740E1267
:104933000E4912608D1261E8740C120E49124A0876
:10494300240D1249F8C0E0741A120E49D0E0F01297
:104953005F841261E67420120E49124A082415126C
:1049630049F8C0E07408120E49D0E0F0EA241CF5BF
:1049730082E43B1261E67412120E49124A082411B2
:104983001249F8C0E07409120E49D0E0F0EA24128B
:104993001249F8C0E07407120E49D0E0F0EA241E71
:1049A300F582E43B1261E67424120E49124A08248C
:1049B300201249F8C0E07426120E49D0E0124A00D2
:1049C30074FFF07401120E4974FFF07402120E4961
:1049D30074FFF09081E61209837404120BE37407E9
:1049E300120BDB121CCA7404120B527900742912C5
:1049F3000B52025280F582E43BF583E022F08518E6
:104A03008285198322E8F0A3E9F0EA2274F41206FE
:104A13004674EC120C018A0A8B0B8C088D09E9FF92
:104A23007E107A217B001214F6851882851983EA99
:104A3300F0A3EB126097E8497003024B1C7C217DC5
:104A4300007900851882851983E0FA12144E9019B3
:104A530053125EF7851882851983125C062409F5C3
:104A630082E438F5831260437420120E491261E820
:104A73007411120E49E812517712604938F58374A4
:104A83000212517A1268157402125164124B2312E6
:104A9300517A1267F2EFF07422120E49125125F97E
:104AA300A3E0C91264EC39F583E8124E3AA3E0C9D6
:104AB300241FF582E439124B2A7423120E49125E25
:104AC300F77406120E491260437408120E49E8F097
:104AD3007426120E4912601DC082C083740C120E1C
:104AE30049AC82AD83D083D0827405120A7E7425CB
:104AF300120E49E0C0E07413120E49D0E0F07900C1
:104B0300AA18AB19122084E9640170047E0080099D
:104B13008518828519831241F9EEF974140234C49D
:104B2300E508F0A3E50922F583E50AF0A3E50BF018
:104B33002274F012064674FF120C01EAFEEBFF8C9E
:104B4300088D098A82F583A37408F0EA2416124DAE
:104B5300E960088A828B83A37410F0EA2417124D4C
:104B6300E960098A828B83A3E02408F0EA124DE707
:104B730060088A828B83A3E004F08A828B83A3A3D9
:104B8300A3A3A3A3E060198A828B83A3A3A3A3A3F4
:104B9300A3A3E0C3332402F88A828B83A3E028F023
:104BA300EA2411124DF16004740E8001E4F0901BAD
:104BB3003BE0640170168A828B83E06401600D9090
:104BC30018BFE06007124DD174018004124DD1E487
:104BD300124E3A8A828B83A3E0F8EA12308928299D
:104BE3008C828D83F0EA2411124DE9600512541270
:104BF30029F0850882850983E0C394754009750C03
:104C030000750D00024DC8E0FA7B001214F68A0C01
:104C13008B0DEA4B7003024DC88E828F83E0FA90AE
:104C23001943124E3374027808120CF4EA4508FA59
:104C3300AB09EE2412124E2D74067808120CF4A858
:104C430008EA48FCEBFD124DE66004780180027827
:104C530000EE2416FAE43FFBE4C8F9ED49FDEE2427
:104C630011124DE9F508880974097808120CF4ED5E
:104C73004509FD8A828B83124E33740B7808120C1C
:104C8300F4ED4509FDEE2417124E2D740C7808122D
:104C93000CF4ED4509FD8E828F83A3A3A3A3A3A3E5
:104CA300124E33740A7808120CF4ED4509FDEE2414
:104CB30023124E2D740D7808120CF4ED4509F9EC0E
:104CC300850C82850D83F0E9A3F0EE2402124E10C9
:104CD300124E4FF0EE2404124E10A3A3124E4FA314
:104CE300A3F0EE2413124E20F0EE2414124E20A350
:104CF300F0750B088A828B83E060151260F9125CF1
:104D030002E50C2408FAE4350DFB1215F8750B10B7
:104D1300EE2417124DE96019125C85125C02A80B90
:104D2300E50C28FAE4350DFB1215F87408250BF58C
:104D33000B8E828F83A3A3A3A3A3A3E0604EEE24D1
:104D430007F50EE43FF50F850E82F583E0C0E01210
:104D53004DFFD0E0124E3FE0C0E008124E01D0E01C
:104D6300124E3FA3126073120B3B850E82850F8395
:104D7300E01250D9A80BE50C28124DDB120B52851B
:104D83000E82850F83E0C333250BF50B124DE660CE
:104D930008C0E0124DFFD0E0F01253CF126073123F
:104DA3000B3B123088FC7D007403120E49124E082F
:104DB300E0F8E50C28F8E4350DF9E82AFAE43912AD
:104DC3004DDF120B52AA0CAB0D740102605CEA2496
:104DD30023F582E43FF58322FAE4350DFB121442F6
:104DE300740322EE2415F582E43FF583E022F58275
:104DF300E43FF583E085188285198322A80BE50C2F
:104E0300281250EC22E0FA8E828F83A322F8E43F2B
:104E1300F98882F583E0850C82850D8322F582E48F
:104E23003FF583124E59A3A3A322F582E43FF583F2
:104E3300E0F50875090022126838F922F0050B8E97
:104E4300828F83A3A3A3A3A3A3A3A322A3A31262D7
:104E53002FA3124E5922E0850C82850D83A3A3A3B1
:104E63002274030234C41261EC8E828F83A3A322C3
:104E730074F012064674FD120C0112603D740212A6
:104E83000E49E9F08C0C8D0D750B017C267D0079A4
:104E930000AA0CAB0D12144E7402120E49E0C39417
:104EA300085003025062124E18F0AC0CAD0D851879
:104EB3008285198312510EFA851882851983125738
:104EC3003412540BE96003750B008518828519832E
:104ED30012601D12512FE0F9EA850C82850D83A320
:104EE300A3A3A3A3A3A3A3A3F0A3E9125164A3A31E
:104EF30012512FA3A3E0F9E50C12609CEA1251773B
:104F0300125BF2C0E0E50C2411126870D0E012517C
:104F13007A2407F582E438F583E0C0E012686CD0A8
:104F2300E0126030740812515BA3E060268518829A
:104F3300851983E02408F8A3E03400F9E50C241371
:104F4300F582E4350D125B26850C82850D83A3E083
:104F53002408F0850C82850D83A3A3A3A3A3A3A395
:104F6300A3E0602A850C82850D83A385820E858349
:104F73000F12511CF8A3E03400F9E50C1257F53574
:104F83000D125B26850E82850F83E02408F01250F4
:104F9300E0E4F01250F4E4F0A3126030A3A3A3A35F
:104FA300E06011125140850C82850D83A3A3A3A356
:104FB300A312516CE50C125101E0700302504E1222
:104FC3005140FA1250E0EA12516CF88518828519A3
:104FD30083E028FBA3E034008B82F583E0F8E50C43
:104FE300241A126870E812516CE8C39AE50C505603
:104FF3001250FCF8902C67E493C39850047E0C8005
:1050030006E50C1250FCFE850C82850D8312511BA4
:10501300F508A3E03400F509750A007808120B3B84
:10502300EE1250D97A607B0E124DE0120B521250E1
:10503300F47460F0A3740EF0EEC333F8850E82852A
:105043000F83E0288004125101E4F0850C82850D62
:1050530083A3E0F8850C82850D83E0C3985004791F
:1050630000807012511BFAA3E03400FBE50C1262BE
:1050730052126873126043850C82850D83E0C398D6
:10508300C0E0E50C2417126870D0E012515BE060B9
:1050930040E50C2417FEE4350DFF8E82F583E024F2
:1050A300F2F0E50C241DF8E4350DF98882F583E070
:1050B300240EFAA3E03400FB8882898312604390B4
:1050C300193EE0F9121FDCE9F88E828F83E0C39862
:1050D300F0A90B02605A25E0FCE433FD22E50C1233
:1050E30050E62224191250EC22F582E4350DF583A3
:1050F30022E50C241B1250EC221250E6E02212602F
:105103002A1250EF22F582E43FF583125112221244
:1051130061F1F5838882E022A312512022125125E6
:105123002822E0F8851882851983E022A3A3E0FAF8
:10513300851882851983126023A3A3A322850C8279
:10514300850D83A385820E85830F125120FAA3E078
:1051530034008A82F583E022126034A3A3A3A3A3BD
:105163002212517FF583888222F0850E82850F8378
:10517300E004F022F0A3E912517FC82212683CF840
:10518300A3E02274F41206468A088B09EA12522F0E
:10519300A3A3F0EA1313543F125222A3F0EAC41359
:1051A3001312522F1252397409780A120DD4125263
:1051B30019A3A3A3A3A3A3F0EB12521B1252387497
:1051C3000A780A120DD4E50A5401C0E0EC12602AF1
:1051D3003DF583D0E012523D740B780A120DD412C0
:1051E3005219125236740C780A120DD4125219A3A2
:1051F300125236740D780A120DD4E50A5401C0E038
:10520300EC2424F582E43DF583D0E0F0740E7808B5
:10521300120DD40234B3E50A54018C828D83221219
:105223005228A3A322540F8C828D832254038C8291
:105233008D8322A3A3A3A3A3A3A3F08A0A8B0B2288
:10524300C082C08379008A828B83A3A3A3A3A3A371
:10525300E090193D600EE0701F8A828B83A3A3E068
:1052630070168012E06011125EEA901946E06A70CF
:1052730003A3E06B600279018003125EF7D083D051
:1052830082020B0274F21206468A0A8B0B890CEC1B
:10529300FEEDFF8A828B83E0FA12540B850A828526
:1052A3000B83A3A31253FFE0F9EA8E828F83A3A398
:1052B300A3A3A3A3A3A3A31254241253FFA3A3E062
:1052C300F91253CFEA125424A3A3E0C0E0EE241151
:1052D300F582E43FF583D0E012542BA3A3A3E0C0EF
:1052E300E0EE2412F582E43FF583D0E01261087406
:1052F3000812444DA3A3A3E06017E50A2408F8E4C9
:10530300350BF91248D5E8F0A3E9126108E0240847
:10531300F08E828F83A3A3A3A3A3A3A3A3E0601808
:105323008E828F83A31253EEEE2415125B2285081F
:1053330082850983E02408F08E828F83A3A3A3A32D
:10534300A3E060248E828F83A3858208858309E08E
:10535300F8E50A28F582E4350B1253E3A3A3F0859D
:105363000882850983E004F0EEFAEFFB1220FCE9E2
:10537300F50D70498E828F83A3A3A3A3A3A3125316
:10538300DDA37014E0F8E50A28FAE4350BFB1253A9
:10539300C5126043E50C801A1253EEE8240EF85050
:1053A3000109EE241D125B22125412F9E50CC39974
:1053B30024F2C398C0E0EE125C7CD0E0F0A90D02A9
:1053C3004224EE241DF582E43FF58322EE1253D4EA
:1053D30022240BF582E43FF58322E08E828F832221
:1053E300F583E08E828F83A3A3A32285820885831E
:1053F30009E0F8E50A28F8E4350BF922E0FA850A12
:1054030082850B83A3A3A3221262641220F6229047
:10541300193EE0F9121FDCE9F8850882850983E06B
:1054230022F0A3E912542B22F0850A82850B83A371
:10543300A3A3A322C082C0837AC67B1979E2121B7D
:105443007A7AC67B19025280C082C08390194602C1
:10545300527DC082C08390194902527DC082C083AD
:10546300794A121B7A02528074F61206469019CEBC
:10547300E0FE04F0EEF91220AEEA4B70F0EE60EDC0
:10548300F90255F074F2120646EAFEEBFF8C088D22
:1054930009890A1221EC740E120E49E0F9740F12F5
:1054A3000E49E0F8EA4B7012E8701BA90AAC08AD8C
:1054B30009EEFAEFFB12220A8065E86017E970062D
:1054C3008A828B83E4F07401687054E99019D17077
:1054D30024E4801EE97048EA24021249F8A80A2845
:1054E300F8E4340013E813F070358A828B83A3A3A6
:1054F3007401F0802AE004F0901B2AE0F89019D19F
:10550300E0C398401AE4F0901949E06E7003A3E0F9
:105513006F700CEEFAEFFB7901121CEE12552502A7
:1055230042247A017B009019A0E0F91215C8227475
:10553300F41206468A088B098C0A8D0B9082027836
:1055430008120C2C70077A011246BE801E901B179E
:105553007808120DE3EA4B4C4D600D7808120B37B7
:10556300123262120B5280031255250234C7C082D5
:10557300C083901B1B023F6FC082C083901B1D0220
:105583003F6F74F61206467E007508327509197866
:1055930008120B3F7C6E7D007A217B0012156E741E
:1055A30002120B52E9640A70027E01121C4CE96478
:1055B3000A7004EED2E1FE900487126087600F1236
:1055C30057351207D1E9640A7004EED2E3FE121EC6
:1055D30068E9640A7004EED2E4FE121AFCE9640A74
:1055E3007004EED2E5FEEEF98003120B527F020245
:1055F30008B874F6120646121412750832750919A2
:105603007808120B3F75086E7509007808120B3F76
:10561300125632120B52121C529004891260876088
:10562300061257351207D1121E6E121B0E80BE7C56
:10563300007D007A217B0012157A74042274F6121D
:10564300064674FF120C017E00750832750919783D
:1056530008120B3F7C6E7D007A217B0012156E745D
:1056630002120B52E9600302570C7808120B3F75C4
:10567300086E8E097808120B3F7C007D007A217B2F
:10568300001215807404120B52E9707D901946E0E4
:1056930064FE7003A3E0F460707E01901955E0642A
:1056A300086005E06404705C851882851983EE1236
:1056B300574C7A5D7B197943121B807A5A7B19798F
:1056C30047121B807A4B7B19794A1257277A537BEF
:1056D300197950121B807A467B197953121B807AF1
:1056E3005B7B197954121B807A487B1979E1121B71
:1056F30080901940E0A2E35004D2F08002C2F0127D
:10570300573980051214127E00121C4090048B122C
:10571300608760061257351207D1121E7AEEF974AC
:10572300010255ED121B807A497B19794B121B80BC
:1057330022A312602422A2F0E43385188285198300
:105743001257AB7952121B80221257AB7942121BAC
:10575300802274F6120646E9FEA2E0501C75083258
:105763007509197808120B3F75086E7509007808DA
:10577300120B3F125632120B52EEA2E35003121CCD
:1057830046EEA2E2500E90048D1260876006125717
:10579300351207D10255F01220607AA37B1979459F
:1057A300121B80221257AB22F0AA18AB192274F7EE
:1057B30012064674ED120C01E9FE90199FF0AC1825
:1057C300AD191257DD7412120E49EE1257EAAA18D8
:1057D300AB1912579A74130245DE901B59E0F97AFC
:1057E300A37B1912206622F0901B59E0F97CA37D5C
:1057F30019222415F582E4221268083509F583225B
:10580300EFFB9019A0E0F912146C22EE2416125843
:105813001522F582E43FF5837401F0221268073FF5
:10582300F583125829221261F1F98882F5832274D3
:10583300F41206468A088B097A007B041255291252
:1058430058D49019557409F0125E6C123933125EF4
:10585300F7125E78640170677A0F7B001214608A16
:105863000A8B0BAF0BEA4F60568A828B837402F06C
:10587300E5081262523509126270FC88828983A39B
:10588300A3E0FBEC8A828F83A3A3126044888289FE
:1058930083A3A3A3E08A828F831258C5FAA3E0FBF4
:1058A300794A121B80850882850983A3A3A3A3A336
:1058B300A3E070069017CE7405F0AA0A12580302EB
:1058C30034C7A3F0E5082415F582E43509F583E030
:1058D300229018DB1261EC901B1DE8F0A3E9F09015
:1058E30018DD1261EC901B1BE8F0A3E9F02274F4BD
:1058F30012064674FD120C018A088B097401120EFC
:1059030049740212612970030259CC12581F74049E
:10591300F0A3E41259E9E06401700888828983A343
:105923007420F0850882850983A3A3A3A3A3E0645D
:1059330001700988828983A3E0D2E6F08508828515
:105943000983A3A3A3A3A3A3E06401700A888289A4
:1059530083A3E0D2E78006EA1248D674011259E421
:10596300E064017020850882850983A3A312608700
:105973006004EA12580F850882850983A3A3126184
:10598300E8EA125B20850882850983A3A3A3A3A366
:10599300A3A3E064017009EA240F125811A3E4F0F1
:1059A3008508828509831249016009EE240F124D8F
:1059B300E94404F01259F58508828509831259D107
:1059C3001259DB126235F980027910024E64E0F855
:1059D300A3E0F98E828F8322A3A3E8F0A3E9F0EE7C
:1059E300221259E9A322F0850882850983A3A3A380
:1059F300A322EE125C6A2274F512064674F3120CAB
:105A030001890AEAFEEBFF7508007509007C0D7D2C
:105A1300007900AA18AB1912144E1253C5125C0F69
:105A2300741F58600C7AD37B001219887900025BCB
:105A33000BE8A2E55008740C120E497401F0E8A2B9
:105A4300E75008740B120E497401F0E8A2E6740AD9
:105A53005008120E497401F08008120E49E06401E7
:105A630070138E828F83A3A3A3A3A3A3A3E06036A3
:105A7300EE241380128E828F83A3A3A3A3A3A3A3D5
:105A8300A3E06022EE2415F582E43FF5831262273A
:105A9300E50845096010AC08AD097402120E49AA65
:105AA30082AB831215F81253CF125B10125B28746A
:105AB3000A120E49E064017046901B4EE060476491
:105AC300017006901B37E0603DEE240B1261E290FB
:105AD3001949E0687003A3E069702B1248F470263B
:105AE300E508450960191221088A088B09AC08AD3D
:105AF300097402120E49AA82AB83125E786007AA68
:105B030018AB19121CE8A90A740D02473C125B1466
:105B130022E0F8A3E0F9851882851983222418F579
